:020000040800F2
:1000000058530024AD030008313D0008813A000830
:10001000293D0008D1090008094D00080000000032
:100020000000000000000000000000000140000887
:10003000D909000800000000413D000831400008D7
:10004000CB030008CB030008CB030008CB03000858
:10005000CB030008CB030008CB030008CB03000848
:10006000CB030008CB030008CB030008CB03000838
:10007000CB030008CB030008CB030008CB03000828
:10008000CB030008CB030008CB030008210A0008BB
:10009000310A0008CB030008CB030008CB0300089B
:1000A000CB030008CB030008CB030008CB030008F8
:1000B000CB030008CB030008CB030008CB030008E8
:1000C000CB030008CB030008CB030008CB030008D8
:1000D000CB030008CB030008CB030008CB030008C8
:1000E000CB030008CB03000800000000CB0300088E
:1000F00039410008CB030008CB030008CB030008FC
:10010000CB030008CB030008CB030008CB03000897
:10011000CB030008CB03000829410008CB030008EB
:10012000CB030008CB030008CB030008CB03000877
:10013000CB030008CB030008CB030008CB03000867
:1001400000000000000000000000000000000000AF
:10015000CB030008CB030008CB030008CB03000847
:10016000CB030008CB030008CB030008CB03000837
:10017000CB030008CB030008CB03000800000000FD
:10018000CB030008CB030008CB030008CB03000817
:10019000CB030008CB030008CB030008CB03000807
:1001A000CB030008CB030008CB03000800000000CD
:1001B000CB030008CB030008CB030008CB030008E7
:1001C000CB030008CB030008000000000000000083
:1001D0000000000000000000CB0300080000000049
:1001E000000000000000000000000000000000000F
:1001F0000000000000000000CB030008CB03000853
:10020000CB030008CB03000800000000CB0300086C
:10021000CB030008CB030008CB030008CB03000886
:10022000CB03000800000000CB0300080000000022
:10023000CB030008CB03000800000000CB0300083C
:10024000CB030008CB030008CB030008CB03000856
:10025000CB030008CB030008CB030008CB03000846
:10026000CB030008CB030008CB030008CB03000836
:10027000CB030008CB030008CB03000800000000FC
:10028000CB030008CB030008CB030008CB03000816
:1002900000000000CB030008CB03000800000000B2
:1002A00000000000CB030008CB030008CB030008CC
:1002B000CB030008CB030008CB030008410A000869
:1002C000CB030008CB030008CB03000800F002F8C2
:1002D00000F05DF814A696E8000CB244B344DA4589
:1002E00001D100F054F8BAE80F000FA696E83000EC
:1002F000A5EB040504EB0607AAEB0704A7F1010729
:100300004FEA15154FEA3414A4F10104AC4201D3AD
:1003100000F03DF813F0010F18BFFB1A43F0010382
:1003200000F001F8DBE71847407A0000607A00002F
:10033000103A24BF78C878C1FAD8520724BF30C811
:1003400030C144BF04680C60704700007047000073
:100350000023002400250026103A28BF78C1FBD8CE
:10036000520728BF30C148BF0B6070471FB507F068
:1003700069FC9DE8030000F015FA00F07BFA00F03C
:100380002DF91FBD10B5002000F042FA10BD00F09D
:100390007BFA1146FFF7EAFF04F0F2FF00F0B3FA30
:1003A00003B4FFF7EFFF03BC00F0BEFA0A48804732
:1003B0000A4880470A480047FEE7FEE7FEE7FEE7F7
:1003C000FEE7FEE7FEE7FEE7FEE7FEE70548064933
:1003D000064A074B70470000F10900085140000829
:1003E000CD020008584D002458530024584F0024D3
:1003F000584F002453EA020C00F069802DE9F04BBD
:100400004FF00006002B1FBFB3FA83F503FA05F483
:1004100024FA05F65E4012BF1643B2FA82F502FADC
:1004200005F4C5F120051EBF22FA05FC44EA0C04C0
:10043000203556EA044C4FEA144418BF641C4FF0B0
:1004400000084FF00009904271EB030C39D30029EA
:1004500019BFB1FA81F701FA07F6B0FA80F700FA8E
:1004600007F6C7F120071EBF20FA07FC46EA0C0674
:100470002037B6FBF4FCA7EB0507103F07F01F0B76
:10048000CBF120062CFA06F60CFA0BFB44BFB34660
:100490000026202FA4BF5E464FF0000B5BEA060C3F
:1004A00008BF4FF0010B19EB0B0948EB0608ABFB3B
:1004B000027C06FB02CC0BFB03CCC01B71EB0C01D6
:1004C000C1E70B46024641464846BDE8F08B13B5EE
:1004D000084318BF4FF0FF300146AFF30080BDE87E
:1004E0001C4070470B460146184600F0E3B8032A4B
:1004F00040F2308010F0030C00F0158011F8013B41
:10050000BCF1020F624498BF11F801CB00F8013B27
:1005100038BF11F8013BA2F1040298BF00F801CBEB
:1005200038BF00F8013B11F0030300F0E780083A00
:10053000C0F0088051F8043B083A51F804CBA0E819
:100540000810F5E7121D5CBF51F8043B40F8043B6E
:10055000AFF30080D20724BF11F8013B11F801CBA3
:1005600048BF11F8012B24BF00F8013B00F801CB74
:1005700048BF00F8012B704702F0FF0343EA032253
:1005800042EA024200F002B84FF0000200B5134602
:1005900094469646203922BFA0E80C50A0E80C50A3
:1005A000B1F12001BFF4F7AF090728BFA0E80C5054
:1005B00048BF0CC05DF804EB890028BF40F8042B4D
:1005C00008BF704748BF20F8022B11F0804F18BFBA
:1005D00000F8012B704770477047704708487CB59A
:1005E0007844009007487844009C0546019004E058
:1005F0002046016808448047241DAC42F8D17CBDE8
:10060000A4770000A277000070B5064600F0AAF8B3
:10061000056806F10B0020F00704B4429CBF0020DF
:1006200070BD2B466A68BAB11068A04210D304F1BD
:10063000080188423CBF5068586007D351681019C0
:1006400041601168091B016058601460101D70BD85
:1006500013465268002AE7D12146284600F08EF85A
:100660000028DED170BD70B50446051F00F07AF891
:100670000068002C14BF446870BD002C18BFAC4249
:100680003CBF20466468F8D301680A18AA4218BF24
:10069000456003D12A680546114401602868411964
:1006A000A1421CBF6C6070BD61686960216808442C
:1006B000286070BD2DE9F041074615460E46102012
:1006C000FFF7A2FF040013D06760C4E90265094880
:1006D000AFF3008000F04AF8016821600649046029
:1006E000002008600348AFF300800020BDE8F081DF
:1006F0000120FBE7040000240000002410B5203A8C
:10070000C0F00B80B1E81850A0E81850B1E81850BC
:10071000A0E81850203ABFF4F5AF5FEA027C24BF8E
:10072000B1E81850A0E8185044BF18C918C0BDE877
:1007300010405FEA827C24BF51F8043B40F8043B40
:1007400008BF7047D20728BF31F8023B48BF11F8F5
:10075000012B28BF20F8023B48BF00F8012B70474F
:100760000020704700487047280000240048704768
:1007700058000024704770477047704738B50446EA
:100780000A4600206946AFF30080002808BF38BD44
:1007900002460099204600F09CF8012038BD012057
:1007A00000F0BAB8F8B5AFF30080054600200C465B
:1007B0000C2000BF0646A819A0420DD93246694652
:1007C0000020AFF30080070008BF00F0A5F80098F4
:1007D000A04218BF0546C419FFF7C4FF05600746CD
:1007E000F01D20F007004619284600F00AF8B44230
:1007F00008BFF8BDA21B31463868BDE8F84000F0DC
:1008000068B800210160416070470C20704700000B
:100810002DE9F84306461548AFF30080FFF7A6FF21
:10082000134F8146E8464D4616E026B1E068B042D7
:1008300001D0254610E0206828600C48C7F80080E9
:10084000AFF30080D4E9010188470848AFF3008086
:100850003968414500D04D462C68002CE5D1002078
:1008600038600248AFF30080BDE8F883040000243C
:10087000000000240148FFF773BF000004000024BB
:1008800000487047200000247546FFF7F9FFAE4688
:1008900005006946534620F00700854618B020B58C
:1008A000FFF794FDBDE820404FF000064FF0000731
:1008B0004FF000084FF0000BAC46ACE8C009ACE8C4
:1008C000C009ACE8C009ACE8C00921F007018D46B9
:1008D0007047034640688C46002818BF88423CBFDA
:1008E00003464068F8D318681844884207D00CF1D2
:1008F000030020F00700001D411A521A0146081D8E
:100900000A60FFF7B0BE10B50446AFF30080204682
:10091000BDE81040FFF744BD10B500F011F8BDE888
:10092000104000F008B8000001491820ABBEFEE7F7
:10093000260002007047002801D0FFF7F5BF70477E
:1009400010B5012805D0002103A000F021F80120F6
:1009500010BD09A1F8E7000053494752544D454DD9
:100960003A204F7574206F662068656170206D6550
:100970006D6F7279000000003A2048656170206D4B
:10098000656D6F727920636F727275707465640043
:1009900070B505460C460A2000E06D1C00F011F809
:1009A00035B128780028F8D102E0641C00F009F87D
:1009B00014B120780028F8D1BDE870400A20AFF3C8
:1009C000008008B569468DF800000320ABBE08BD65
:1009D000FEE700000000000070470000000000007B
:1009E000EFF3108072B600BFFEE7000000000000C9
:1009F00044F60400C5F60200816841F002018160FE
:100A00000168890409D4016889045CBF01685FEA50
:100A1000814102D401688904F2D5704700000000CA
:100A200040F29C10C2F2004000F01EBA000000002C
:100A300040F23C20C2F2004000F016BA0000000074
:100A400040F2DC20C2F2004000F00EBA00000000CC
:100A500090F89830013B012B0ED80068836D0B4253
:100A600012D0836D0B408B4232D1C36D43F0020331
:100A7000C3658B050ED412E000F19C010120022217
:100A80000B681A430A607047C36D43F00103C365E6
:100A90008B0504D5D0F8E0301343C0F8E0304B05A7
:100AA00004D5D0F8E4301A43C0F8E4204FF6FF72C2
:100AB000436DC3F6CF720A401A4342658A0F4AF665
:100AC00014010020C4F200010B681A430A60704749
:100AD0000323C3658B05DDD4E1E7000000000000BF
:100AE00090F89830022B1BD12DE9F0430668D6F818
:100AF000C03013F07C5F1BD0D6F8C4309B0221D4E9
:100B0000D6F8C4300C69C3F3044CD1E90035002D8C
:100B10008D6821D023432B4343F0804E20E000BF5B
:100B2000D0F89C1041F00801C0F89C1001207047DB
:100B3000D0F89C1041F02001C0F89C100120BDE8C5
:100B4000F08300BFD0F89C1041F40071C0F89C10F5
:100B50000120BDE8F08300BF44EA834343EA050E69
:100B6000836ED0F88450D1E907970CFB03F48B69AE
:100B700049EA0767D1F81480D1F80C901F4305EBC0
:100B8000840347EA080745F824E047EA09475F601D
:100B9000CF6887B147F61055083303320024C0F6FA
:100BA000000500BF171957F8037C1F51CF680434A4
:100BB000EF5DBC42F6D3012101FA0CF1C6F8D0106A
:100BC000C0F894100020BDE8F08300000000000091
:100BD000704700000000000090F89820013A012AB8
:100BE0000CD880B50A68002ACA680FD00B69072A9A
:100BF00043EA427E18D18B691BE000BFD0F89C10FD
:100C000041F00201C0F89C1001207047072A19D159
:100C10000A69D1E906C3120442EA032242EA0C023D
:100C200042F0605218E000BFD1F808C04B6943EAB7
:100C30008C73006F496800EBC10240F831E05360EB
:100C4000002080BD8B68D1E904CE9B0743EAC262D5
:100C500042EA0C4242EA0E024968C06E40F8212086
:100C6000002080BD00000000704700000000000070
:100C700070470000000000002DE9F04390F89870E4
:100C8000022F11D1402919D10668D6F8A07017F4A7
:100C9000FE0F2FD0D6F8A4707F0635D0D6F8A470FA
:100CA000FF013BD400273CE0D0F89C1041F0080144
:100CB000C0F89C100120BDE8F08300BF41290FD18E
:100CC0000668D6F8B07017F4FE0F13D0D6F8B470DB
:100CD0007F0619D0D6F8B470FF012BD400272CE082
:100CE000076DB94206D200F17C05466D4FF0000C4D
:100CF0000F462BE0D0F89C1041F02001C0F89C106A
:100D00000120BDE8F08300BFD0F89C1041F4807151
:100D1000C0F89C100120BDE8F08300BFD6F8A07099
:100D2000FF0FD6F8A46000F17405C6F305263E4413
:100D3000476C0AE0D6F8B070FF0FD6F8B46000F147
:100D40007805C6F305263E44C76CB44607FB06F497
:100D50002D6805EB840E55F8247017F08047576016
:100D600055F8247027F0604608BFC7F38A4616601E
:100D700055F8247007F00057976055F8244004F0A8
:100D800000441461BEF80440D461BEF8064014F07B
:100D90000F04D460DEF8044004F480145461DEF8DB
:100DA000044004F4001494619EF8074004F07F04AA
:100DB0001462DEF804404FEAD474546228D047F637
:100DC00010580024C0F600080EEB0406651C377AA4
:100DD0001F55D76818F80770BD4219D21F19757AC8
:100DE0007D70D56818F80590A51C4D453FBFB57AB4
:100DF000BD70D56818F805903CBFE51C4D4507D27D
:100E0000F57A0434FD70D56818F80550AC42DBD390
:100E1000402905D10068C0F8A8C00020BDE8F083D3
:100E2000412905D10068C0F8B8C00020BDE8F083B2
:100E30001F2909D80068012202FA01F1C0F89810B0
:100E40000020BDE8F08300BF006801F01F0101220F
:100E500002FA01F1C0F89C100020BDE8F083000008
:100E600070470000000000002DE9F04F87B00446F5
:100E70004AF61000C4F2000001684AF61400C4F2F9
:100E80000000026820680A40D0F850B0D0F85490B2
:100E9000056D466D036D0293436D0193036D0693DB
:100EA000436D0593036D0493436D0393D0F854A0F1
:100EB000D0F850805FEACA5311D518F480710ED073
:100EC0004FF4807101654AF610010020C4F2000160
:100ED000174608602046FFF7C3FF3A4620685FEADE
:100EE0004A510BEA090B4FEA827740F14B814AF6EF
:100EF000100918F48061C4F2000910D0D0F8DC1099
:100F00000092D0F8E42011404FF480620265002086
:100F1000C9F80000204600F07FFC009A206805EA2E
:100F200006050BF4704657B10021016502F003007D
:100F3000C9F8000020463946FFF74AFE2068DDE97F
:100F4000012101EA020705F00F0546B10665002000
:100F5000C9F800002046314600F066FC206807F022
:100F6000F00645B105650020C9F800002046294675
:100F700000F012FC206846B106650020C9F80000A8
:100F80002046314600F010FC20685FEA0A510CD57B
:100F900018F4006109D04FF4006101650020C9F820
:100FA0000000204600F044FC20685FEA8A5111D519
:100FB00018F400710ED0D0F8D810D0F8E02011400D
:100FC0004FF4007202650020C9F80000204600F0CE
:100FD00027FC20685FEA0A310CD518F4002109D0FB
:100FE0004FF4002101650020C9F80000204600F000
:100FF000CFFB20685FEACA310CD518F4803109D0E4
:101000004FF4803101650020C9F80000204600F04F
:10101000FFFB20685FEA4A31DDE9032101EA0205AE
:101020000CD518F4802109D04FF4802101650020EF
:10103000C9F80000204600F0E7FB20685FEA8A312B
:10104000DDE9052102EA010205F060710ED518F410
:1010500000330BD04FF4003303650023C9F8003090
:10106000D4F89C3043F08003C4F89C3002F07155F2
:1010700039B101650020C9F800002046FFF7F8FDEE
:10108000206845B105650021C9F80010D4F89C100E
:101090002943C4F89C10A9F5016188420AD0D4F80C
:1010A0009C0000286AD0204607B0BDE8F04FFFF74B
:1010B000DBBD00BF606881688907F0D0016A426AC1
:1010C000036A476A114003EA070202F03005D0F8CC
:1010D0002080D0F82490D0F820B0466A026A0692A8
:1010E00011F00F01426A0592D0F824A0026A04921E
:1010F00003D00162204600F07BFB08EA09072DB10E
:10110000606829460562204600F07AFB5FEA4A6083
:1011100006EA0B0607F4C0750ED5049810F04000DF
:101120000AD060684023C16BC26B090C02F03F0219
:101130000362204600F060FBDDE9051000EA0107CC
:1011400006F4FC462DB1606829460562204600F091
:101150004BFB07F4F02036B161680E62D4F89C10A6
:101160003143C4F89C10002899D061680862D4F813
:101170009C100843C4F89C0091E700BF07B0BDE88D
:10118000F08F00BF4AF61009C4F20009002F05EAEB
:1011900006050BF470467FF4C7AED0E600000000F1
:1011A000F0B12DE9F04F83B04AF200080446C4F2D2
:1011B00000080068404533D094F89810B9B38169AD
:1011C00021F01001816100F00BFC05462068816967
:1011D000090707D500F004FC401B0B28F6D312E0EA
:1011E00001207047816941F00101816100F0F8FB45
:1011F000054600BF20688169C90721D100F0F0FBD6
:10120000401B0B28F6D30120D4F89C100843C4F8E7
:101210009C00032084F89800012003B0BDE8F08F03
:1012200008F58071616094F898100029C7D10020FA
:1012300084F89900204600F0B3F92068BFE700BFAA
:10124000816941F002018161217C826922F04002C2
:10125000012918BF40328261617C826922F4804298
:10126000012908BF02F580428261A17C826922F4D3
:101270008052012918BF02F580528261816921F4F0
:101280004073D4E902120B438361836923F0A40302
:101290008361036923F0100303619AB1012A0DD021
:1012A000022A09D08369032A43F08003836103691A
:1012B00043F01002026105D1202200E0042283697C
:1012C0001A438261D4E90572E369561E6FF0FF028A
:1012D000256A02EB0323B1F5407F43EA4663A5F19B
:1012E000010646EA030640F20003CFF6FF7303EB64
:1012F000074746EA0701C16110D1D4E90B65D4E97B
:101300000917013F02EB06226FF00F063A4306EB86
:1013100005173A4303EB01411143C160236E2BB122
:10132000616ED0F8C0201143C0F8C010E16DCDE966
:101330000113D94247F66041C0F6000109D0D0F848
:10134000C820A36E22F0070251F823301A43C0F8D8
:10135000C820D4F840C0BCF1000F09D0D0F8BC20A0
:10136000636C22F0070251F823301A43C0F8BC2006
:10137000D4F848B0BBF1000F0AD0D0F8BC20E36C21
:1013800022F0700251F8233042EA0312C0F8BC2068
:10139000D4F850A0BAF1000F0AD0D0F8BC20636D89
:1013A00022F4E06251F8231042EA0121C0F8BC1097
:1013B000404504D161688A6822F003028A600021F6
:1013C000C4F89410C4F89C10012184F8981004F11A
:1013D0003409D0F884104FF6FC729143656C99E89B
:1013E0000C02009541EA8201C0F88410D0F8841004
:1013F00021F47F0141EA0341C0F884109918D0F824
:1014000088306FF38F0343EA8103C0F88830D0F847
:10141000883023F4FE0343EA0943C0F8883001EB27
:101420004903D0F8A0606FF38F0646EA8306C0F840
:10143000A060D0F8A06026F4FE0646EA0C46C0F88C
:10144000A06005FB0C36D0F8B0306FF38F0343EA91
:101450008603C0F8B030D0F8B03023F4FE0343EA7E
:101460000B43C0F8B030E36CD0F8AC506FF38F058D
:1014700003FB0B6645EA8605C0F8AC50D4F85480EF
:1014800008FB0A65D0F8F0606FF38F0646EA850620
:10149000C0F8F060D0F8F0E0A66D2EF47C1747EAB3
:1014A0000647C0F8F070F70007EB8507D0F8C0508A
:1014B0006FF38F052F43C0F8C070D0F8C070009D47
:1014C000DDF804E027F47C1705FB0CFC4AF200056C
:1014D00047EA0E47C0F8C070C4F2000503FB0BC317
:1014E00005F54067D0F8C05007EB820207EB810199
:1014F00025F07C57029D47EA0567C0F8C07001EBF4
:10150000C90008FB0A372167A16E00EB8C0C6067ED
:1015100000EB8303E266C4E91EC30EFB01F300EB9C
:1015200087006943C4F8800000EBC600C4F884005B
:1015300000EB8300C4F8880000EB81004DF2FC3121
:10154000C4F20001C4F89000884201D920205BE673
:1015500082421FD21146002041F8040BD4F890308B
:101560009942BFF45AAE506002F10801D4F89030AD
:1015700099423FBF906002F10C01D4F8903099423B
:10158000BFF44BAED0601032D4F890108A42E1D351
:1015900043E600BF002003B0BDE8F08F000000006C
:1015A000B0B5B6B0044602A8B8210025CDE934553F
:1015B000CDE932553195FEF7E7FF4DF20041206845
:1015C000C4F20001884200F097804AF20041C4F260
:1015D000000188424CD04AF20001C4F20001884266
:1015E00040F0D180002003904FF4004002904FF073
:1015F00080501D9002A800F0AFFC08B1FFF7F0F991
:1016000040F2841144F2E040C2F20041C5F602000B
:101610000A68002A02F101020A6008D1C16841F497
:101620008071C160C16801F4807101910199016804
:1016300041F008010160006840F2004100F008003C
:101640000190C5F6020101980320319002203290EA
:101650000020CDE933000920359001F5006031A963
:1016600000F0EAF8132006210022132486E000BFD0
:10167000002003904FF4004002904FF080501D90E6
:1016800002A800F069FC08B1FFF7AAF940F2841142
:1016900044F2E040C2F20041C5F602000A68002AA6
:1016A00002F101020A6008D1C16841F48071C16091
:1016B000C16801F4807101910199016841F0020152
:1016C0000160006831A900F00200019001984FF418
:1016D00040503190022032900020CDE933000920A3
:1016E000359040F20040C5F6020000F0A5F8142045
:1016F00007210022142441E04FF4004002904FF0F3
:1017000080501D9002A8039500F026FC08B1FFF759
:1017100067F940F2841144F2E040C2F20041C5F69C
:1017200002000A68002A02F101020A6008D1C168B9
:1017300041F48071C160C16801F480710191019927
:10174000016841F0200101600068002100F02000E4
:1017500001900198C020CDE9331140F20041319051
:10176000C5F6020102203290359001F5805031A972
:1017700000F062F89F20082100229F2400F048FA20
:10178000204600F031FA36B0B0BD00000000000085
:101790007047000000000000C90708BF704703F051
:1017A00077BD00000000000070470000000000004E
:1017B00090F8981001290DD1022180F89810016845
:1017C0008A6922F001028A610021C0F89C10002081
:1017D000704700BFD0F89C1041F00401C0F89C1085
:1017E000012070470000000070470000000000006A
:1017F000704700000000000070470000000000007B
:10180000704700000000000070470000000000006A
:10181000704700000000000070470000000000005A
:10182000704700000000000070470000000000004A
:1018300070470000000000002DE9F04F83B00F68F2
:10184000002F00F0C98000F1264642F2004506F163
:10185000FF76C5F602050A22A8424FEAB62540F2F5
:10186000040C08BF092200F120030093082DC5F6DF
:10187000000C38BF4FEAB622002400264FF00008C3
:1018800001920AE008F101080F6837FA08F206F140
:10189000020604F1040400F09F80012202FA08FE0F
:1018A00017EA0E09EED0D1F804B003220BF00307BB
:1018B000B2407D1E6FEA020A012D11D88268CD6800
:1018C00002EA0A02B5402A438260CBF3001542685F
:1018D00022EA0E0205FA08F52A43426004E000BF3E
:1018E000032F01D103271FE0C2688D6802EA0A02B4
:1018F000B540022F42EA0502C26015D16FF0030223
:1019000004F01C0502EA580B009A0F2352F80BE072
:10191000AB400F692EEA0303AF403B4342F80B3064
:10192000D1F804B00BF00307026807FA06F302EAE5
:101930000A021BF4403F42EA03020260A2D044F2D2
:10194000F44340F2084EC5F60203C5F6000E0F251B
:101950001A6842F002021A601A6802F00202029249
:1019600028F00302029B04F00C0352F80E709D4015
:10197000AF43019D05FA03F33B4342F80E304FF0AD
:10198000B04EDEF800204B6842EA0907DD0258BF7E
:1019900022EA09079D02CEF80070DCF8002042EA36
:1019A000090758BF22EA09079D03CCF80070DCF84C
:1019B000802042EA090758BF22EA0907DB03CCF876
:1019C0008070DCF87C2042EA090758BF22EA090748
:1019D000CCF87C7056E700BF03B0BDE8F08F000084
:1019E00044F25860C2F200400068704700000000F6
:1019F00040F2080044F25861C2F20040C2F20041D5
:101A000000780A6810440860704700000000000079
:101A100080B5032000F02CF901F0BEF944F2184122
:101A200047F6B843C5F60201C0F600030A68C2F3E0
:101A300003229A5C096801F00F0102F01F02595C51
:101A4000D04040F21402C2F2004201F01F0120FA1D
:101A500001F1116040F21001C2F2004108600F2054
:101A600000F00AF800281CBF012080BD00F0A4F897
:101A7000002080BD000000000F2843D8B0B58AB018
:101A800004462C2000222146002500F0C1F82C201D
:101A900000F0AAF840F20C00C2F20040046044F2E8
:101AA000F040C5F60200016841F0020101600068E3
:101AB00001A900F002000290029802A801F0B8F813
:101AC00001F03AF94DF683614000C4F21B3140F257
:101AD0000042A0FB010140F2C830C2F200404FF0CA
:101AE000FF33C4F20102026003EB9141C0E901152A
:101AF00040F2E731C0E9031501F0F2FC20B101200A
:101B00000AB0B0BD0120704740F2C830C2F20040B8
:101B100001F03AFD0AB0B0BD10B54EF6A05E4378B4
:101B2000CEF2000E90F800C04EF8083CDEF800300F
:101B300023F00103CEF8003043684EF8043C037BE9
:101B4000C27A817A447B120642EA0372837B42EABC
:101B5000C141C27B41EA8441447A41EA4341007A6F
:101B600041EA024141EA042141EA400040EA0C0016
:101B7000CEF8000010BD00004EF62450CEF200005A
:101B8000BFF35F8F016821F480310160002101679C
:101B900070470000000000004EF6245140F00100A4
:101BA000CEF200010867086840F480300860BFF397
:101BB0004F8FBFF36F8F704781B044F2F440002223
:101BC000C5F60200016841F00201016000680F21C2
:101BD00000F0020000906FF00100009B01B000F0E7
:101BE00017B8000000000000002848BF704700F050
:101BF0001F01012202FA01F14EF20012C0F34A1055
:101C0000CEF2000242F820107047000000000000F1
:101C100070B54EF60C5C4FF0FF36CEF2000C00F1C2
:101C2000604505F56445DCF80030C3F3022E8EF004
:101C30000703042B28BF0423BEF1030406FA03F3B1
:101C400021EA030100F00F0338BF0024043B002801
:101C5000634406FA04F048BF03F10C05A14022EAF0
:101C6000000008430001287070BD00000000000063
:101C70004EF60C514FF6FF03CEF200010A681A40EF
:101C800060F30A2242F0806040F0FD700860704707
:101C9000B0B544F60C05C5F6020529684907296860
:101CA00006D401F00701081A18BF0120B0BD00BF1B
:101CB00021F0070108432860FFF792FE044600BFA9
:101CC00055F8080C800407D4FFF78AFE001BB0F516
:101CD0007A7FF5D90120B0BD0020B0BD0000000022
:101CE00080B500F0D1FF44F2204147F6B842C5F676
:101CF0000201C0F600020968C1F30211515C01F053
:101D00001F01C84080BD000080B544F2384EC5F6C2
:101D1000020E5EF8103C5EF8101C5EF80C2CC1F34D
:101D2000053CDEF80410BCF1000F19D0C9089FED86
:101D30003C1AD20601EAE27103F003026FF35F314D
:101D400000EE101AB8EE400ADFE802F0022210227C
:101D50005EF8381C89060DD49FED331A18E000BFD9
:101D600000218160C0E9001180BD00BF9FED2D1AE8
:101D70000EE000BF5EF8381C49F20002C0F2D0321B
:101D8000C1F3C10122FA01F101EE101AB8EE411AB5
:101D9000DEF800109FED253A6FF35F2102EE101A76
:101DA000DEF80010C1F34621B8EE422A013100EE00
:101DB000032A00EE10CAB7EE003AB8EE400A81EEF0
:101DC000000A32EE031A20EE010A01EE101AB8EEF4
:101DD000411A80EE011ABCEEC11A80ED001ADEF83D
:101DE0000010C1F30641013101EE101AB8EE411A9C
:101DF00080EE011ABCEEC11A80ED011ADEF8001067
:101E0000C1F30661013101EE101AB8EE411A80EEFD
:101E1000010ABCEEC00A10EE101A816080BD00BF3E
:101E20000024744A20BCBE4B0024744C00000039CE
:101E300080B544F2404EC5F6020E5EF8183C5EF8DE
:101E4000181C5EF8142CC1F3055CDEF80410BCF11C
:101E5000000F19D0C9089FED3C1AD20501EAE271C2
:101E600003F003026FF35F3100EE101AB8EE400A80
:101E7000DFE802F0022210225EF8401C89060DD431
:101E80009FED331A18E000BF00218160C0E9001106
:101E900080BD00BF9FED2D1A0EE000BF5EF8401C14
:101EA00049F20002C0F2D032C1F3C10122FA01F1BD
:101EB00001EE101AB8EE411ADEF800109FED253A37
:101EC0006FF35F2102EE101ADEF80010C1F3462115
:101ED000B8EE422A013100EE032A00EE10CAB7EE36
:101EE000003AB8EE400A81EE000A32EE031A20EE04
:101EF000010A01EE101AB8EE411A80EE011ABCEE8A
:101F0000C11A80ED001ADEF80010C1F3064101315C
:101F100001EE101AB8EE411A80EE011ABCEEC11A99
:101F200080ED011ADEF80010C1F30661013101EE07
:101F3000101AB8EE411A80EE010ABCEEC00A10EE8B
:101F4000101A816080BD00BF0024744A20BCBE4BC3
:101F50000024744C000000392DE9F0470446C07895
:101F600044F22C480007C5F6020828D5606E4FEAF7
:101F7000305103292AD8DFE801F0030B131B00BFFF
:101F8000D8F8001041F40031C8F8001010E000BF8C
:101F900004F10800022101F007FF064680B906E0BF
:101FA00004F12800022101F093FF064640B9606E5B
:101FB000D8F8241021F440110843C8F82400002662
:101FC0006078C00706D135462FE000BF0126607853
:101FD000C007F8D0A06D04283ED83546DFE800F0F1
:101FE00004140E0B0B0000BFD8F80000354640F477
:101FF0000030C8F800002F46C5B90DE004F12800F4
:10200000002101F065FF04E004F10800002101F067
:10201000CBFE05462F464DB9D8F82400A16D20F01F
:10202000070000250843C8F82400374660784007B9
:102030003AD5D4F8A4004FEA7050052818D8DFE844
:1020400000F0031D11232323D8F8000040F40030D2
:10205000C8F8000018E000BF01250127607840079C
:10206000E7D421E004F12800002101F031FF0AE06B
:1020700001250126607800071AD44FE004F108001A
:10208000002101F091FE05462E461DB16078000743
:102090000ED443E0D8F82C00D4F8A41020F460004B
:1020A00000250843C8F82C003E466078000735D567
:1020B000D4F8A8004FEA3060052813D8DFE800F014
:1020C00004180C1E1E1E00BFD8F8000040F400309B
:1020D000C8F8000012E000BF04F12800002101F060
:1020E000F7FE0AE001250127E07880071AD434E0E2
:1020F00004F10800002101F057FE05462F461DB1EE
:10210000E07880070ED428E0D8F82C00D4F8A81086
:1021100020F0E06000250843C8F82C003746E0783E
:1021200080071AD5E06C4FEA3010032838D8DFE872
:1021300000F009032D0900BFD8F8000040F400307A
:10214000C8F800002E464DB9D8F82000E16C20F008
:10215000300000250843C8F820003E466078C006DD
:1021600039D5E06D4FEA3030042847D8DFE800F079
:1021700004221C0A0A0000BFD8F8000040F4003016
:10218000C8F800002F463DBB1CE000BF04F108006A
:10219000022101F009FE0546002D2E46DED1D3E7CF
:1021A00001250126DAE700BF04F12800002101F033
:1021B0008FFE04E004F10800002101F0F5FD054662
:1021C0002F464DB9D8F82400E16D20F4E0400025F9
:1021D0000843C8F8240037466078800635D5206E5D
:1021E0004FEA3040052815D8DFE800F0041A0E0445
:1021F000040400BF2E46DDB91EE000BF0125012703
:1022000060788006EBD420E004F12800012101F081
:102210005FFE0AE0012501266078400619D449E0F6
:1022200004F10800012101F0BFFD05462E461DB155
:10223000607840060DD43DE0D8F82400216E20F4EB
:10224000E02000250843C8F824003E466078400698
:1022500030D5D4F8AC004FEA307005280ED8DFE84E
:1022600000F00313070303032F46ADB918E000BFC6
:1022700004F12800012101F02BFE0AE001250127CD
:10228000607800061AD43CE004F10800012101F056
:102290008BFD05462F461DB1607800060ED430E058
:1022A000D8F82C00D4F8AC1020F0E040002508430A
:1022B000C8F82C0037466078000622D5E06E58B189
:1022C000B0F1005F0CD0B0F1805F37D1D8F80000DA
:1022D00040F40030C8F800002E469DB908E000BF69
:1022E00004F10800012101F05FFD05462E464DB9BD
:1022F000D8F82400E16E20F0405000250843C8F8CB
:1023000024003E46E078C0071DD0A06C032855D8B5
:10231000DFE800F008024A08D8F8000040F4003076
:10232000C8F80000A9467DB9D8F82000A16C20F0BB
:10233000030000250843C8F8200004E00125012619
:10234000E078C007E1D1B146A078400602D44F46FC
:1023500018E000BFD8F8D40340F48070C8F8D40364
:10236000FFF73EFB064600BFD8F8D403C00507D4EC
:10237000FFF736FB801B6428F6D90325032701E00D
:102380002F46FDB12078C00700F06F80A06F4FEAA4
:10239000F00005284ED8DFE800F00353470303039D
:1023A000002D2E4654D157E004F10800022101F01F
:1023B000FBFC0546002DA946C6D1B5E701254FF027
:1023C0000109C1E7D8F84410D4F8B000414011F435
:1023D000407F11D0D8F84410D8F8442042F480321D
:1023E000C8F84420D8F8442021F4407122F4803207
:1023F000C8F84420C8F84410B0F5807F40F0D0827F
:10240000FFF7EEFA064641F2883A0325032700BF9C
:10241000D8F84400800700F1C182FFF7E1FA801B81
:102420005045F5D9AEE700BF04F12800012101F0C5
:102430004FFD0AE0012501262078800719D446E0E7
:1024400004F10800012101F0AFFC05462E461DB144
:10245000207880070DD43AE0D8F82800A16F20F04A
:10246000380000250843C8F828003E462078800739
:102470002DD5606F05280FD8DFE800F0041408049C
:10248000040400BF2F46ADB918E000BF04F12800D6
:10249000012101F01DFD0AE00125012720784007F8
:1024A00019D447E004F10800012101F07DFC054644
:1024B0002F461DB1207840070DD43BE0D8F8280006
:1024C000616F20F0070000250843C8F82800374650
:1024D000207840072ED5D4F8900005280ED8DFE8E4
:1024E00000F00313070303032E46ADB918E000BF45
:1024F00004F12800012101F0EBFC0AE0012501268E
:10250000207880061AD44BE004F10800012101F084
:102510004BFC05462E461DB1207880060ED43FE0C8
:10252000D8F82C00D4F8901020F0070000250843BC
:10253000C8F82C003E462078800631D5D4F88C00AF
:102540004FEA307005280FD8DFE800F004140804C3
:10255000040400BF2F46ADB918E000BF04F1280005
:10256000022101F0B5FC0AE0012501272078400690
:102570001AD44BE004F10800002101F015FC0546D7
:102580002F461DB1207840060ED43FE0D8F8280031
:10259000D4F88C1020F0E04000250843C8F828004B
:1025A00037462078400631D5D4F898004FEAB0205D
:1025B00005280FD8DFE800F004140804040400BF65
:1025C0002E46ADB918E000BF04F12800022101F049
:1025D0007FFC0AE001250126207800061AD44EE08F
:1025E00004F10800002101F0DFFB05462E461DB175
:1025F000207800060ED442E0D8F82C00D4F89810C9
:1026000020F4E05000250843C8F82C003E4620780E
:10261000000634D5D4F89C004FEA7030052815D850
:10262000DFE800F0041A0E04040400BF2F46E5B1F1
:102630002068010727D4C1063ED4000355D477E0B3
:1026400004F12800022101F043FC0AE001250127E2
:1026500020680107EFD516E004F10800002101F021
:10266000A3FB0546002D2F46E2D1D8F82C00D4F864
:102670009C1020F4604000250843C8F82C00374621
:1026800020680107D7D5D4F88000B0F5805F09D164
:1026900004F12800022101F01BFC002818BF0127CB
:1026A000D4F88000D8F8281021F440510843C8F825
:1026B00028002068C106C0D5D4F89400B0F5807F0A
:1026C00009D104F12800022101F002FC002818BF02
:1026D0000127D4F89400D8F82C1021F44071084355
:1026E000C8F82C002068000322D5D4F8A000B0F56B
:1026F000003F11D0B0F5803F08D0002844D104F14C
:102700000800002101F050FB05E000BF04F12800A3
:10271000022101F0DDFB05462E4655B9D8F82C0004
:10272000D4F8A01020F4403000250843C8F82C004D
:102730003E46A07840072CD5D4F88400B0F5401F61
:102740000BD0B0F5001F0BD0B0F5801F2AD1D8F800
:10275000000040F40030C8F800002F46D5B907E06B
:1027600004F12800012101F0B3FB05462F468DB985
:10277000D8F82800D4F8841020F44010002508432D
:10278000C8F8280005E000BF01250126A078400711
:10279000D2D43746A078C00709D13E4621688800C8
:1027A00015D532E001250127A078C007F5D0206DAE
:1027B000B0F5803F10D018BBD8F8000040F40030CE
:1027C000C8F800002E4685B1216888001DD46068D5
:1027D0008A0326D465E000BF04F10800022101F05D
:1027E000E3FA0546002D2E46EED1D8F82000216DE3
:1027F00020F4803000250843C8F82000CDE700BF52
:102800000125012621688800E1D504F12800022174
:1028100001F05EFB002818BF0126D4E900108A03EE
:102820003FD5E26F6FF0010303EB3223022B0BD392
:102830004FEA322343B1012B40F0AA80D8F8003090
:1028400043F40033C8F8003025B3CA022CD48A02FE
:1028500034D44A003CD4CA0F49D1090251D4C1072B
:102860005AD1810763D441076CD4010776D4C106DD
:1028700000F18080800607D504F12800022101F0D4
:1028800027FB002818BF0125002D18BF0125284669
:10289000BDE8F087D8F8283023F440731A43C8F80D
:1028A00028203546CA02D2D5D8F82420236F22F03A
:1028B00000421A43C8F824208A02CAD5D8F8242036
:1028C000A36E22F080721A43C8F824204A00C2D5B1
:1028D00058F81C2C22F4004248F81C2CD4F8B420E0
:1028E00058F81C3C1A4348F81C2CCA0FB5D0D8F82D
:1028F0002020636D22F040521A43C8F820200902BC
:10290000ADD5D8F82810D4F8882021F4400111431F
:10291000C8F82810C107A4D004F10800002101F074
:1029200043FA002818BF0546606881079BD504F16B
:102930000800012101F038FA002818BF0546606838
:10294000410792D504F10800022101F02DFA002878
:1029500018BF0546606801077FF589AF04F12800BC
:10296000002101F0B5FA002818BF05466068C106CD
:102970007FF580AF04F12800012101F0A9FA0028B9
:1029800018BF0546606880063FF576AF7CE700BF5C
:102990000125CA027FF55BAF86E700BFD4F8B0001F
:1029A0004FF6CF7358F81C2CC0F2FF0300F44071AF
:1029B00022F47C5203EA10136FF31F30B1F5407F0D
:1029C00008BF1A43002548F81C2CD8F844100843C7
:1029D000C8F84400FFF7BBBC2DE9F04381B00028E4
:1029E00000F0208142F200090446C5F20029D9F81E
:1029F000000000F00F0081420DD9D9F8000020F04E
:102A00000F000843C9F80000D9F8000000F00F00DB
:102A1000884240F00781206844F218464207C5F614
:102A200002060AD52269336803F070039A4204D97A
:102A3000336823F070031A43326002070AD56269D3
:102A4000736803F070039A4204D9736823F070032B
:102A50001A437260C2060AD5A269736803F4E06380
:102A60009A4204D9736823F4E0631A4372608206C1
:102A70000AD5E269B36803F070039A4204D9B368D7
:102A800023F070031A43B26010F002020AD0E36828
:102A9000376807F00F07BB4204D9376827F00F07E4
:102AA0003B433360C3073FD0306820F47062D4E901
:102AB00001031A433260012856F8182C0AD0032863
:102AC00004D002280AD192030BD4ABE0920108D4BF
:102AD000A8E000BFD20504D4A4E000BF520740F133
:102AE000A180884656F8081C21F00701084346F8E3
:102AF000080CFEF775FF054641F2883756F8080CBA
:102B0000616800F03800B0EBC10F09D0FEF768FF34
:102B1000401BB842F2D9032001B0BDE8F08300BFEA
:102B20002068414600F0020252B1E268336803F0C7
:102B30000F039A4204D2336823F00F031A43326022
:102B4000D9F8002002F00F0291420CD2D9F80020EF
:102B500022F00F020A43C9F80020D9F8002002F041
:102B60000F028A425ED141070AD52169326802F01C
:102B70007002914204D2326822F070021143316037
:102B800001070AD56169726802F07002914204D2AD
:102B9000726822F0700211437160C1060AD5A16902
:102BA000726802F4E062914204D2726822F4E06238
:102BB0001143716080060AD5E069B16801F07001C7
:102BC000884204D2B16821F070010843B06000F07F
:102BD000E3F8316847F6B842C0F60002C1F30321BA
:102BE000515C336803F00F0301F01F01D25C20FA3F
:102BF00001F102F01F0040F21402C2F2004221FA79
:102C000000F0106040F20C0040F21002C2F20040EE
:102C1000C2F200420068116001B0BDE8F043FEF767
:102C20002BBF00BF012001B0BDE8F0830000000011
:102C30003F22026044F21842C5F6020252F8083CF4
:102C400003F007034360136803F470638360136841
:102C500003F00F03C360136803F07003036153684C
:102C600003F070034361536803F4E0638361926887
:102C700002F07002C26142F20000C5F2002000685A
:102C800000F00F000860704780B500F085F844F24E
:102C9000184147F6B843C5F60201C0F600030A68BA
:102CA000C2F303229A5C096801F00F0102F01F02CF
:102CB000595C20FA02F201F01F0040F21401C2F246
:102CC000004122FA00F0086040F21001C2F2004117
:102CD0000A6080BD0000000080B500F05DF844F29D
:102CE000184C47F6B843C5F6020CC0F60003DCF8F2
:102CF0000020C2F303229A5CDCF8001001F00F01FF
:102D000002F01F02595CD04040F21402C2F20042AD
:102D100001F01F0120FA01F1116040F21002C2F22D
:102D200000421060DCF80400C0F30210185C00F0F0
:102D30001F0021FA00F080BD80B500F02DF844F2AC
:102D4000184C47F6B843C5F6020CC0F60003DCF891
:102D50000020C2F303229A5CDCF8001001F00F019E
:102D600002F01F02595CD04040F21402C2F200424D
:102D700001F01F0120FA01F1116040F21002C2F2CD
:102D800000421060DCF80400C0F30220185C00F080
:102D90001F0021FA00F080BD44F20041C5F6020197
:102DA0000869C0F3C200032816D002280ED00028FC
:102DB00032D10868800649F20000C0F2D03058BF16
:102DC00070470968C1F3C101C840704747F6400029
:102DD000C0F27D10704700BF8B6A886AD1F82CC0A2
:102DE0004A6BC0F30510E8B1C2F3CC0203F0030351
:102DF00000EE102A9FED2A1AB8EE400A20EE010AD2
:102E00009FED281ADFE803F0022110210A689206DC
:102E10000ED49FED261A18E040F60010C0F23D00D7
:102E2000704700BF002070479FED1F1A0DE000BFE4
:102E30000A6849F20003C0F2D033C2F3C10223FA98
:102E400002F201EE102AB8EE411A0A6B9FED183A11
:102E50006FF35F2202EE102A5FEACC7203FE000AD3
:102E600003EE100A086BB8EE422AC0F34620B8EE13
:102E7000433A013030EE020AB7EE002A81EE031A1F
:102E800030EE020A21EE000A01EE100AB8EE411AF5
:102E900080EE010ABCEEC00A10EE100A704700BFB7
:102EA000000000390024744A20BCBE4B0024744C3E
:102EB000000000000000000070B3F0B581B00446CF
:102EC000007844F20046C007C5F6020626D12078F5
:102ED00080076AD5306910F03801B06A42D01829ED
:102EE00008BF5FEA80703DD0E0683168002800F0DC
:102EF0002D8121F0190108433060FEF771FD054670
:102F0000306840074AD4FEF76BFD401B0228F7D912
:102F1000032001B0F0BD00BF01207047306900F010
:102F20003801B06A102905D018290BD100F0030030
:102F3000022807D130688003C9D560680028C6D14F
:102F4000AAE000BF61683068002900F03981B1F55E
:102F5000A02F00F02D81B1F5803F40F0478140F473
:102F6000803049E130684007E06802D5002800F071
:102F70009380316821F0190108433060FEF730FD7D
:102F8000054600BF3068400708D4FEF729FD401B06
:102F900002284FF00300F5D901B0F0BD7068216937
:102FA00020F0FE4040EA016070602078C0061AD52B
:102FB000306900F03801B06A082907D0182940F0BC
:102FC000858000F00300012840F080803068C00553
:102FD00002D5E06980285FD1F068216A20F07C503A
:102FE00040EA0160F060207800073FD42078800636
:102FF00056D42078400700F18180656A9DB330691E
:1030000000F03800182840F01981012DB16A306BAA
:1030100042D001F00302A36A9A423DD1C1F30511E7
:10302000E26A914238D10146226B6FF35F21013A87
:10303000914231D1C0F34622616B01398A422BD1D2
:10304000C0F30642A16B01398A4225D1C0F3066064
:10305000E16B013988421FD1706BA16CC0F3CC00C9
:10306000814240F0A581002001B0F0BD60690028D8
:10307000706F59D040F001007067FEF7B1FC054653
:10308000706F8007B2D4FEF7ABFC401B0228F7D963
:10309000032001B0F0BD00BF012001B0F0BD00BFB2
:1030A000A0690028306871D040F480503060FEF78D
:1030B00097FC0546306880049BD4FEF791FC401BCA
:1030C0000228F7D9032001B0F0BD00BFE069002855
:1030D000306800F0A18040F080003060FEF780FC96
:1030E000054600BF3068C0053FF576AFFEF778FCB7
:1030F000401B02284FF00300F4D94DE7D6F8000436
:1031000040F48070C6F80004FEF76AFC054600BF74
:10311000D6F80004C0052BD4FEF762FC401B6428DF
:10312000F6D9032001B0F0BD20F001007067FEF772
:1031300057FC0546706F80077FF558AFFEF750FCCF
:10314000401B02284FF00300F4D925E721F00100CD
:103150003060FEF745FC0546306840077FF525AF37
:10316000FEF73EFC401B02284FF00300F4D913E7A2
:10317000A168306F002900F08B80052900F0808065
:10318000012940F09D8040F001009FE020F4805034
:103190003060FEF725FC0546306880047FF529AFD6
:1031A000FEF71EFC401B02284FF00300F4D9F3E6A3
:1031B00040F480203060306840F480301CE000BF74
:1031C00020F480303060306820F480203060FEF7DA
:1031D00007FC0546306880037FF579AEFEF700FCFA
:1031E000401B64284FF00300F4D9D5E620F480306A
:1031F0003060306820F480203060FEF7F1FB054637
:10320000306880033FF563AEFEF7EAFB401B64289D
:10321000F6D9032001B0F0BD20F080003060FEF749
:10322000DFFB05463068C0057FF5DDAEFEF7D8FB55
:10323000401B02284FF00300F4D9ADE6306820F0BF
:1032400080703060FEF7CCFB022D05460CD100BF2C
:10325000306880014CD5FEF7C3FB401B02284FF0BD
:103260000300F5D998E600BF306880017FF5FBAE1A
:10327000FEF7B6FB401B02284FF00300F4D98BE6A3
:1032800040F004003067306F40F001001EE000BFE6
:1032900020F001003067306F20F004003067FEF747
:1032A0009FFB054641F28837306F80077FF5A5AE5A
:1032B000FEF796FB401BB8424FF00300F4D96BE6D3
:1032C00020F001003067306F20F004003067FEF717
:1032D00087FB054641F28837306F80073FF58DAE9A
:1032E000FEF77EFB401BB8424FF00300F4D953E6D3
:1032F00004F12807B06A40F2F33188438ECF0843C7
:10330000591E40EA02104FF47E426FF35F21B06213
:1033100002EB47204FF4FE0280B2E36B0844A16B3E
:1033200002EB01414FF0FE4201F4FE0102EB0362A9
:10333000084402F0FE4108443063F06A4FF6F87129
:1033400020F00100F062706BA26C884340EAC2007A
:103350007063F06A216C20F00C000843F062F06AA0
:10336000616C20F002000843F062F06A40F48030A3
:10337000F062F06A40F40030F062F06A40F48020BD
:10338000F062F06A40F00100F062306840F0807056
:103390003060FEF725FB0446306880013FF563AEE0
:1033A000FEF71EFB001B02284FF00300F4D9F3E5E3
:1033B000F06A20F00100F062FEF712FB0546FEF70E
:1033C0000FFBA842FBD0706B4FF6F871A26C8843DC
:1033D00040EAC2007063F06A40F00100F062002031
:1033E00001B0F0BD000000007047000000000000C8
:1033F000704700000000000070470000000000005F
:1034000090F83C20012A4FF0020266D0B0B580F857
:103410003D2040F2004C0268C4F2010C42F480638B
:1034200063455368D2F808E002BF23F470034C6888
:1034300023434DF6FF740D68C4F2000423F07003BB
:10344000A24243EA0503536014DC40F2FF73C4F266
:1034500000039A4222DD40F60003C4F200039A42C0
:103460002ED040F60043C4F200039A4228D041F621
:10347000000321E04FF6FF73C4F200039A4213DD0C
:103480000023C4F201039A421AD044F20003C4F2AA
:1034900001039A4214D0624512D016E0B2F1804F77
:1034A0000ED040F2004307E04EF20003C4F20003E6
:1034B0009A4205D04EF20043C4F200039A4204D16E
:1034C0002EF080038968194391600022012180F861
:1034D0003D1080F83C20BDE8B04010467047000029
:1034E00060B310B5044690F83D0028B9002084F878
:1034F0003C00204600F024F8022084F83D002068BB
:10350000211D00F021FE012084F8480084F83E00CF
:1035100084F83F0084F8400084F8410084F84200B9
:1035200084F8430084F8440084F8450084F8460099
:1035300084F8470084F83D00002010BD012070474A
:1035400041F200010068C4F20001884218BF7047D0
:1035500080B582B044F2E8400022C5F6020001685E
:1035600041F0100101600068062100F01000019098
:1035700001983620FEF74CFB362002B0BDE88040B3
:10358000FEF732BB0000000090F83D10012927D162
:10359000022180F83D1001684DF6FF70C4F2000072
:1035A0008142C86840F00100C8601BDC40F2FF7037
:1035B000C4F2000081422DDD40F60000C4F200009C
:1035C00081423DD040F60040C4F20000814237D035
:1035D00041F60000C4F20000814231D03CE000BF5F
:1035E000012070474FF6FF70C4F2000081421BDDDE
:1035F0000020C4F20100814222D044F20000C4F253
:10360000010081421CD040F20040C4F2010081421E
:1036100016D021E0B1F1804F12D040F20040C4F248
:10362000000081420CD017E04EF20000C4F200000E
:10363000814205D04EF20040C4F2000081420BD11D
:1036400007228868C0F2010202400020062A18BF43
:10365000B2F5803F00D17047086840F00100086073
:1036600000207047000000007047000000000000CC
:10367000F0B581B004460068C5680669B10717D582
:1036800015F0020114D06FF00201016101212177D0
:103690008069800704D02046FFF7E6FF06E000BF00
:1036A000204600F09DF8204600F09EF8002020778C
:1036B000700719D515F0040016D020686FF00401CA
:1036C000016102212177806910F4407F04D02046F7
:1036D000FFF7CAFF06E000BF204600F081F8204651
:1036E00000F082F800202077300717D515F0080089
:1036F00014D020686FF00801016104212177C069AE
:10370000800703D02046FFF7AFFF05E0204600F01A
:1037100067F8204600F068F800202077F00619D5F9
:1037200015F0100016D020686FF01001016108211B
:103730002177C06910F4407F04D02046FFF794FF42
:1037400006E000BF204600F04BF8204600F04CF8A1
:1037500000202077F00718BF15F0010006D0206880
:103760006FF001010161204600F042F805F080078A
:1037700016F4025F18BF002F02D1F00509D410E043
:1037800020686FF4025101612046FFF731FEF00519
:1037900007D537B120686FF4807101612046FFF7CB
:1037A00023FE700609D515F0400006D020686FF0A2
:1037B00040010161204600F033F8B0060CD515F049
:1037C000200009D020686FF020010161204601B07F
:1037D000BDE8F040FFF710BE01B0F0BD00000000F2
:1037E000704700000000000070470000000000006B
:1037F000B0B541F200050446C4F20005006805F5C5
:103800007441884202D1FEF7F3F82068A84218BF3D
:10381000B0BDBDE8B04001F087BD00000000000071
:10382000704700000000000090F88410012901D1C9
:10383000022070472421C0F8881001680A680B68CC
:1038400022F0005223F001030B60002343660A605C
:103850002021C0F8881080F88430002070470000D4
:1038600090F88420012A01D10220704770B52422EB
:10387000C0F888200268D0F864E0BEF1000FD2F8EA
:1038800000C0136823F001031360936823F06063A2
:1038900041EA0301916019D0916847F6205E936870
:1038A000C0F6000E5B0F47F62855C1F34266C0F61E
:1038B00000051EF80340E95C2301B3FBF1F11EF89B
:1038C0000630AE5D1B01B3FBF6F301E001210123DD
:1038D000A0F86A102021A0F86830C2F800C0C0F833
:1038E0008810002180F88410002070BD00000000C6
:1038F00090F88420012A01D10220704770B524225B
:10390000C0F888200268D0F864E0BEF1000FD2F859
:1039100000C0136823F001031360936823F0604331
:1039200041EA0301916019D0916847F6205E9368DF
:10393000C0F6000E5B0F47F62855C1F34266C0F68D
:1039400000051EF80340E95C2301B3FBF1F11EF80A
:103950000630AE5D1B01B3FBF6F301E0012101234C
:10396000A0F86A102021A0F86830C2F800C0C0F8A2
:103970008810002180F88410002070BD0000000035
:1039800010B5D8B10446D0F8880028B9002084F8D2
:103990008400204600F028F82420C4F8880020681D
:1039A000A16A0268002922F00101016002D02046CC
:1039B00000F086FC204600F0ABFD08B1012010BDF0
:1039C0002068416821F490414160816821F02A011A
:1039D0008160016841F0010101602046BDE81040AE
:1039E00000F0DEBC00000000B0B5B6B0044602A88E
:1039F0000830B02100253195CDE93455CDE9325557
:103A0000FCF7C2FD41F200012068C4F201018842C6
:103A100002D036B0B0BD00BF0120029002A80395CD
:103A2000FEF79AFA08B1FCF7DBFF44F2E040C5F676
:103A30000200016941F010010161016901F010010A
:103A400001910199016841F002010160006831A90A
:103A500000F00200019001984FF4404031900220A4
:103A600032900020CDE933000420359040F2004030
:103A7000C5F60200FDF7E0FE36B0B0BD0000000064
:103A8000FEE700000000000080B540F29C104AF202
:103A90000001C2F20040C4F200014FF0010C4FF0EF
:103AA000030E01600021C0E9021101820A2280F8A0
:103AB00012C01D23C0F814E08261C0E90732C0E9DA
:103AC00009E2C0E90B32C0E90D1CC0E90F1E042257
:103AD000C0E91121C0E91321C0E91521C0E9171E71
:103AE000C0E91912FDF75CFB002808BF80BDBDE8E6
:103AF0008040FCF775BF000080B540F23C204AF2E0
:103B00000041C2F20040C4F200014FF0010C4FF03E
:103B1000030E01600021C0E9021101820A2280F82F
:103B200012C01D23C0F814E08261C0E90732C0E969
:103B300009E2C0E90B32C0E90D1CC0E90F1E0422E6
:103B4000C0E91121C0E91321C0E91521C0E9171E00
:103B5000C0E91912FDF724FB002808BF80BDBDE8AD
:103B60008040FCF73DBF000080B540F2DC204DF204
:103B70000041C2F20040C4F200014FF0010C4FF0CE
:103B8000030E01600021C0E9021101820A2280F8BF
:103B900012C01D23C0F814E08261C0E90732C0E9F9
:103BA00009E2C0E90B32C0E90D1CC0E90F1E042276
:103BB000C0E91121C0E91321C0E91521C0E9171E90
:103BC000C0E91912FDF7ECFA002808BF80BDBDE876
:103BD0008040FCF705BF000080B544F2290047F69D
:103BE0003052C0F60000C0F60002002101F044FC93
:103BF00040F29811C2F20041086080BD0000000050
:103C000081B044F2E040C5F60200016841F02001B5
:103C10000160016801F0200100910099016841F004
:103C200080010160016801F0800100910099016844
:103C300041F002010160016801F002010091009968
:103C4000016841F008010160006800F00800009080
:103C5000009801B07047000010B584B040F27C308D
:103C600041F20001C2F2004000240294C4F20001BB
:103C7000016040F2AF41C0E901146321C160846179
:103C8000FFF72EFC08B1FCF7ABFE40F27C3001A937
:103C9000C2F2004001940394FFF7B2FB08B1FCF7B5
:103CA0009FFE04B010BD000080B540F2144041F208
:103CB0000001C2F20040C4F201010C2201604FF485
:103CC000E13141600021C0E902110161C0E9052133
:103CD000C0E90711C0E90911FFF752FE08B1FCF76E
:103CE0007FFE40F214400021C2F20040FFF700FEC8
:103CF00008B1FCF775FE40F214400021C2F200400A
:103D0000FFF7AEFD08B1FCF76BFE40F21440C2F2C3
:103D10000040FFF789FD002808BF80BDBDE8804056
:103D2000FCF75EBE00000000FEE70000000000009F
:103D3000FEE700000000000000000000000000009E
:103D4000EFF30980BFF36F8F154B1A681EF0100F49
:103D500008BF20ED108A20E9F04F10602DE909001E
:103D60004FF0500080F31188BFF34F8FBFF36F8F78
:103D700002F072FD4FF0000080F31188BDE80900E9
:103D800019680868B0E8F04F1EF0100F08BFB0ECDB
:103D9000108A80F30988BFF36F8F704700BF00BFA0
:103DA0008000002400000000F0B581B044F22C47F0
:103DB000C5F6020757F8042C02F00302032A03D1C8
:103DC000012001B0F0BD00BF054657F82C0C0C4691
:103DD00020F0806047F82C0CFDF702FE064600BF7D
:103DE00057F82C0C000105D5FDF7FAFD801B0228C1
:103DF000F6D964E057F8040CEE6895E80E0020F45C
:103E00007C30012C40EA0130A2F101016FF35F2107
:103E10004FF47E4202EB432247F8040C92B24FF07B
:103E2000FE4302EB01004FF4FE012A6901EB06415B
:103E300001F4FE0103EB0262084402F0FE41084473
:103E4000F8603868696920F0C00040EA0100386015
:103E50003868A96920F0200040EA0100386038681D
:103E60004FF6F87120F0100038603869EA6920EAEE
:103E700001004FF4001140EAC2003861386808BF01
:103E80004FF4801140F01000002C386008BF4FF450
:103E9000002138680843386057F82C0C40F08060E7
:103EA00047F82C0CFDF79CFD044600BF57F82C0C7E
:103EB000000107D4FDF794FD001B0328F6D303206F
:103EC00001B0F0BD002001B0F0BD00000000000016
:103ED000F0B581B044F22C47C5F6020757F8042C20
:103EE00002F00302032A03D1012001B0F0BD00BF9C
:103EF000054657F82C0C0C4620F0805047F82C0C47
:103F0000FDF76EFD064600BF57F82C0C800005D566
:103F1000FDF766FD801B0228F6D964E057F8040C13
:103F2000EE6895E80E0020F07C70012C40EA01500C
:103F3000A2F101016FF35F214FF47E4202EB4322B5
:103F400047F8040C92B24FF0FE4302EB01004FF42D
:103F5000FE012A6901EB064101F4FE0103EB026256
:103F6000084402F0FE41084478613868696920F429
:103F7000406040EA010038603868A96920F40070A8
:103F800040EA0100386038684FF6F87120F480701C
:103F90003860B869EA6920EA01004FF0807140EAB0
:103FA000C200B861386808BF4FF4000140F4807067
:103FB000002C386008BF4FF480013868084338602F
:103FC00057F82C0C40F0805047F82C0CFDF708FDFA
:103FD000044600BF57F82C0C800007D4FDF700FD05
:103FE000001B0328F6D3032001B0F0BD002001B070
:103FF000F0BD000000000000000000000000000014
:10400000074B19680868B0E8F04F80F30988BFF3E0
:104010006F8F4FF0000080F31188704700BF00BF22
:104020008000002400000000012001F0DDF9FBE722
:1040300080B54EF21000CEF20000006803F0C8FB1D
:10404000012808BF80BDBDE8804002F031BD0000FE
:104050004EF6885042F2000CCEF20000C5F2002C61
:10406000026842F470020260DCF8000000F00F0009
:10407000062806D8DCF80000072262F30300CCF81B
:10408000000044F200404EF67F51C5F60200CEF625
:10409000F621026842F00102026000220261036818
:1040A00019400160DCF80010090706D5DCF80010A3
:1040B000072363F30301CCF8001040F20021826172
:1040C000C261C0F20221026281620021C0F2FF11CE
:1040D000C16240F28021C0F2011101634263816339
:1040E000C26301644264016821F4802101600266B8
:1040F000D0F8D410C90448BF7047D0F8D41043F2A8
:10410000D20241F48051C0F8D41044F20001C5F24B
:1041100000210A60D0F8D41021F48051C0F8D410E6
:10412000704700000000000040F27C30C2F2004006
:10413000FFF79EBA0000000040F2C830C2F2004013
:10414000FFF796BA0000000010B540F6FF32D0F835
:1041500000E0C4F20002904210DCB0F1804F1ED0AB
:1041600040F20043C4F20003984218D040F6000326
:10417000C4F20003984212D016E000BF40F600439C
:10418000C4F2000398420AD040F20043C4F2010393
:10419000984204D00023C4F20103984204D12EF0C7
:1041A00070024B6843EA020E4EF2FF3343F6FF7C87
:1041B000C4F20003C4F2010C984213DD60452BDC0D
:1041C0004EF20043C4F20003984242D00023C4F2EE
:1041D000010398423DD040F20043C4F201039842EB
:1041E00037D03BE040F2FF73C4F20003984227DD72
:1041F00040F60003C4F2000398422AD040F6004380
:10420000C4F20003984224D04EF20003C4F200032B
:1042100098421ED022E000BF44F20003C4F2010322
:10422000984216D044F60003C4F20103984210D01D
:1042300044F20043C4F2010398420AD00EE000BFEA
:10424000B0F1804F05D040F20043C4F20003984221
:1042500004D12EF44072CB6843EA020E4B696045EC
:104260000A688C68C462826212DD44F20002C4F201
:104270000102904217D044F60002C4F201029042BB
:1042800011D044F20042C4F2010290420BD00CE083
:104290000022C4F20102904205D040F20042C4F272
:1042A0000102904201D109690163016841F00401F2
:1042B0000160012141612EF080011943016010BDB0
:1042C000816A0A070CD4CA0715D18A071ED44A0787
:1042D00027D4CA0630D48A0639D44A0642D454E0D8
:1042E0000268D0F838C0536823F4004343EA0C0353
:1042F0005360CA07E9D00268D0F82CC0536823F491
:10430000003343EA0C0353608A07E0D50268D0F813
:1043100030C0536823F4803343EA0C0353604A07E8
:10432000D7D50268D0F834C0536823F4802343EA19
:104330000C035360CA06CED50268D0F83CC093681F
:1043400023F4805343EA0C0393608A06C5D50268C0
:10435000D0F840C0936823F4005343EA0C03936001
:104360004A0612D50268D0F844C0BCF5801F5368D5
:1043700023F4801343EA0C03536006D1536823F4FB
:10438000C00C836C43EA0C035360090658BF7047A6
:104390000168C06C4A6822F40022104348607047EC
:1043A000B0B582B004460020C4F89000FDF718FBB9
:1043B000216805460A68120737D54FF4001100221C
:1043C0006FF07E40009020462B4600F0F1FA58B383
:1043D000206850E8000F216820F0800041E80002CA
:1043E000002A1FBF206850E8000F216820F08000DD
:1043F0001CBF41E80002002A12D0206850E8000FDC
:10440000216820F0800041E800024AB1206850E8AD
:10441000000F216820F0800041E80002002AD7D177
:104420000320202188226CE02168086840075FD5BE
:104430004FF4800100226FF07E40009020462B4612
:1044400000F0B6FA002853D0206850E8000F216829
:1044500020F4907041E80002F2B1206850E8000FAB
:10446000216820F4907041E80002002A1FBF2068F4
:1044700050E8000F216820F490701CBF41E8000252
:10448000002A09D0206850E8000F216820F49070BD
:1044900041E80002002AD7D1206850E8020F2168C5
:1044A00020F0010041E80202002A1FBF206850E806
:1044B000020F216820F001001CBF41E80202002A1F
:1044C00012D0206850E8020F216820F0010041E876
:1044D00002024AB1206850E8020F216820F0010072
:1044E00041E80202002AD7D1032020218C2208E0D3
:1044F0002020C4F88800C4F88C000021702200201D
:10450000E166A150002184F8841002B0B0BD000023
:10451000F0B583B00446006846F6F31640F6004E48
:1045200022696569D4E902130A43E7690168CCF698
:10453000FF762A4331401143C5F6000E394301602E
:104540004168704521F4405144F2544C41EA030162
:104550004160A2694FF2FF431CBF216A0A43816890
:10456000C1F2FF131940C5F6020C1143816047F6F2
:10457000FF32C16AC4F2000221F00F01656A904265
:104580004FF0800341EA0501C16219DD41F2FF717C
:10459000C4F2010188422DDC47F60041C4F200015B
:1045A000884257D041F20001C4F20101884239D05B
:1045B00041F20041C4F20101884233D056E000BF0D
:1045C00044F6FF31C4F20001884237DD44F6004171
:1045D000C4F2000188423DD045F20001C4F200015E
:1045E000884237D047F60001C4F20001884231D03A
:1045F0003CE000BF41F60001C4F20101884211D045
:1046000041F60041C4F2010188420BD070452DD122
:10461000DCF8041001F00702062A27D20FF28831D5
:1046200022E000BFDCF80010C1F3C202062A1DD24E
:1046300047F6B241C0F6000116E000BF44F2004167
:10464000C4F20001884205D044F60001C4F2000122
:1046500088420BD1DCF8001001F00702062A05D2CF
:1046600047F6AC41C0F600018B181B78704540F648
:104670000010C0F23D0000F05380B7F5004F40F04D
:104680007B80402B4FF0010100F28581DFE813F0C1
:1046900042002E01830183013601830183018301DE
:1046A000420183018301830183018301830183012B
:1046B0000A01830183018301830183018301830153
:1046C00083018301830183018301830183018301CA
:1046D00048018301830183018301830183018301F5
:1046E00083018301830183018301830183018301AA
:1046F000830183018301830183018301830183019A
:104700008301830183018301830183018301830189
:10471000260100BFFEF7E0FA002840F0008136E1F4
:104720009A1E01211E2A00F27580DFE812F01F0098
:10473000340187003401340134018D003401340127
:10474000340134013401340134017900340134017D
:1047500034013401340134013401340134013401B1
:10476000340134013401340134019500FDF7B8FA05
:10477000002840F070800AE1402B4FF0010100F268
:104780000A81DFE813F04100B70008010801C10009
:10479000080108010801E9000801080108010801F1
:1047A0000801080108019D0008010801080108012D
:1047B00008010801080108010801080108010801B1
:1047C000080108010801EF000801080108010801BB
:1047D0000801080108010801080108010801080191
:1047E0000801080108010801080108010801080181
:1047F0000801080108010801080108010801080171
:10480000080108010801AF00FEF766FA002840F031
:10481000A880BCE0402B40F0BE804FF400401BE07D
:104820005CF8540C800649F20000C0F2D03013D579
:104830005CF8541CC1F3C101C8400DE06846FDF7A7
:1048400063FA019838B9A2E06846FDF7F1FA0198D9
:10485000002800F09C80656A47F6C8416268C0F68F
:10486000000131F81510B0FBF1F002EB4201884273
:104870004FF00101C0F08F801303984200F28B804B
:10488000010E0023000210EB520041F10001FBF782
:10489000B1FD4FF60052A0F54071C0F20F029142F7
:1048A00073D377E05CF8540C800649F20000C0F244
:1048B000D03035D55CF8541CC1F3C101C8402FE09D
:1048C0005CF8540C800649F20000C0F2D03049D5A3
:1048D0005CF8541CC1F3C101C84043E04FF40040F0
:1048E0001EE000BF4FF400403CE000BFFEF724FA9A
:1048F000A8B94CE0FEF720FA98BB48E06846FDF7FF
:1049000003FA019858B942E06846FDF7FDF90198AD
:1049100038BB3CE06846FDF78BFA0198B8B3656A8E
:1049200047F6C841C0F6000131F81510B0FBF1F0B0
:1049300061684A0802EB40004FF6EF72B0FBF1F0FD
:10494000A0F11001914225D84FF6F0710140C0F35B
:104950004200084419E000BF6846FDF769FA019873
:10496000A8B1656A47F6C8416268C0F6000131F82F
:104970001510B0FBF1F000EB5200B0FBF2F0A0F12B
:1049800010014FF6EF72914204D82168C8600021EF
:1049900001E000BF01214FF00110A0660020C4E932
:1049A0001D00084603B0F0BD0204081020400000BE
:1049B0002DE9F041804600680D46C7693940491B22
:1049C000B1FA81F149098A4225D1069C34B31646D1
:1049D000611C29D1C1692940491BB1FA81F14909FA
:1049E0008E4218D1C1692940491BB1FA81F14909A8
:1049F0008E4201BFC1692940491BB1FA81F104BF50
:104A000049098E4207D1C1692940491BB1FA81F198
:104A100049098E42DED00020BDE8F081FCF7E0FFBE
:104A20000320BDE8F08100BF1F4607E0C0692840B1
:104A3000401BB0FA80F040098642ECD1FCF7D0FF71
:104A4000C01BA04200F2B680D8F8000001684907F8
:104A5000ECD5402D18BF802DE8D0C169090700F1C1
:104A6000AD80C1690905E1D54FF400610162D8F854
:104A7000000050E8000FD8F8001020F4907041E8D2
:104A8000000222B3D8F8000050E8000FD8F8001058
:104A900020F4907041E80002002A1FBFD8F80000FF
:104AA00050E8000FD8F8001020F490701CBF41E8C7
:104AB0000002002A0BD0D8F8000050E8000FD8F808
:104AC000001020F4907041E80002002ACFD14FF688
:104AD000FE70CEF6FF70D8F8001051E8021FD8F82B
:104AE0000020014042E802130BB3D8F8001051E84F
:104AF000021FD8F80020014042E80213002B1FBF1C
:104B0000D8F8001051E8021FD8F8002001401CBF5F
:104B100042E80213002B0AD0D8F8001051E8021F17
:104B2000D8F80020014042E80213002BD3D1D8F876
:104B30006C0001282FD1D8F8000050E8000FD8F8F9
:104B4000001020F0100041E8000222B3D8F8000065
:104B500050E8000FD8F8001020F0100041E80002E3
:104B6000002A1FBFD8F8000050E8000FD8F8001046
:104B700020F010001CBF41E80002002A0BD0D8F83A
:104B8000000050E8000FD8F8001020F0100041E8B5
:104B90000002002ACFD12020C8F88C000021C8F8DC
:104BA0006C10C8F87410C8F89000032088F88410BE
:104BB000BDE8F0810320BDE8F08100BF082101625B
:104BC000D8F8000050E8000FD8F8001020F49070DA
:104BD00041E8000222B3D8F8000050E8000FD8F8EE
:104BE000001020F4907041E80002002A1FBFD8F89E
:104BF000000050E8000FD8F8001020F490701CBF9F
:104C000041E80002002A0BD0D8F8000050E8000F5D
:104C1000D8F8001020F4907041E80002002ACFD1AB
:104C20004FF6FE70CEF6FF70D8F8001051E8021F64
:104C3000D8F80020014042E802130BB3D8F8001066
:104C400051E8021FD8F80020014042E80213002B6F
:104C50001FBFD8F8001051E8021FD8F8002001400B
:104C60001CBF42E80213002B0AD0D8F8001051E80C
:104C7000021FD8F80020014042E80213002BD3D1D4
:104C8000D8F86C0001282FD1D8F8000050E8000FA8
:104C9000D8F8001020F0100041E8000222B3D8F844
:104CA000000050E8000FD8F8001020F0100041E894
:104CB0000002002A1FBFD8F8000050E8000FD8F803
:104CC000001020F010001CBF41E80002002A0BD0A9
:104CD000D8F8000050E8000FD8F8001020F01000BD
:104CE00041E80002002ACFD12020C8F88C00002023
:104CF000C8F86C00C8F874000821C8F8901088F84B
:104D000084000120BDE8F081FEE700000000000003
:104D1000B0B540F6F81440F29C10C2F20044C2F262
:104D2000004001210022C4E9020140201021002599
:104D300001F00EFF206304F13400214600F060FA18
:104D400004F14800214600F077FA0120A4F85C50F5
:104D5000C4E90455C4E90655C4E90855C4E90A552F
:104D600001F0BEFE206001200021032201F0F0FED0
:104D700045F2692140F20002C0F60001C0F60002CF
:104D8000606008462146BDE8B040FBF7ABBB0000C1
:104D9000B0B59CB044F6180409A84C21C5F602042D
:104DA000FBF7F2FB02200025CDE90755CDE90555BB
:104DB000CDE90355CDE90155FCF76AFF0095206860
:104DC00020F440402060206800F4404000900098AB
:104DD0002068800409D4206880045CBF20685FEAF2
:104DE000804002D420688004F2D5012009904FF45D
:104DF00080310A910221052214926022CDE915200A
:104E000004200824CDE9170109A81994CDE912114D
:104E10000025CDE91A55FEF74FF828B1EFF31080C1
:104E200072B600BFFEE700BF3F20019003204FF4A1
:104E30008061CDE9020540200494CDE90500CDE96B
:104E4000071001A80321FDF7C7FD28B1EFF310807B
:104E500072B600BFFEE700BF1CB0B0BD000000008E
:104E6000704700000000000010B50446C06838B16B
:104E70002068C16820468847E06800F0B5FAF7E787
:104E800020688168204688470020BDE8104001F076
:104E90000BBB000000000000704700000000000095
:104EA00084B004466D4600BF206B0028FCD04FF054
:104EB000FF32294602F064F90128F5D1266956B17E
:104EC00030682946426B3046904720B13068294609
:104ED000026B30469047666956B130682946426B8E
:104EE0003046904720B130682946026B30469047E3
:104EF000A66956B130682946426B3046904720B1CA
:104F000030682946026B30469047E66956B13068F2
:104F10002946426B3046904720B130682946026BE3
:104F200030469047266A56B130682946426B304673
:104F3000904720B130682946026B30469047666A38
:104F400056B130682946426B3046904720B13068F0
:104F50002946026B30469047A66A56B1306829460A
:104F6000426B3046904720B130682946026B30468C
:104F70009047E66A002E3FF497AF30682946426BAF
:104F80003046904700283FF48FAF30682946026BC7
:104F90003046904788E70000CAB004460DF5827A93
:104FA00001A80AF1100600F1040800254FF0080BD3
:104FB00060684FF0FF3102F003FA206910B1016818
:104FC00089698847606910B1016889698847A06963
:104FD00010B1016889698847E06910B10168896981
:104FE0008847206A10B1016889698847606A10B1F2
:104FF000016889698847A06A10B101688969884792
:10500000E06A10B1016889698847206950B1016878
:105010001022CB6A01A9984707460F2860D860691B
:1050200018B90DE00027606950B1036801A901EBD0
:105030000711C7F11002DB6A984707440F2F4FD8BA
:10504000A06950B1036801A901EB0711C7F1100273
:10505000DB6A984707440F2F42D8E06950B10368D4
:1050600001A901EB0711C7F11002DB6A9847074459
:105070000F2F35D8206A50B1036801A901EB071141
:10508000C7F11002DB6A984707440F2F28D8606ADF
:1050900050B1036801A901EB0711C7F11002DB6AE7
:1050A000984707440F2F1BD8A06A50B1036801A985
:1050B00001EB0711C7F11002DB6A984707440F2F75
:1050C0000ED8E06A40B1036801A901EB0711C7F1EE
:1050D0001002DB6A98470744002F3FF469AF00BF16
:1050E000C1460AE0206800210022002301F0E4FD0F
:1050F000013F09F110093FF45BAF2068012102F084
:105100005FF90128F4D1A0680028EBD099F80010CD
:1051100059F8042C419242AA002918BF4FF080414F
:10512000C6E9005582E8220809F102025146C6E9A3
:1051300002553561FBF7D4FCD4E700000000000005
:10514000F0B58BB003AD0221059104468068294675
:1051500000270126CDE909770696CDE90377CDE949
:105160000777FBF739FD4FF080402946CDE903066C
:10517000A068CDE90777FBF72FFDA068FCF718FBC7
:1051800000284FF0010118BF84F85C60A06800227D
:105190000125FBF75DFC002818BF84F85D50207BDB
:1051A000411E022907D840F28C11C2F2004101EBE6
:1051B000800040F8044C44F6696504F13403C0F6FD
:1051C0000005A16B04F13C0003274FF48072CDE988
:1051D0000070284602F08CFA04F14803E16C04F1F7
:1051E000500004274FF48072CDE90070284602F089
:1051F0007FFA0BB0F0BD00000069FFF751FE000020
:1052000047F6E042C0F600020832026003A24260A4
:10521000002282600122C0E9032170476664636155
:105220006E5F727800000000142100F02CB80000BE
:105230000069FFF7B1FE000047F6F842C0F6000231
:105240000832026003A24260002282600122C0E9AB
:1052500003217047666463616E5F73636865640011
:10526000142100F010B80000016B002908BF70473E
:1052700010B50446084601F063F82046BDE810402A
:105280007047FBF7F0B9FFF7FCBF0000000000001B
:1052900010B590B040F28C11C2F200410C6814B10C
:1052A000A26882420CD04C6814B1A268824207D036
:1052B0008C6814B1A168814202D010B010BD00BF4B
:1052C0000CA902AA8B1D4021FBF7D6FC0028F4D1C3
:1052D0000398029900F140400C91B0FA80F0400927
:1052E0008DF834009DF8160000F00F01206B0028A7
:1052F0008DF835104FF000010191DED00CA901AA04
:10530000002301F039FE01980028D6D04EF6045053
:105310004FF08051CEF200000160BFF34F8FBFF31A
:105320006F8F10B010BD000010B582B040F28C1429
:105330000021C2F200440191206818B1406801A91F
:1053400001F0BEFE606818B1406801A901F0B8FE26
:10535000A06818B1406801A901F0B2FE019850B1EF
:105360004EF604504FF08051CEF200000160BFF3C2
:105370004F8FBFF36F8F02B010BD00000000000020
:1053800084B001200090FCF7F7FB0020019048F268
:105390001F70029040F2011003906846FCF7BCFBBE
:1053A0000420FCF7F9FBFCF733FBFFF7F1FCFEF7F9
:1053B00027FCFEF769FBFEF79FFBFEF7D5FBFEF728
:1053C00073FCFEF749FC40F6F810C2F20040FFF70C
:1053D000B7FE00F019F8FEF7FFFB00F02DF800BF54
:1053E000FEE7000000000000EFF3058100291CBF6C
:1053F0006FF00500704728B180B501F015F8002066
:1054000080BD00BF00207047EFF3058000281CBF5F
:105410006FF00500704740F28810C2F2004001684A
:1054200000291CBF4FF0FF307047012101600020B0
:105430007047000000000000EFF3058000281CBF4B
:105440006FF00500704740F28810C2F2004001681A
:1054500001290DD180B54EF61F510022CEF2000178
:105460000A700221016001F077F9002080BD00BFC1
:105470004FF0FF3070470000F0B585B08C46002338
:105480000493EFF30581B0B3A9BB2AB39469002C50
:1054900008BF1824382C2ED81179C9072BD156698A
:1054A0004FEA960E002ED2E90257734608BF8023BA
:1054B00011681DB35C2F25D312690023002A18BF81
:1054C000002E18D0CDE9004272466346029502F0E4
:1054D0003FF905B0F0BD00BF8023182400219AB227
:1054E000634604AFCDE9004702F002F904990023B6
:1054F000012808BF0B46184605B0F0BD17B9126960
:10550000002AECD00023184605B0F0BD00000000D2
:105510002DE9F041044600F0EBFD40F2800640F238
:105520009855C2F20046C2F20045F0680130F060C2
:10553000306858B13069002840F007813068E16A6E
:10554000C06A884298BF3460FFE000BF3460F068F2
:10555000012840F0FA80284600F06AFD05F11400A9
:1055600000F066FD05F1280000F062FD05F13C0049
:1055700000F05EFD05F1500000F05AFD05F16400F9
:1055800000F056FD05F1780000F052FD05F18C00A9
:1055900000F04EFD05F1A00000F04AFD05F1B40059
:1055A00000F046FD05F1C80000F042FD05F1DC0009
:1055B00000F03EFD05F1F00000F03AFD05F58270C7
:1055C00000F036FD05F58C7000F032FD05F59670A3
:1055D00000F02EFD05F5A07000F02AFD05F5AA707B
:1055E00000F026FD05F5B47000F022FD05F5BE7053
:1055F00000F01EFD05F5C87000F01AFD05F5D2702B
:1056000000F016FD05F5DC7000F012FD05F5E67002
:1056100000F00EFD05F5F07000F00AFD05F5FA70DA
:1056200000F006FD05F5027000F002FD05F50770BB
:1056300000F0FEFC05F50C7000F0FAFC05F51170A9
:1056400000F0F6FC05F5167000F0F2FC05F51B7095
:1056500000F0EEFC05F5207000F0EAFC05F5257081
:1056600000F0E6FC05F52A7000F0E2FC05F52F706D
:1056700000F0DEFC05F5347000F0DAFC05F5397059
:1056800000F0D6FC05F53E7000F0D2FC05F5437045
:1056900000F0CEFC05F5487000F0CAFC05F54D7031
:1056A00000F0C6FC05F5527000F0C2FC05F557701D
:1056B00000F0BEFC05F55C7000F0BAFC05F5617009
:1056C00000F0B6FC05F5667000F0B2FC05F56B70F5
:1056D00000F0AEFC05F5707000F0AAFC05F57570E1
:1056E00000F0A6FC05F57A7000F0A2FC05F57F70CD
:1056F00000F09EFC05F5826000F09AFC05F2244063
:1057000000F096FC05F5876000F092FC05F24C4035
:1057100000F08EFC40F25C18C2F20048404600F0F7
:1057200087FC08F11407384600F082FC06F164009B
:1057300000F07EFC06F13C0000F07AFC06F150001F
:1057400000F076FCC6F81C8037627068716A421CF3
:10575000E06A72608842626488BF706200EB800019
:10576000211D05EB800000F0A7FC00F0E9FC30698A
:1057700088B13068E16AC06A884228BFBDE8F0811C
:105780004EF604504FF08051CEF200000160BFF39E
:105790004F8FBFF36F8FBDE8F08100000000000065
:1057A00040F2800540F298564EF60458C2F2004589
:1057B000C2F20046CEF200084FF0805703E000BF6F
:1057C000204600F0D5FCA868D0B100F091FCA86C90
:1057D000C468201D00F0F8FBE8680138E860A8689C
:1057E0000138A86000F0ACFC94F859000228EAD017
:1057F0000128E5D070B9206B00F0BAFCE0E700BFEB
:1058000030680228DFD3C8F80070BFF34F8FBFF3B2
:105810006F8FD8E74FF0500080F31188BFF36F8F80
:10582000BFF34F8FFEE700002DE9F0470A9C1646B4
:105830000F468246206B9100A5229846DDE9085963
:10584000FAF79AFE206B002F00EB8600A0F104000F
:1058500020F0070642D0387884F83400D0B3787846
:1058600084F83500B0B3B87884F8360090B3F8788F
:1058700084F8370070B3387984F8380050B37879F9
:1058800084F8390030B3B87984F83A0010B3F87965
:1058900084F83B00F0B1387A84F83C00D0B1787AD3
:1058A00084F83D00B0B1B87A84F83E0090B1F87A3F
:1058B00084F83F0070B1387B84F8400050B1787BA9
:1058C00084F8410030B1B87B84F8420010B1F87B15
:1058D00084F84300002084F8430002E0002084F8AC
:1058E0003400372D04F1040028BF37250027C4E910
:1058F0001357E56200F0A8FB04F1180000F0A4FBC8
:10590000C5F13800A06130465146424624616462C8
:10591000676584F8587000F03FFBB9F1000F206014
:1059200018BFC9F80040BDE8F08700000000000083
:1059300008480068006880F308884FF0000080F392
:10594000148862B661B6BFF34F8FBFF36F8F00DF6D
:1059500000BF000008ED00E081B00020009040F2A0
:105960001800C2F2004000684FF0500181F3118826
:10597000BFF36F8FBFF34F8F013003D0FEE700BF3F
:10598000009838B9009828B90098002804BF0098FA
:105990000028F5D001B0704788B040F2F80A0DF148
:1059A0001009C2F2004AEB46DAF8080005681DB19A
:1059B000C068046801E000BF002400F045FF01F06A
:1059C00017FFDAF810100646884220D3002DCAF8D7
:1059D000106051D0B4424FD802F062F8DAF80800F3
:1059E000C068C7683D1D284600F0EEFA97F8280009
:1059F000410745D400F0FA0087F8280082E000BF94
:105A000068603946DAF808002D6100F021FBDAF809
:105A10000800016831B3C068C56804682F1D3846A6
:105A200000F0D2FA296A2846884795F828004007EE
:105A3000EDD5A8692044A042E2D8DAF80000002899
:105A400000F0408104A9002031C101F0C1FEDAF864
:105A5000000000220023494601F02EF90028D6D18B
:105A600030E100BFDAF80C10CAF81060CAE9021081
:105A700002F016F84FE000BF65B1002210E000BF51
:105A8000B8693F6101197960B1421DD90AF1080076
:105A90001FE000BFDAF80C000068B0FA80F042099D
:105AA000DAF80000A11B00F08BFC01F0F9FF90BBBD
:105AB0004EF604504FF08051CEF200000160BFF36B
:105AC0004F8FBFF36F8F26E0311B814206D20AF160
:105AD0000C000068294600F0BBFA13E0DAF8000079
