:020000040800F2
:10000000F07400244904000831940008598F000856
:1000100029940008891B0008B9CF000800000000DF
:100020000000000000000000000000001197000820
:10003000492000080000000051940008499700087A
:1000400067040008670400086704000867040008E4
:1000500067040008670400086704000867040008D4
:10006000670400086704000867040008F91B00081B
:1000700067040008670400086704000867040008B4
:10008000670400086704000867040008912000085E
:10009000A120000867040008670400085120000838
:1000A0006704000867040008670400086704000884
:1000B0006704000867040008419800086704000806
:1000C0006704000867040008670400086704000864
:1000D0006704000851A700086704000867040008C7
:1000E00067040008670400080000000067040008B7
:1000F0007198000861980008670400086704000808
:100100006704000867040008670400086704000823
:100110006704000867040008519800086704000895
:100120006704000867040008670400086704000803
:1001300067040008670400086704000867040008F3
:1001400000000000000000000000000000000000AF
:1001500067040008670400086704000867040008D3
:1001600067040008670400086704000867040008C3
:1001700067040008399400086704000800000000C4
:1001800067040008670400086704000867040008A3
:100190006704000867040008670400086704000893
:1001A00067040008670400086704000800000000F6
:1001B0006704000867040008670400086704000873
:1001C0006704000867040008000000000000000049
:1001D00000000000000000006704000800000000AC
:1001E000000000000000000000000000000000000F
:1001F0000000000000000000670400086704000819
:100200006704000867040008000000006704000895
:100210006704000867040008670400086704000812
:1002200067040008000000006704000800000000E8
:100230006704000867040008000000006704000865
:1002400067040008670400086704000867040008E2
:1002500067040008670400086704000867040008D2
:1002600067040008670400086704000867040008C2
:100270006704000867040008670400080000000025
:1002800067040008670400086704000867040008A2
:100290000000000067040008670400080000000078
:1002A00000000000670400086704000867040008F5
:1002B000670400086704000867040008B12000080C
:1002C00067040008670400086704000800F002F8EB
:1002D00000F0ABF80AA090E8000C82448344AAF135
:1002E0000107DA4501D100F0A0F8AFF2090EBAE833
:1002F0000F0013F0010F18BFFB1A43F0010318475A
:1003000094190100B41901000A4410F8014B14F0CB
:100310000F0508BF10F8015B240908BF10F8014B56
:100320006D1E05D010F8013B6D1E01F8013BF9D19F
:10033000641E03D0641E01F8015BFBD19142E4D33B
:10034000704700000023002400250026103A28BF33
:1003500078C1FBD8520728BF30C148BF0B60704737
:100360006E2900F0D982702900F01D84662911F0F1
:100370003383652911F03083672911F02D836129BA
:1003800011F02C8303681B0A28BF41F08001692902
:1003900000F08682642900F08382752900F0808253
:1003A0006F2900F0AB83782900F0E983E92900F098
:1003B0004583E42900F04283F52900F03F83EF29CB
:1003C00000F0A883F82900F0E8830368DB0928BF60
:1003D00041F08001632901F09D81732901F0A28120
:1003E000E32901F0AD81F32901F0B28100207047CB
:1003F0001FB511F06AFA9DE8030000F021FD01F03D
:1004000029FA04000020002111F0A2F9401C6060CC
:100410000020002111F086F9E06000F06BF91FBDAB
:1004200010B5002001F0BCF910BD01F0E6F911464D
:10043000FFF7DEFF0EF0F8F801F0DCFA03B4FFF787
:10044000EFFF03BC00F0D2FC0A4880470A4880470F
:100450000A480047FEE7FEE7FEE7FEE7FEE7FEE7A5
:10046000FEE7FEE7FEE7FEE705480649064A074BBA
:10047000704700006120000869970008CD0200085D
:10048000F06E0024F0740024F0700024F07000245A
:1004900053EA020C00F069802DE9F04B4FF00006A2
:1004A000002B1FBFB3FA83F503FA05F424FA05F60F
:1004B0005E4012BF1643B2FA82F502FA05F4C5F1A6
:1004C00020051EBF22FA05FC44EA0C04203556EA3A
:1004D000044C4FEA144418BF641C4FF000084FF05E
:1004E0000009904271EB030C39D3002919BFB1FA0E
:1004F00081F701FA07F6B0FA80F700FA07F6C7F1BC
:1005000020071EBF20FA07FC46EA0C062037B6FB80
:10051000F4FCA7EB0507103F07F01F0BCBF12006FB
:100520002CFA06F60CFA0BFB44BFB3460026202F2C
:10053000A4BF5E464FF0000B5BEA060C08BF4FF00D
:10054000010B19EB0B0948EB0608ABFB027C06FB21
:1005500002CC0BFB03CCC01B71EB0C01C1E70B46BB
:10056000024641464846BDE8F08B13B5084318BF24
:100570004FF0FF300146AFF30080BDE81C407047EC
:100580007CB51D4616460C00009007D04142A142A2
:1005900002D32044401E01E04FF0FF30064B7B4465
:1005A0002A4669460190304600F0CFF9002C02D06F
:1005B000009A002111707CBDCF0300000B4601465C
:1005C000184600F0CABB10B5431C02E010F8011B2E
:1005D00071B18107FAD14FF0013202C88C1A8C43F5
:1005E00014EAC211F9D0C01A0A0603D0C01E10BD09
:1005F000C01A10BD0A0401D0801E10BD0902FCD033
:10060000401E10BD032A40F2308010F0030C00F0B1
:10061000158011F8013BBCF1020F624498BF11F83C
:1006200001CB00F8013B38BF11F8013BA2F10402F5
:1006300098BF00F801CB38BF00F8013B11F003036D
:1006400000F0A283083AC0F0088051F8043B083A51
:1006500051F804CBA0E80810F5E7121D5CBF51F873
:10066000043B40F8043BAFF30080D20724BF11F8ED
:10067000013B11F801CB48BF11F8012B24BF00F852
:10068000013B00F801CB48BF00F8012B704702F096
:10069000FF0343EA032242EA024200F002B84FF0AD
:1006A000000200B5134694469646203922BFA0E8C2
:1006B0000C50A0E80C50B1F12001BFF4F7AF0907CE
:1006C00028BFA0E80C5048BF0CC05DF804EB8900BF
:1006D00028BF40F8042B08BF704748BF20F8022B02
:1006E00011F0804F18BF00F8012B7047704770471A
:1006F0007047000070B5064C7C44064D7D4404E014
:100700002046016808448047241DAC42F8D170BDE2
:10071000E4160100E416010070B5064600F06CFB1B
:10072000056806F10B0020F00704B4429CBF0020CE
:1007300070BD2B466A68BAB11068A04210D304F1AC
:10074000080188423CBF5068586007D351681019AF
:1007500041601168091B016058601460101D70BD74
:1007600013465268002AE7D12146284600F054FB80
:100770000028DED170BD70B50446051F00F03CFBBB
:100780000068002C14BF446870BD002C18BFAC4238
:100790003CBF20466468F8D301680A18AA4218BF13
:1007A000456003D12A680546114401602868411953
:1007B000A1421CBF6C6070BD61686960216808441B
:1007C000286070BD10B500F01FFB006810BD10B5AB
:1007D000044600F019FB046010BD70B5044685693D
:1007E0000068C10601D5302600E02026C00707D0EA
:1007F00070BDD4E9012130469047206A401C206238
:100800006D1EF6D570BD70B5044685690078C007C9
:1008100007D170BDD4E9012120209047206A401CF7
:1008200020626D1EF6D570BD09684A0501D540B23B
:100830007047C905FCD500B2704709684A0501D563
:10084000C0B27047C905FCD580B2704770B50C4680
:100850000546012A05D02878800600D5EA690023DC
:1008600002E0012305E05B1C934202D2E05C002819
:10087000F9D1A869E618C01AA861286A1844286244
:100880002846FFF7AAFF04E0D5E9012114F8010B7F
:100890009047B442F8D32846FFF7B5FF70BD00007B
:1008A0002DE9F0410646002410687529314616A549
:1008B00010D0FFF7B9FF002802DA404213A507E085
:1008C00031688A0701D512A502E0490704D511A5B0
:1008D000012401E0FFF7B1FF00210A2206F12407FD
:1008E00009E0B0FBF2FCB0FBF2F302FB1C0030307D
:1008F00078541846491C0028F3D123462A4630462E
:10090000BDE8F04100F017BB000000002D00000022
:100910002B0000002000000011680268006A5305E7
:1009200001D508700AE0D30501D5088006E013065A
:1009300003D5C217C1E9000200E00860012070473A
:1009400001694A1C02610878704700B58FB0CDE993
:1009500001310021059105497944CDE90310114683
:10096000684600F02BF90FB000BD0000E5FFFFFF67
:10097000D1E900239A4202D2531C0B6010707047D9
:100980002DE9FF5F15468A460446DFF8AC80F8443F
:100990000027D8E900103E46CDE9001010E03AF8F3
:1009A00016106A4602A800F0D7FE411C07D0217835
:1009B000890603D5E269391891420DD80744761C9F
:1009C0002078800602D5E069B84205DDAE42E6DB5C
:1009D0003AF816000028E2D1A069C01BA0612046A9
:1009E000FFF7FBFED8E90010CDE90010002017E06A
:1009F0003AF818106A4602A800F0AEFEB0F1FF3FC8
:100A000081460BD000250DF1080B05E0D4E901214A
:100A10001BF8050090476D1C4D45F7D308F1010008
:100A2000B0428046E4DB206A384420622046FFF76B
:100A3000EAFEBDE8FF9F00004E1001002DE9F041E5
:100A40008046D21D22F007020025D2E90002F529D6
:100A500015A614D0011E72F1000106DA0023D0EBB6
:100A6000030063EB020211A608E0D8F800108B0720
:100A700001D50FA602E0490701D50EA601251146B2
:100A8000002408F1240704E000F010FA30323A554F
:100A9000641C50EA0102F7D12B46324621464046FB
:100AA000BDE8F04100F047BA000000002D00000052
:100AB0002B0000002000000030B4002100F12404CD
:100AC00008E002F00705D208303542EA4372DB083D
:100AD0006554491C52EA0305F3D10468002310A2AF
:100AE000250708D504F020040C4304D0C469012371
:100AF0000CA2641EC46130BC00F01DBA10B50446DF
:100B000021461068FFF799FE02462046BDE81040D6
:100B10000023D1E7D21D22F00701D1E90023CBE762
:100B20000000000030000000F0B40D460188090507
:100B300002D5214C7C4402E01F4C7C440E34002141
:100B400000F1240608E002F00F071209E75D42EA0F
:100B500003721B097754491C52EA0307F3D1027848
:100B60000023120704D5702D06D009B102231134D9
:100B70002246F0BC00F0DFB901231034F8E770B56D
:100B800004460D4621461068FFF757FE02462946E7
:100B90002046BDE870400023C6E7D21D22F00703BF
:100BA000D3E90023C0E70368126843F02003036021
:100BB0000823C3610023B7E7B00E01002DE9F05F01
:100BC000894604464FF0000ADFF874B1FB44C0F8D0
:100BD00020A02046E1688847002874D0252806D048
:100BE000D4E901219047206A401C2062F1E70026E9
:100BF0005F462046E16888472028054607DB312DFF
:100C000005D2781910F8200C08B10643F1E7B007B7
:100C100001D526F00406C4F81CA00027C4F818A0CB
:100C20002A2D09D0284610F075FD38B304EB87084B
:100C3000303DC8F8185019E059F8041B204604EB61
:100C400087029161E1688847012F054618D1E06964
:100C5000002820DA26F020061DE0D8F8180000EB66
:100C6000800005EB40003038C8F818002046E168E5
:100C70008847054610F04EFD0028EED1012F0AD01E
:100C80002E2D08D12046E16888477F1C0546022F9B
:100C900046F02006C4DBA069002803DA404246F093
:100CA0000106A061F00701D026F010066C2D0BD0D4
:100CB000682D09D04C2D39D06A2D35D0742D35D002
:100CC0007A2D33D016E038E0E1682F462046884779
:100CD000B842054609D16C2F26D04FF48060E168F8
:100CE000064320468847054604E06C2F1AD04FF48F
:100CF000807006430DB3A5F14100192802D82035B4
:100D000046F400664A462946204626604E46FFF7CE
:100D100027FB80B101280BD0F61D26F0070000F15B
:100D2000080956E74020E4E78020D8E70020D6E70E
:100D300006F104094DE7284652E7206ABDE8F09F16
:100D4000400E010010B5002000F04BFDFFF768FBDE
:100D5000BDE81040012000F049B82DE9F0410746F8
:100D600015460E461020FFF7D7FC04000AD0676036
:100D7000C4E9026500F044F80168216004600020C5
:100D8000BDE8F0810120FBE710B5203AC0F00B80F0
:100D9000B1E81850A0E81850B1E81850A0E8185071
:100DA000203ABFF4F5AF5FEA027C24BFB1E81850E7
:100DB000A0E8185044BF18C918C0BDE810405FEA49
:100DC000827C24BF51F8043B40F8043B08BF7047C5
:100DD000D20728BF31F8023B48BF11F8012B28BFCA
:100DE00020F8023B48BF00F8012B7047014918204A
:100DF000ABBEFEE72600020000487047D001002489
:100E0000004870470002002400487047C8010024D1
:100E1000704770477047704738B504460A4600204F
:100E20006946AFF30080002808BF38BD024600992C
:100E3000204600F013FD012038BD012000F000BE67
:100E4000F8B5AFF30080054600200C46102000BF27
:100E50000646A819A0420DD9324669460020AFF3D4
:100E60000080070008BF00F0EBFD0098A04218BF0B
:100E70000546C419FFF7C0FF05600746F01D20F0C6
:100E800007004619284600F00AF8B44208BFF8BD2A
:100E9000A21B31463868BDE8F84000F0DFBC0021F5
:100EA0000160C0E9011070471020704730B5B0F103
:100EB0000A0271F100034FEA900E4EEA817EB0EB18
:100EC0000E0061EB91014FEA101E4EEA017E10EB1D
:100ED0000E0041EB11114FEA102E4EEA016E10EB9D
:100EE0000E0041EB11214FEA104E4EEA014E10EB7D
:100EF0000E0041EB1141401841F100014FEAD000D2
:100F000040EA41704FEAD1014FEA810444EA90740B
:100F100010EB800544EB01046D1944EB0404521BF3
:100F2000A3414FF0000348BF0A3200D530BD401C3A
:100F300041F1000130BD2DE9F0470D46994692463A
:100F4000044600F124080168880604D5E06921F010
:100F50001001216000E00120A84201DD471B00E0F4
:100F60000027A1697A1902EB0900081AA06120780C
:100F7000C00602D42046FFF730FC002608E0D4E982
:100F800001211AF806009047206A401C761C206256
:100F90004E45F4DB2078C0060AD52046FFF71DFC3D
:100FA00006E0D4E9012130209047206A401C2062ED
:100FB000381EA7F10107F4DC07E0D4E9012118F895
:100FC00005009047206A401C2062281EA5F10105FB
:100FD000F3DC2046FFF717FC2078000602D502203C
:100FE000BDE8F0870120FBE72DE9FF4F0C461E46C8
:100FF0004FF0FF378BB0D2E90001DDF860800A9036
:101000008A46C1F30A5505B93D46002108464FF00E
:101010000000BAF1000F00F4400005DA00EB800098
:101020004FF4400101EA50004FEA9059B9F1010F25
:1010300000DDB9460A9850EA4A000ED044F6105036
:10104000A5F2FF3545432F14B8F1000F1ED07542AD
:10105000291E1EDDC9F100021CE0B8F1010F4FF09E
:10106000000001D0302103E0F24305E02154401C90
:10107000B042FBDB30460022002121540B99C1F81D
:101080000880C1E900200FB0BDE8F08FBD1B6D1CCA
:10109000DEE74A4600DA694206A800F039FC06ABF2
:1010A00093E8070003AB83E8070050460A990FF066
:1010B000F1FE8DE80700A0F500501F38009003985E
:1010C000002D0ADD42F21F014A460844002303A90D
:1010D0000390684610F05AF909E0A0F500504A461E
:1010E0001F38002303A90390684610F064F98DE8C7
:1010F00007000004000C03D04FF0FF30410800E06F
:101100001046B8F1000F03D00022009215461EE0F1
:10111000751E05D4FFF7CAFE303262556D1EF9D533
:10112000B3460122084302D000227F1C04E020784D
:10113000302801D100227F1E002A099784D01DE0AB
:10114000112D07DAFFF7B2FE303262556D1C50EAFE
:101150000102F5D1084302D00098C8B10EE0002189
:10116000681E05E0235C625C63542254401E491CE7
:101170008142F7DBAB46A81B401E0990002004F813
:101180000B000B98099AC0F80880C0E9002B7AE799
:1011900011264FF0000857E72DE9F04F8846044626
:1011A000D21D22F0070191B0D1E90001CDE90A0179
:1011B00010F038FA02460B98C00F01D02D2007E03E
:1011C0002068810701D52B2002E0202101EAC00020
:1011D000032A099001D0072A05DB03464146204631
:1011E00000F056FB0BE12078800601D5E06900E0B5
:1011F0000620B8F1650F814606D0B8F1660F18D009
:10120000B8F1670F70D131E00020B9F1110F0090F3
:1012100001DB112301E009F101030AAA01A90CA8CD
:10122000FFF7E2FEDDE90C70002609F101058346B7
:1012300047E001204B4600904FF000470AAA01A961
:101240000CA8FFF7D1FEDDE90DB00C995D46002634
:1012500010B909F101000D18B9EB050003D4C0F174
:10126000FF3609F10105A5EB09002BE0B9F1010FEB
:1012700001DA4FF001090020B9F1110F0090484642
:1012800001DD112300E003460AAA01A90CA8FFF71B
:10129000ABFEDDE90C704D46002683462078000742
:1012A0000AD4AB4500DA5D4601A8012D04DD4119E1
:1012B00011F8011C302907D04F4502DA17F1040F4D
:1012C00004DA012082460FE06D1EEEE7002F02DCFB
:1012D000ED1B3E4403E0781CA84200DD7D1CB81BDA
:1012E00000F1010A4FF000472078000703D4AA4517
:1012F00001DB4FF0FF3A0021B7F1004F0DF1430839
:101300008DF8431024D002202B23002F01DA7F42D6
:101310002D230A21021EA0F1010000DC5FB197FB22
:10132000F1FC97FBF1F201FB1C7C17460CF1300C31
:1013300008F801CDEEE7A8F1010003702188090546
:1013400001D5452100E06521A0F1010800F8011C4C
:1013500009980FA9A1EB0807FF1D00B10120411951
:1013600001EBEA70A1693844081A401EA061207898
:10137000C00602D42046FFF730FA099828B1D4E914
:1013800001219047206A401C20622078C00622D5A7
:101390002046FFF722FA1EE0002E04DBB34502DDF3
:1013A00001A8805D00E03020D4E901219047206A47
:1013B000401C2062761CAAF101005FEA000A0AD1F3
:1013C00000F048FAC0680168405CD4E90121904708
:1013D000206A401C2062281EA5F10105DCDC07E024
:1013E000D4E9012118F8010B9047206A401C2062C3
:1013F000381EA7F10107F3DC2046FFF704FA0320AB
:1014000011B041E62DE9F04F04460D46D21D22F001
:10141000070089B0D0E900974846394610F002F934
:101420000246F80F01D02D2307E02068810701D57F
:101430002B2302E0202101EAC0038DF820300BB1FC
:10144000012000E00020032A824601D0072A04DBA5
:101450002946204600F01CFA3FE12078800601D49E
:101460000D2500E0E569C7F30A560D2D49DA002184
:101470004FEA175B08464FF00000002F00F44000D1
:1014800007DA00EB80004FF4400100EBD07001EA76
:1014900060008115012901DD4FF0FF3100224FEA84
:1014A000850CBCF1180F06D31346ACF118004FF0B1
:1014B0008052C24003E04FF4801323FA0CF30CF186
:1014C0000C0CBCF1200F04D3ACF1200C09FA0CF089
:1014D00001E007FA0CF000294FF0004801DD18B9CF
:1014E0000FE00ED140450CD319EB02095F4121B941
:1014F000404502D19F4329EA0209BBEB175F00D0A8
:10150000761C2088000502D57B48784402E07A48A2
:101510007844193808AA302302F80A30037C0AF10B
:101520000101002E0AF1020A53546A4602DC4FF010
:10153000300101E04FF031014FF001088DF800104B
:1015400002D0A6F2FF3603E059EA470100D06B4E05
:10155000002D02DC2178090704D54FF002082E2166
:101560008DF80110C44600210BE0C7F303433F018F
:10157000C35C491C6D1E02F80830052908F10108FA
:1015800001DA002DF1DC00210CE000EB1973491C9D
:101590001B786D1E082902F808304FEA091908F176
:1015A000010801DA002DF0DC21688B0602D516E077
:1015B000A8F10108E04505DD02EB080313F8013C42
:1015C000302BF5D0B8F1000F09DD02EB080313F85A
:1015D000013C2E2B03D1090701D4A8F10108002DED
:1015E00005DD3E2102F808106D1E08F10108407C5F
:1015F000002E02F8080008F1010804DA2D207642D6
:1016000002F8080002E02B2002F808000A214FF43B
:101610007A70864208F101080BDB96FBF0F3303359
:1016200002F8083096FBF0F308F1010800FB13669E
:1016300001E0642E0CDB642096FBF0F3303302F8FB
:10164000083096FBF0F308F1010800FB136601E097
:101650000A2E06DB96FBF1F0303002F8080008F1A4
:10166000010896FBF1F001FB1060303002F8080031
:10167000A16908F1010808EB050202EB0A00081A4B
:10168000A0612078C00602D42046FFF7A6F8216AA0
:1016900008AE01EB0A00206204E0D4E9012116F84B
:1016A000010B9047BAF1010AF7D22078C00602D5A3
:1016B0002046FFF792F86E4609E016F8010B3E2827
:1016C0000FD0D4E901219047206A401C2062B8F174
:1016D0000108F2D22046FFF796F809B00320BDE8D2
:1016E000F08F206A2844206203E0D4E901213020F1
:1016F00090476D1EEBD3F8E72605010002FCFFFFC3
:1017000010B5436913B1AFF3008001E0FFF79EF815
:10171000012010BD127800F124010A7000224A70E5
:101720000122EDE711684FF0FF32E9E710B5436998
:1017300013B1AFF3008001E0FFF722F9012010BDE3
:10174000128800F1240182840022C2840122EDE784
:1017500011684FF0FF32E9E72DE9F04116460C46DB
:10176000054600F06FF8036893F80101012807D0DF
:10177000FF2C12D8185D80B101202C70BDE8F081DB
:10178000D3F807013246214603F20713C71828464B
:10179000BC46BDE8F041002360474FF0FF30EDE765
:1017A0002DE9F0410646FFF72BFB8046454613E046
:1017B00016B1E068B0420ED120682860D4E901017A
:1017C000D8F8007088472046FEF7D5FFD8F800000B
:1017D000B842EBD100E025462C68002CE8D1BDE8EA
:1017E000F08110B500F014F9BDE8104000F00BB91D
:1017F00000487047C801002470477546FFF7F8FF9E
:10180000AE4605006946534620F00700854618B0ED
:1018100020B5FEF729FEBDE820404FF000064FF04E
:1018200000074FF000084FF0000BAC46ACE8C009D1
:10183000ACE8C009ACE8C009ACE8C00921F0070178
:101840008D46704710B500F005F8001D10BD00BFB3
:1018500001FF000000487047E8010024034640688B
:101860008C46002818BF88423CBF03464068F8D326
:1018700018681844884207D00CF1030020F00700D4
:10188000001D411A521A0146081D0A60FEF773BF77
:101890002DE9F0411F46044603260168072A01F49A
:1018A000006004DB08B116A505E016A503E008B149
:1018B00015A500E015A521F010002060A069C01E4C
:1018C000A0610FB1401EA0612046FEF786FF4FB118
:1018D000D4E9012138469047206A401C2062C01C90
:1018E000206206E0206AFAE7D4E9012115F8010B2D
:1018F0009047761EF8D22046FEF785FFBDE8F081BE
:101900004E414E006E616E00494E4600696E6600A3
:101910002DE9F047814616468AB0354878440DC80F
:101920008DE80D0032487844801C03AC0DC884E873
:101930000D0041F69B300844372190FBF1F290FBFB
:10194000F1F5A5F1800501FB12041B3C02D56442B0
:10195000012000E00020DFF898A080460027FA442C
:10196000AAF1BE0A0EE0E0070AD03246684607EB4D
:10197000470101230AEB81010FF01DFD8DE80700EF
:1019800064107F1C002CEED1194F7F44AE3F19E04C
:10199000E80715D007EB04100DF1180A90E80E00C7
:1019A0008AE80E00C068F04201D1981908903246CA
:1019B000012306A903A80FF0FEFC03AB83E8070090
:1019C0006D10641C002DE3D14FF0010332466946CF
:1019D000B8F1000F03A802D00FF0D8FC01E00FF01F
:1019E000EAFCC9E90001C9F808200AB0BDE8F0879F
:1019F000A401010010B50446AFF300802046BDE805
:101A00001040FEF71BBD002801D0FFF7EFB970476B
:101A100010B5002102A000F01AF8012010BD00004E
:101A2000534947414252543A2041626E6F726D6190
:101A30006C207465726D696E6174696F6E00000070
:101A400010B500F01DF8BDE81040FFF7DCBF70B521
:101A500005460C460A2000E06D1C00F077F835B111
:101A600028780028F8D102E0641C00F06FF814B167
:101A700020780028F8D1BDE870400A2000F066B850
:101A800010B5012805D0002103A0FFF7E0FF0120D9
:101A900010BD09A1F8E7000053494752544D454D88
:101AA0003A204F7574206F662068656170206D65FF
:101AB0006D6F7279000000003A2048656170206DFA
:101AC000656D6F727920636F7272757074656400F2
:101AD00030B44FF0013C50F8042BCCFA52F451F8DA
:101AE000043BD51A20D1FCB950F8042BCCFA52F49F
:101AF00051F8043BD51A17D1B4B950F8042BCCFADD
:101B000052F451F8043BD51A0ED16CB950F8042B9D
:101B1000CCFA52F451F8043BD51A05D1002CDAD096
:101B200030BC4FF00000704729BAB1FA81F111F0D2
:101B30001801D1F120008440F2D1CA40CB4012F00C
:101B4000FF0213F0FF0330BCD01A704708B5694696
:101B50008DF800000320ABBE08BD000000000000AF
:101B600080B540F24810C2F200400BF03DFC0CF092
:101B7000BBFB42F22441C2F20041BDE880400CF0C0
:101B8000F3BB000000000000FEE7000000000000C2
:101B90000020704700000000002070470000000097
:101BA00010B541F6C01441F27801C2F20044C2F20D
:101BB00000410022204608F0ABFF40F678012046A5
:101BC000C2F2004108F094FF002010BD00000000A8
:101BD00010B541F6C0140146C2F20044204608F098
:101BE00087FF204608F060FF002010BD00000000C5
:101BF000002070470000000041F69C40C2F2004007
:101C000000F056BE0000000040F20F42D0F800C0C5
:101C1000C4F20202944511DC6F22C4F20202944520
:101C200022DC3F22C4F20202944539DC1022C4F2C5
:101C3000020294455AD0282254E000BF40F26F427D
:101C4000C4F2020294451BDC40F23F42C4F202029D
:101C500094452DDC40F21042C4F20202944545D076
:101C600040F228423EE000BF9F22C4F202029445A7
:101C700028DC7022C4F20202944537D0882231E079
:101C800040F29F42C4F20202944523DC40F27042CB
:101C9000C4F20202944529D040F2884222E000BFFB
:101CA0004022C4F20202944520D058221AE000BF1C
:101CB00040F24042C4F20202944517D040F258422A
:101CC00010E000BFA022C4F2020294450ED0B82258
:101CD00008E000BF40F2B842C4F20202944505D0C9
:101CE00040F2A042C4F20202944517D10CF0F8026F
:101CF0004AF6AB23103ACAF6AA23A2FB03310AA381
:101D00005F2AC1F302115B5C40F2FF312CEA010152
:101D1000C36588BF04318165084670472CF0FF0118
:101D200081650846704700BF0006101600061016B1
:101D300070B540F26F44D0F800C0C4F20204D0F88D
:101D400058E0A4451ADC9F25C4F20205AC4533DCFB
:101D50005725C4F20205AC455ADC1025C4F2020531
:101D6000AC4500F098802825C4F20205AC4500F08F
:101D700092804025C4F202058AE000BF45F22F455B
:101D8000C5F60205AC452DDC40F2B745C4F20205AC
:101D9000AC454BDC40F27045C4F20205AC457AD04C
:101DA00040F28845C4F20205AC4574D040F2A0452B
:101DB000C4F202056CE000BF40F22745C4F2020500
:101DC000AC4543DCA025C4F20205AC4563D0B82580
:101DD000C4F20205AC455ED040F21045C4F20205E3
:101DE00056E000BF45F26B45C5F60205AC453FDC49
:101DF00045F23045C5F60205AC454CD045F24445A8
:101E0000C5F60205AC4546D045F258453EE000BF58
:101E10005825C4F20205AC453DD07025C4F2020538
:101E2000AC4538D08825C4F2020531E040F2B8450F
:101E3000C4F20205AC452ED045F20845C5F60205B0
:101E4000AC4528D045F21C4520E000BF40F22845B3
:101E5000C4F20205AC451ED040F24045C4F2020572
:101E6000AC4518D040F25845C4F2020510E000BF5E
:101E700045F26C45C5F60205AC450CD045F29445DB
:101E8000C5F60205AC4506D045F28045C5F602050B
:101E9000AC4540F0D580456EC66E002E866E6E60F5
:101EA0001CBFD0E91C566E60A44515DC9F24C4F20B
:101EB0000204A4452CDC5724C4F20204A44551DCDE
:101EC0001024C4F20204A4457AD02824C4F20204E7
:101ED000A44575D040246FE045F22F44C5F60204B6
:101EE000A44529DC40F2B744C4F20204A44545DC11
:101EF00040F27044C4F20204A44561D040F2884428
:101F0000C4F20204A4455BD040F2A04454E000BFF8
:101F100040F22744C4F20204A4453FDCA024C4F2EA
:101F20000204A4454CD0B824C4F20204A44547D00E
:101F300040F2104440E000BF45F26B44C5F6020495
:101F4000A44555DC45F23044C5F60204A44561D0F1
:101F500045F24444C5F60204A4455BD045F258441A
:101F600054E000BF5824C4F20204A44528D07024D1
:101F7000C4F20204A44523D088241DE040F2B844F2
:101F8000C4F20204A4451BD045F20844C5F602047D
:101F9000A4453FD045F21C4438E000BF40F228443D
:101FA000C4F20204A4450BD040F24044C4F202043F
:101FB000A44505D040F25844C4F20204A4453FD1E0
:101FC0008468C06D00F01F003F2505FA00F0CEF8D0
:101FD0000800DCF80000402C20F48020CCF8000041
:101FE000CCF8043023D0CCF80810CCF80C2070BD0D
:101FF00045F26C44C5F60204A4450BD045F280447A
:10200000C5F60204A44505D045F29444C5F6020481
:10201000A44515D1C46D806804F01F040125402833
:1020200005FA04F4CEF80440CCF8043004D1CCF81E
:102030000820CCF80C1070BDCCF80810CCF80C209F
:1020400070BD0000000000007047000000000000AC
:102050004FF4807002F04CBCEFF3108072B60000B9
:1020600044F60400C5F60200816841F00201816077
:102070000168890409D4016889045CBF01685FEACA
:10208000814102D401688904F2D570470000000044
:1020900041F61450C2F2004001F046BF00000000BB
:1020A00041F6B450C2F2004001F03EBF0000000013
:1020B00041F65460C2F2004001F036BF000000005B
:1020C0002DE9F041044602F0F7FC1CB3054694F8F4
:1020D0003500022822D140F20F462768C4F20206DA
:1020E00040F26F48B7426FF00E00C4F202081DDCE8
:1020F0006F21C4F202018F422ADC3F21C4F20201A7
:102100008F4241DC1021C4F202018F4263D02821AA
:102110005CE000BF0120BDE8F08100BF8020606569
:102120000120002184F83410BDE8F08147451BDC14
:1021300040F23F41C4F202018F422DDC40F21041D7
:10214000C4F202018F4246D040F228413EE000BF77
:102150009F21C4F202018F4228DC7021C4F20201E7
:102160008F4238D0882131E040F29F41C4F2020111
:102170008F4223DC40F27041C4F202018F422AD028
:1021800040F2884122E000BF4021C4F202018F42A8
:1021900021D058211AE000BF40F24041C4F20201B0
:1021A0008F4218D040F2584110E000BFA021C4F285
:1021B00002018F420FD0B82108E000BF40F2B841C1
:1021C000C4F202018F4206D040F2A041C4F20201E3
:1021D0008F42394607D13946386820F01E0041F851
:1021E000140B6FF080000A68474500EA020008609F
:1021F0001ADC9F20C4F20200874233DC5720C4F26D
:10220000020087425ADC1020C4F20200874200F02C
:1022100097802820C4F20200874200F0918040207D
:10222000C4F202008AE000BF45F22F40C5F602006A
:1022300087422DDC40F2B740C4F2020087424BDCFB
:1022400040F27040C4F20200874279D040F28840E8
:10225000C4F20200874273D040F2A040C4F20200F0
:102260006CE000BF40F22740C4F20200874243DC2A
:10227000A020C4F20200874262D0B820C4F202005B
:1022800087425DD040F21040C4F2020056E000BF29
:1022900045F26B40C5F6020087423FDC45F2304014
:1022A000C5F6020087424BD045F24440C5F6020015
:1022B000874245D045F258403EE000BF5820C4F266
:1022C000020087423CD07020C4F20200874237D01F
:1022D0008820C4F2020031E040F2B840C4F20200AB
:1022E00087422DD045F20840C5F60200874227D02C
:1022F00045F21C4020E000BF40F22840C4F202003A
:1023000087421DD040F24040C4F20200874217D0FD
:1023100040F25840C4F2020010E000BF45F26C40A9
:10232000C5F6020087420BD045F29440C5F6020084
:10233000874205D045F28040C5F60200874204D1AD
:10234000206E016821F480710160386820F001007E
:10235000386000BF3868C00710D002F0ADFB401BEA
:102360000628F7D320206065032084F8350001207B
:10237000002184F83410BDE8F08100BF2068B0422D
:1023800010DC6F21C4F2020188421DDC3F21C4F23F
:102390000201884234DC1021C4F20201884255D087
:1023A00028214FE040451BDC40F23F41C4F20201CE
:1023B00088422DDC40F21041C4F20201884245D02F
:1023C00040F228413EE000BF9F21C4F20201884252
:1023D00028DC7021C4F20201884237D0882131E024
:1023E00040F29F41C4F20201884223DC40F2704176
:1023F000C4F20201884229D040F2884122E000BFA5
:102400004021C4F20201884220D058211AE000BFC6
:1024100040F24041C4F20201884217D040F25841D4
:1024200010E000BFA021C4F2020188420ED0B82102
:1024300008E000BF40F2B841C4F20201884205D072
:1024400040F2A041C4F2020188425BD1D4E91612E5
:1024500002F01F023F2303FA02F28A6040455BDC70
:102460009F21C4F20201884214DC5721C4F2020108
:10247000884227DC1021C4F20201884200F0A280C9
:102480002821C4F20201884200F09C804021C4F25D
:10249000020195E040F22741C4F2020188421FDCAC
:1024A000A021C4F20201884200F08C80B821C4F25D
:1024B0000201884200F0868040F21041C4F202011D
:1024C0007EE000BF5821C4F2020188427AD0702118
:1024D000C4F20201884275D08821C4F202016FE083
:1024E00040F22841C4F2020188426BD040F24041E0
:1024F000C4F20201884265D040F25841C4F20201A0
:102500005EE000BFD4E9161202F01F02012303FAB5
:1025100002F24A604045A3DD45F22F41C5F60201B3
:10252000884217DC40F2B741C4F20201884227DC3E
:1025300040F27041C4F20201884243D040F2884127
:10254000C4F2020188423DD040F2A041C4F202012F
:1025500036E000BF45F26B41C5F6020188421FDC40
:1025600045F23041C5F6020188422BD045F2444184
:10257000C5F60201884225D045F258411EE000BF51
:1025800040F2B841C4F2020188421BD045F2084132
:10259000C5F60201884215D045F21C410EE000BF8D
:1025A00045F26C41C5F6020188420BD045F29441D8
:1025B000C5F60201884205D045F28041C5F6020108
:1025C00088420BD1616EA26EE06E4A6030B1016844
:1025D00021F480710160D4E91C014160012084F87C
:1025E00035000020002184F83410BDE8F08100009F
:1025F00080B5D8B190F83510022919D140F20F42B8
:102600000168C4F20202914216DC6F23C4F2020395
:10261000994227DC3F23C4F2020399423EDC102397
:10262000C4F2020399425FD0282359E0012080BD03
:1026300080214165012080BD40F26F43C4F2020356
:1026400099421BDC40F23F43C4F2020399422DDC65
:1026500040F21043C4F20203994245D040F22843AD
:102660003EE000BF9F23C4F20203994228DC70239E
:10267000C4F20203994237D0882331E040F29F43ED
:10268000C4F20203994223DC40F27043C4F2020315
:10269000994229D040F2884322E000BF4023C4F28F
:1026A0000203994220D058231AE000BF40F2404371
:1026B000C4F20203994217D040F2584310E000BF21
:1026C000A023C4F2020399420ED0B82308E000BF51
:1026D00040F2B843C4F20203994205D040F2A0434D
:1026E000C4F20203994275D191424FF0040280F87E
:1026F000352011DC6F20C4F20200814222DC3F2031
:10270000C4F20200814239DC1020C4F2020081428E
:1027100059D0282054E000BF40F26F40C4F20200BC
:1027200081421BDC40F23F40C4F2020081422DDCBA
:1027300040F21040C4F20200814244D040F22840EE
:102740003EE000BF9F20C4F20200814228DC7020DE
:10275000C4F20200814236D0882031E040F29F402E
:10276000C4F20200814223DC40F27040C4F2020055
:10277000814228D040F2884022E000BF4020C4F2CD
:10278000020081421FD058201AE000BF40F24040B2
:10279000C4F20200814216D040F2584010E000BF5F
:1027A000A020C4F2020081420DD0B82008E000BF92
:1027B00040F2B840C4F20200814204D040F2A0408E
:1027C000C4F202008142086820F001000860002085
:1027D00080BD00BF0A6822F00E020A6045F257422F
:1027E000C5F6020291420A6822F001020A600FDC7B
:1027F00045F22F42C5F60202914219DC45F2084229
:10280000C5F60202914229D045F21C4222E000BFE7
:1028100045F27F42C5F60202914213DC45F258426E
:10282000C5F60202914219D045F26C4212E000BF97
:1028300045F23042C5F6020291420FD045F24442C1
:1028400008E000BF45F29442C5F60202914205D06D
:1028500045F28042C5F6020291421AD1D0E9181C15
:10286000D0E916E30A6822F480720A6003F01F01BF
:10287000012202FA01F1CEF80410816ECCF80410A6
:10288000C16E31B10A6822F480720A60D0E91C126C
:102890004A60012180F83510026D002180F8341063
:1028A0000AB190470021084680BD000000000000EA
:1028B0002DE9F04782B00021019140F20801044661
:1028C000C2F2004148F2B512C1F64E32A56D096858
:1028D00040F26F490068C4F20209A1FB02184845A2
:1028E0002E68296816DC9F21C4F2020188422DDC83
:1028F0005721C4F20201884252DC1021C4F20201C5
:1029000088427CD02821C4F20201884277D040213D
:1029100070E000BF45F22F42C5F60202904229DC6A
:1029200040F2B742C4F20202904245DC40F27041EC
:10293000C4F20201884262D040F28841C4F202012E
:1029400088425CD040F2A04154E000BF40F22741F1
:10295000C4F2020188423FDCA021C4F20201884295
:102960004DD0B821C4F20201884248D040F2104153
:1029700040E000BF45F26B42C5F60202904275DCB2
:1029800045F23042C5F60202904200F0828045F2E4
:102990004442C5F6020290427BD045F2584273E0B1
:1029A0005821C4F20201884229D07021C4F20201E8
:1029B000884224D088211DE040F2B842C4F20202CD
:1029C00090421CD045F20842C5F60202904260D007
:1029D00045F21C4258E000BF40F22841C4F2020117
:1029E00088420CD040F24041C4F20201884206D035
:1029F00040F25841C4F20201884240F05A83E16D2E
:102A0000082201F01F0140F20F4A8A40C4F2020A74
:102A1000324200F0E68050454FF0040312DC6F278D
:102A2000C4F20207B8426FDC3F27C4F20207B84283
:102A300000F3A4801027C4F20207B84200F0C5805A
:102A40002827BDE048456BDC40F23F47C4F202074F
:102A5000B84200F39B8040F21047C4F20207B8422C
:102A600000F0B38040F22847AAE000BF45F26C4274
:102A7000C5F6020290420CD045F28042C5F6020231
:102A8000904206D045F29442C5F60202904240F0D0
:102A900010830268E36D03F01F0304279F400F4279
:102AA00018BF12F0040621D102279F400F4218BF21
:102AB00012F002064CD1D940090740F1FA8212F017
:102AC000080100F0F682016821F00E01016001208A
:102AD00000FA03F16960606584F835000020E16C5C
:102AE00084F83400002940F0DC82E2E211046F60D7
:102AF00026D4910603D4016821F004010160216C01
:102B0000002940F0CE82D4E29F27C4F20207B842E7
:102B100046DC7027C4F20207B84256D088274FE03F
:102B200040F29F47C4F20207B84241DC40F27047CE
:102B3000C4F20207B84248D040F2884740E000BFE4
:102B4000D00300F1B382A16C002940F0AA82B0E268
:102B500011046F6000F1B082910609D4016821F080
:102B60000A010160012084F83500002084F8340057
:102B7000E16B002940F095829BE200BF4027C4F240
:102B80000207B84221D058271AE000BF40F2404760
:102B9000C4F20207B84218D040F2584710E000BF14
:102BA000A027C4F20207B8420FD0B82708E000BF40
:102BB00040F2A047C4F20207B84206D040F2B8473C
:102BC000C4F20207B84218BF082307681F4208D0A2
:102BD000036823F004030360AA60626D42F00102FF
:102BE000626501228A4032426FD0504510DC6F236B
:102BF000C4F2020398421DDC3F23C4F20203984250
:102C000034DC1023C4F20203984256D028234FE04C
:102C100048451BDC40F23F43C4F2020398422DDCDE
:102C200040F21043C4F20203984246D040F22843D7
:102C30003EE000BF9F23C4F20203984228DC7023C9
:102C4000C4F20203984238D0882331E040F29F4317
:102C5000C4F20203984223DC40F27043C4F2020340
:102C600098422AD040F2884322E000BF4023C4F2B9
:102C70000203984221D058231AE000BF40F240439B
:102C8000C4F20203984218D040F2584310E000BF4B
:102C9000A023C4F2020398420FD0B82308E000BF7B
:102CA00040F2A043C4F20203984206D040F2B84377
:102CB000C4F20203984240F0058243691B0604D522
:102CC000AA60626D42F00202626504228A403242CA
:102CD0006FD0504510DC6F23C4F2020398421DDC14
:102CE0003F23C4F20203984234DC1023C4F20203EF
:102CF000984256D028234FE048451BDC40F23F4322
:102D0000C4F2020398422DDC40F21043C4F20203E5
:102D1000984246D040F228433EE000BF9F23C4F2D1
:102D20000203984228DC7023C4F20203984238D090
:102D3000882331E040F29F43C4F20203984223DC2F
:102D400040F27043C4F2020398422AD040F2884312
:102D500022E000BF4023C4F20203984221D058234E
:102D60001AE000BF40F24043C4F20203984218D078
:102D700040F2584310E000BFA023C4F2020398427F
:102D80000FD0B82308E000BF40F2A043C4F2020312
:102D9000984206D040F2B843C4F20203984240F091
:102DA000998103689B0704D5AA60626D42F0040212
:102DB0006265102202FA01F1314200F08180504533
:102DC0004FF0080210DC6F23C4F2020398421DDCAE
:102DD0003F23C4F20203984234DC1023C4F20203FE
:102DE000984256D028234FE048451BDC40F23F4331
:102DF000C4F2020398422DDC40F21043C4F20203F5
:102E0000984246D040F228433EE000BF9F23C4F2E0
:102E10000203984228DC7023C4F20203984238D09F
:102E2000882331E040F29F43C4F20203984223DC3E
:102E300040F27043C4F2020398422AD040F2884321
:102E400022E000BF4023C4F20203984221D058235D
:102E50001AE000BF40F24043C4F20203984218D087
:102E600040F2584310E000BFA023C4F2020398428E
:102E70000FD0B82308E000BF40F2A043C4F2020321
:102E8000984206D040F2B843C4F20203984218BFF9
:102E900004220368134213D0A96001684903016842
:102EA00008D4C90508D4016821F008010160216C2B
:102EB00021B905E008034FD4216C09B120468847A9
:102EC000E06D00F01F01202000FA01F2324200F014
:102ED000AB8020681023504510DC6F27C4F2020736
:102EE000B8421DDC3F27C4F20207B84238DC102785
:102EF000C4F20207B8425AD0282753E048451BDCE9
:102F000040F23F47C4F20207B84231DC40F21047BA
:102F1000C4F20207B8424AD040F2284742E000BF5C
:102F20009F27C4F20207B8422CDC7027C4F20207C4
:102F3000B8423CD0882735E040F29F47C4F20207F0
:102F4000B84227DC40F27047C4F20207B8422ED0E4
:102F500040F2884726E000BFA16C0029AED1AFE760
:102F60004027C4F20207B84221D058271AE000BF18
:102F700040F24047C4F20207B84218D040F2584726
:102F800010E000BFA027C4F20207B8420FD0B82754
:102F900008E000BF40F2A047C4F20207B84206D0E2
:102FA00040F2B847C4F20207B84218BF02230768CC
:102FB0001F4239D0AA6094F83520042A02681BD138
:102FC00022F016020260426922F080024261226C05
:102FD0000AB9A26C1AB1026822F0080202603F200E
:102FE0008840A860012084F83500216D0020002968
:102FF00084F8340055D15CE0510301680CD4C90554
:103000000ED4016821F010010160012084F8350020
:10301000002084F8340003E0080301D4616C00E070
:10302000E16B09B120468847606D002841D0606D92
:10303000C00734D0042084F8350020684FEA982176
:10304000026822F001020260019A013201928A4272
:103050001AD80268D20717D0019A013201928A4227
:1030600012D80268D2070FD0019A013201928A4227
:103070000AD80268D20707D0019A013201928A4227
:1030800002D80268D207DFD10068C0074FF0030002
:1030900008BF012084F83500002084F83400E16C7A
:1030A00039B1204602B0BDE8F0470847216C00293D
:1030B000F7D102B0BDE8F087D0030DD4616C0029D0
:1030C000EFD1F6E7026804228A4032427FF401AE73
:1030D0006FE600BF02686CE6E16B0029E1D1E8E72A
:1030E0002DE9F04381B0044601F0E6FC002C00F02D
:1030F000AF8040F26F4805462068C4F202084045A0
:1031000016DC9F21C4F2020188422DDC5721C4F253
:103110000201884254DC1021C4F20201884200F00E
:103120007E802821C4F20201884278D0402171E0DB
:1031300045F22F41C5F60201884229DC40F2B74131
:10314000C4F20201884247DC40F27041C4F202013D
:10315000884264D040F28841C4F2020188425ED0C5
:1031600040F2A04156E000BF40F22741C4F2020104
:10317000884241DCA021C4F2020188424FD0B8212C
:10318000C4F2020188424AD040F2104142E000BF3E
:1031900045F26B41C5F60201884200F3BD8045F25D
:1031A0003041C5F60201884200F0C98045F2444131
:1031B000C5F60201884200F0C28045F25841B9E0EC
:1031C0005821C4F20201884229D07021C4F20201C0
:1031D000884224D088211DE040F2B841C4F20201A7
:1031E00088421CD045F20841C5F60201884200F031
:1031F000A68045F21C419DE040F22841C4F2020144
:1032000088420CD040F24041C4F20201884206D00C
:1032100040F25841C4F20201884240F02581022167
:1032200084F83510002184F83410016821F0010180
:10323000016000BF20680168C9070DD001F03CFCA7
:10324000401B0628F6D320206065032084F8350053
:10325000012001B0BDE8F08348F23F0204F1080606
:103260000168CFF610621140D4F818C06CCE11433B
:10327000D4F824901943E3692943256A0E43B9F130
:10328000040F43EA060343EA050343EA0C0303D1B0
:10329000D4E90B652E433343666843F48011A6F1ED
:1032A0003F07A6F12905042FA6F1470238BF0B46B8
:1032B000062DA6F14F0E38BF0B46022A26F0030258
:1032C00038BF0B46BEF1040F38BF0B46742A08BF47
:1032D0000B46B9F1040F0360416921F0070141EA8F
:1032E000090140F0DD80D4E90A53002B41EA0501D1
:1032F00000F0D680BCF5005F00F0B880BCF1000F94
:1033000040F0C080022D00F0C080012D00F0B4809C
:10331000002D00F0BA80C3E045F26C41C5F6020111
:1033200088420CD045F28041C5F60201884206D0A1
:1033300045F29441C5F60201884240F0958004F1BF
:10334000080E022184F83510002184F83410016839
:10335000A3699EE80450A2F18005E769B5FA85F5F6
:1033600066696D09402A4FEA853543EA07026FF323
:10337000101142EA060208BF102541EADC0142EAC8
:103380000E02236A294341EAD20141EA131140F8AF
:103390000819C0B2CD2148433C2101EA9020E065E4
:1033A0002046FEF731FCE16D012201F01F0102FA17
:1033B00001F141602068404500F381809F21C4F203
:1033C0000201884214DC5721C4F20201884227DC42
:1033D0001021C4F20201884200F0C7802821C4F203
:1033E0000201884200F0C1804021C4F20201B9E02C
:1033F00040F22741C4F20201884221DCA021C4F23C
:103400000201884200F0B180B821C4F20201884272
:1034100000F0AB8040F21041C4F20201A2E000BF14
:103420005821C4F20201884200F09F807021C4F24A
:103430000201884200F099808821C4F2020191E0E3
:1034400040F22841C4F20201884200F08E8040F22E
:103450004041C4F20201884200F0878040F25841A6
:10346000C4F202017EE000BF4020EDE6032D17D834
:10347000DFE805F00E0B0E02A3F1C072B2FA82F281
:10348000520904E0032D03D30AD1C3F300623AB119
:1034900040206065012084F8350001B0BDE8F0836C
:1034A00041612046FEF7B0FBE16D3F2201F01F01B4
:1034B00002FA01F18160206840457FF77FAF45F255
:1034C0002F41C5F60201884216DC40F2B741C4F232
:1034D0000201884226DC40F27041C4F202018842B7
:1034E00043D040F28841C4F2020188423DD040F20C
:1034F000A041C4F2020135E045F26B41C5F602017C
:1035000088421FDC45F23041C5F6020188422CD0CA
:1035100045F24441C5F60201884226D045F25841A1
:103520001EE000BF40F2B841C4F2020188421CD044
:1035300045F20841C5F60201884216D045F21C4109
:103540000EE000BF45F26C41C5F6020188420CD086
:1035500045F29441C5F60201884206D045F2804109
:10356000C5F60201884240F0E18045F2574C45F62D
:10357000FC01C5F6020CC5F6020160450EDC45F201
:103580002F42C5F60202904218DC45F20842C5F609
:103590000202904228D045F21C4221E045F27F42CF
:1035A000C5F60202904213DC45F25842C5F602020B
:1035B000904219D045F26C4212E000BF45F2304211
:1035C000C5F6020290420FD045F2444208E000BF27
:1035D00045F29442C5F60202904205D045F280427F
:1035E000C5F60202904247D100F0FC024CF6CD43F2
:1035F000083ACCF6CC43A2FB0323A1F1FC05A1F1D0
:103600007C061B0905EB830503F01F02A3682566F2
:10361000802B4FF0010303FA02F26666A26605D121
:1036200000206060286072601EE000BF6768FBB227
:10363000013F072F2B60726016D85E1E082E19D22C
:10364000604501F1440237DC45F22F47C5F6020719
:10365000B84241DC45F20847C5F60207B84259D0E6
:1036600045F21C474AE000BF00206067C4E91B0028
:103670005CE000BFE06E54E000F0F8024AF6AB23D5
:10368000103ACAF6AA23A2FB032740F20F43C4F262
:10369000020308253A09984203F1AA06134688BF97
:1036A00005EB171340F60005B042C4F2020505F120
:1036B000800628BF1346A5E745F27F47C5F60207F7
:1036C000B84213DC45F25847C5F60207B84221D08C
:1036D00045F26C4712E000BF45F23047C5F60207DD
:1036E000B84217D045F2444708E000BF45F2804792
:1036F000C5F60207B8420DD045F29447C5F6020759
:10370000B84207D040F60000C4F2020000F1FC010C
:1037100000F5A07201EB83000121E066B140226751
:10372000616700210160D4E91C01416000206065EF
:10373000012184F8351001B0BDE8F08300000000DD
:10374000B0B500283CD0054690F83400012801D1DE
:103750000220B0BD012085F8340095F8350001281D
:1037600028D1022085F835000020686528680468A3
:1037700024F0010404602846FEF7DAFA40F20F4212
:103780002868C4F2020240F26F419042C4F2020182
:1037900018DC6F23C4F20203984225DC3F23C4F2F5
:1037A000020398423CDC1023C4F2020398425ED02C
:1037B000282357E04FF400606865002085F8340046
:1037C0000120B0BD88421BDC40F23F43C4F202033B
:1037D00098422DDC40F21043C4F20203984246D0D6
:1037E00040F228433EE000BF9F23C4F20203984208
:1037F00028DC7023C4F20203984238D0882331E0D9
:1038000040F29F43C4F20203984223DC40F270432B
:10381000C4F2020398422AD040F2884322E000BF5B
:103820004023C4F20203984221D058231AE000BF7B
:1038300040F24043C4F20203984218D040F2584389
:1038400010E000BFA023C4F2020398420FD0B823B7
:1038500008E000BF40F2B843C4F20203984206D029
:1038600040F2A043C4F20203984240F02F81036863
:103870000B2464F3440303602B6C1BB1082304681E
:1038800023430360884219DC9F23C4F20203984259
:1038900032DC5723C4F20203984259DC1023C4F2ED
:1038A0000203984200F096802823C4F20203984253
:1038B00000F090804023C4F2020389E045F22F43D8
:1038C000C5F6020398422DDC40F2B743C4F202036E
:1038D00098424BDC40F27043C4F20203984279D024
:1038E00040F28843C4F20203984273D040F2A043EE
:1038F000C4F202036CE000BF40F22743C4F20203AB
:10390000984243DCA023C4F20203984262D0B82359
:10391000C4F2020398425DD040F21043C4F20203A5
:1039200056E000BF45F26B43C5F6020398423FDC08
:1039300045F23043C5F6020398424BD045F244436A
:10394000C5F60203984245D045F258433EE000BF19
:103950005823C4F2020398423CD07023C4F20203FD
:10396000984237D08823C4F2020331E040F2B843D2
:10397000C4F2020398422DD045F20843C5F6020373
:10398000984227D045F21C4320E000BF40F2284374
:10399000C4F2020398421DD040F24043C4F2020335
:1039A000984217D040F25843C4F2020310E000BF1F
:1039B00045F26C43C5F6020398420BD045F294439E
:1039C000C5F60203984205D045F28043C5F60203CE
:1039D000984274D12B6E1C68E40303D51C6844F430
:1039E00080741C60EB6E1BB11D6845F480751D6012
:1039F000904211DC6F21C4F2020188421EDC3F219B
:103A0000C4F20201884235DC1021C4F2020188426E
:103A100055D0282150E000BF88421BDC40F23F41D6
:103A2000C4F2020188422DDC40F21041C4F20201CE
:103A3000884244D040F228413EE000BF9F21C4F2BA
:103A40000201884228DC7021C4F20201884236D08B
:103A5000882131E040F29F41C4F20201884223DC18
:103A600040F27041C4F20201884228D040F28841FD
:103A700022E000BF4021C4F2020188421FD0582139
:103A80001AE000BF40F24041C4F20201884216D061
:103A900040F2584110E000BFA021C4F20201884268
:103AA0000DD0B82108E000BF40F2B841C4F20201D5
:103AB000884204D040F2A041C4F202018842016869
:103AC00041F0010101600020B0BD00BF0368052482
:103AD00064F3430303602B6C002B3FF4D3AE042349
:103AE000CDE6000000000000B0B5044600F0E4FFA1
:103AF00040F200010546C2F20041621C097818BF7D
:103B00000C4400BF00F0D8FF401BA042FAD3B0BD68
:103B100090F89830013B012B0ED80068836D0B4262
:103B200012D0836D0B408B4216D1C36D43F002035C
:103B3000C3658B0514D418E000F19C01012002221A
:103B40000B681A430A607047C36D43F00103C365F5
:103B50008B0505D409E000BF0323C3658B0504D59D
:103B6000D0F8E0301343C0F8E0304B0504D5D0F86E
:103B7000E4301A43C0F8E4204FF6FF72436DC3F6F9
:103B8000CF720A401A4342658A0F4AF61401002098
:103B9000C4F200010B681A430A607047000000007D
:103BA0002DE9F04390F89830022B19D10668D6F829
:103BB000C03013F07C5F1DD0D6F8C4309B0223D4F4
:103BC000D6F8C4300C69C3F3044CD1E90035002D9C
:103BD0008D6823D023432B4343F0804E22E000BF67
:103BE000D0F89C1041F00801C0F89C100120BDE8FD
:103BF000F08300BFD0F89C1041F02001C0F89C1069
:103C00000120BDE8F08300BFD0F89C1041F40071A2
:103C1000C0F89C100120BDE8F08300BF44EA834354
:103C200043EA050E836ED0F88450D1E907970CFB68
:103C300003F48B6949EA0767D1F81480D1F80C9036
:103C40001F4305EB840347EA080745F824E047EAE9
:103C500009475F60CF6887B141F6304508330332CA
:103C60000024C0F6010500BF171957F8037C1F5147
:103C7000CF680434EF5DBC42F6D3012101FA0CF1A8
:103C8000C6F8D010C0F894100020BDE8F083000002
:103C9000704700000000000080B590F89820013ABD
:103CA000012A0BD80A68002ACA680FD00B69072AB4
:103CB00043EA427E18D18B691BE000BFD0F89C100C
:103CC00041F00201C0F89C10012080BD072A19D1E3
:103CD0000A69D1F81CC012048B6942EA0C221A430B
:103CE00042F0605218E000BFD1F808C04B6943EAC7
:103CF0008C73006F496800EBC10240F831E000208E
:103D0000536080BD8B68D1F810C09B0743EAC26244
:103D10004B6942EA0C421A434968C06E40F82120C0
:103D2000002080BD0000000070470000000000007F
:103D300070470000000000002DE9F04390F89870F3
:103D4000022F11D1402919D10668D6F8A07017F4B6
:103D5000FE0F2FD0D6F8A4707F0635D0D6F8A47009
:103D6000FF013BD400273CE0D0F89C1041F0080153
:103D7000C0F89C100120BDE8F08300BF41290FD19D
:103D80000668D6F8B07017F4FE0F13D0D6F8B470EA
:103D90007F0619D0D6F8B470FF012BD400272CE091
:103DA000076D8F4206D900F17C04456D4FF0000C81
:103DB0000E462BE0D0F89C1041F02001C0F89C107A
:103DC0000120BDE8F08300BFD0F89C1041F4807161
:103DD000C0F89C100120BDE8F08300BFD6F8A070A9
:103DE000FF0FD6F8A46000F17404C6F30526F51998
:103DF000466C0AE0D6F8B070FF0FD6F8B46000F158
:103E00007804C6F30526F519C66CAC4675432468DC
:103E100004EB850E54F8257017F08047576054F86E
:103E2000257027F0604608BFC7F38A46166054F82D
:103E3000257007F00057976054F8254004F00044BF
:103E40001461BEF80440D461BEF8064014F00F04BB
:103E5000D460DEF8044004F480145461DEF80440B9
:103E600004F4001494619EF8074004F07F04146287
:103E7000DEF804404FEAD474546228D041F630484A
:103E80000024C0F601080EEB0406651C377A1F55A6
:103E9000D76818F80770BD4219D21F19757A7D705E
:103EA000D56818F80590A51C4D453FBFB57ABD7083
:103EB000D56818F805903CBFE51C4D4507D2F57A4A
:103EC0000434FD70D56818F80550AC42DBD34029A6
:103ED00006D10068C0F8A8C00020BDE8F08300BF8C
:103EE000412905D10068C0F8B8C00020BDE8F083C2
:103EF0001F2909D80068012202FA01F1C0F89810C0
:103F00000020BDE8F08300BF006801F01F0101221E
:103F100002FA01F1C0F89C100020BDE8F083000017
:103F200070470000000000002DE9F04F89B0044602
:103F30004AF61000C4F2000001684AF61400C4F208
:103F400000000268206802EA0108056DD0F854906C
:103F5000036D0293436D0193036D0493436D0393CB
:103F6000036D0893436D0793036D0693436D0593AB
:103F7000D0F854A0D0F850B05FEACA530ED51BF465
:103F800080710BD04FF4807101654AF6100100205A
:103F9000C4F2000108602046FFF7C2FF05EA0906E7
:103FA0004AF610095FEA4A50C4F200094FEA8877DE
:103FB00011D51BF480600ED02068D0F8DC10D0F84A
:103FC000E42011404FF4806202650020C9F800002F
:103FD000204600F071FCDDE9011000EA010506F45D
:103FE000704657B120680021016508F00300C9F848
:103FF000000020463946FFF74BFEDDE9031000EADA
:10400000010705F00F0546B120683146066500201E
:10401000C9F80000204600F057FC07F0F00645B153
:104020002068294605650020C9F80000204600F0F8
:1040300003FC46B12068314606650020C9F800003F
:10404000204600F001FC5FEA0A500CD51BF400602A
:1040500009D020684FF4006101650020C9F8000014
:10406000204600F035FC5FEA8A5011D51BF4007041
:104070000ED02068D0F8D810D0F8E02011404FF4CE
:10408000007202650020C9F80000204600F018FC0C
:104090005FEA0A300CD51BF4002009D020684FF4E9
:1040A000002101650020C9F80000204600F0C0FB97
:1040B0005FEACA300CD51BF4803009D020684FF479
:1040C000803101650020C9F80000204600F0F0FBB7
:1040D0005FEA4A30DDE9051000EA01050CD51BF462
:1040E000802009D020684FF4802101650020C9F8A4
:1040F0000000204600F0D8FB5FEA8A30DDE90710B7
:1041000000EA010005F060710FD51BF400320CD0FD
:1041100022684FF4003313650022C9F80020D4F858
:104120009C2042F08002C4F89C2000F0715539B107
:10413000206801650020C9F800002046FFF7F8FD5F
:10414000206845B105650021C9F80010D4F89C101D
:104150002943C4F89C10A9F5016188420AD0D4F81B
:104160009C00002868D0204609B0BDE8F04FFFF75A
:10417000DBBD00BF606881688907F0D0016A426AD0
:10418000036A476A114003EA070202F03005D0F8DB
:104190002080D0F82490D0F820B0D0F824A0026A73
:1041A000089211F00F01426A0792466A026A06926B
:1041B00003D00162204600F06BFB08EA09072DB12D
:1041C000606829460562204600F06AFB70060BEA2B
:1041D0000A0607F4C0750ED5069810F040000AD004
:1041E00060684023C16BC26B090C02F03F0203629E
:1041F000204600F051FBDDE9071000EA010706F454
:10420000FC462DB1606829460562204600F03CFB63
:1042100007F4F02036B161680E62D4F89C10314387
:10422000C4F89C1000289AD061680862D4F89C10E9
:104230000843C4F89C0092E709B0BDE8F08F000085
:104240002DE9F04F85B0A8B34AF200080446C4F245
:1042500000080068404531D094F89810A9B38169EE
:1042600021F01001816100F027FC0546206881697A
:10427000090705D500F020FC401B0B28F6D310E001
:10428000816941F00101816100F016FC054600BF23
:1042900020688169C90721D100F00EFC401B0B2862
:1042A000F6D30120D4F89C100843C4F89C000320E6
:1042B00084F89800012005B0BDE8F08F08F5807102
:1042C000616094F898100029C9D1002084F8990001
:1042D000204600F0B5F92068C1E700BF816941F0D0
:1042E00002018161217C826922F04002012918BF0C
:1042F00040328261617C826922F48042012908BFD8
:1043000002F580428261A17C826922F480520129F7
:1043100018BF02F580528261816921F44073D4E9AB
:1043200002120B438361836923F0A4038361036951
:1043300023F0100303619AB1012A0DD0022A09D09B
:104340008369032A43F080038361036943F0100209
:10435000026105D1202200E0042283691A438261B0
:10436000D4E90572E369561E6FF0FF02256A02EB7D
:104370000323B1F5407F43EA4663A5F1010646EA0F
:10438000030640F20003CFF6FF7303EB074746EA4C
:104390000701C16110D1D4E90B65D4E90917013FC8
:1043A00002EB06226FF00F063A4306EB05173A437D
:1043B00003EB01411143C160236E2BB1616ED0F854
:1043C000C0201143C0F8C010E16DCDE90313D942FC
:1043D00041F6DC21C0F6010109D0D0F8C820A36E57
:1043E00022F0070251F823301A43C0F8C820D4F84D
:1043F00040A0BAF1000F09D0D0F8BC20636C22F0C5
:10440000070251F823301A43C0F8BC20A76C57B1FB
:10441000D0F8BC20E36C22F0700251F8233042EA5D
:104420000312C0F8BC20D4F850C0BCF1000F0AD071
:10443000D0F8BC20636D22F4E06251F8231042EA08
:104440000121C0F8BC10404504D161688A6822F09F
:1044500003028A600021C4F89410C4F89C10012162
:1044600084F898104FF6FC72D0F88410D4F83C9081
:1044700021EA0203656CD4E90D120292019543EA28
:104480008103C0F88430D0F8843023F47F0343EAFA
:104490000243C0F884305318D0F888606FF38F0659
:1044A00046EA8306C0F88860D0F8886003EB4903C9
:1044B00026F4FE0646EA0946C0F88860D0F8A060F7
:1044C0006FF38F0646EA8306C0F8A060D0F8A060BC
:1044D00005FB0A3326F4FE0646EA0A46C0F8A06049
:1044E000D0F8B0606FF38F0646EA8306C0F8B0607C
:1044F000D0F8B06026F4FE0646EA0746C0F8B06081
:10450000E66CD0F8AC506FF38F0506FB07337E43A3
:1045100045EA8305C0F8AC50D4F8548008FB0C354C
:10452000D0F8F0306FF38F0308FB0CFC43EA8503EF
:10453000C0F8F030D0F8F0E0A36D2EF47C1242EA1F
:104540000342C0F8F02005EB4302D0F8C0506FF3EF
:104550008F0545EA8202C0F8C020D0F8C020DDF8FF
:104560000CB022F47C1242EA0B42C0F8C020019A3F
:10457000D0F8C05025F07C5502FB0AFE4AF200023A
:10458000C4F20002DDF810A002EB8101029A01F5ED
:10459000406145EA0A6501EB8207C0F8C05007EBAD
:1045A000C902A56E02EB8E00626700EB86060BFB6C
:1045B00005F2276706EB8C07C4E91E060AFB05F027
:1045C00007EBC30303EB8202C4F884304DF2FC33E3
:1045D000E16602EB8000C4F200039842C4F88070E8
:1045E000C4F88820C4F8900002D920205AE600BF01
:1045F000814221D20A46002042F8040BD4F89030C0
:104600009A4215D2486001F10802D4F890309A42DB
:104610003FBF0020886001F10C02D4F8903038BF11
:104620009A4205D2C8601031D4F890209142E1D36B
:1046300005B0BDE8F08F00BF002005B0BDE8F08FE9
:10464000B0B5B6B0044602A8B8210025CDE934556E
:10465000CDE932553195FCF722F84DF20041206842
:10466000C4F20001884253D04AF20041C4F2000172
:10467000884200F091804AF20001C4F200018842B1
:1046800040F0D280002003904FF4004002904FF0A1
:1046900080501D9002A801F0BFFD08B1FDF7DCFCC1
:1046A00040F24C4144F2E040C2F20041C5F6020043
:1046B0000A68002A02F101020A6008D1C16841F4C7
:1046C0008071C160C16801F4807101910199016834
:1046D00041F008010160006840F2004100F008006C
:1046E0000190C5F60201019803203190022032901A
:1046F0000020CDE933000920359001F5006031A993
:1047000000F002F9132006210022132487E000BFE5
:104710004FF4004002904FF080501D9002A8039586
:1047200001F07AFD08B1FDF797FC40F24C4144F2EC
:10473000E040C2F20041C5F602000A68002A02F118
:1047400001020A6008D1C16841F48071C160C1688A
:1047500001F4807101910199016841F0200101602B
:104760000068002100F0200001900198C020CDE9F0
:10477000331140F200413190C5F60201022032901F
:10478000359001F5805031A900F0BEF89F20082136
:1047900000229F2443E000BF002003904FF400401C
:1047A00002904FF080501D9002A801F035FD08B135
:1047B000FDF752FC40F24C4144F2E040C2F20041AD
:1047C000C5F602000A68002A02F101020A6008D157
:1047D000C16841F48071C160C16801F480710191C8
:1047E0000199016841F002010160006831A900F0FF
:1047F0000200019001984FF4405031900220329015
:104800000020CDE933000920359040F20040C5F684
:10481000020000F079F8142007210022142400F08F
:1048200063FA204600F04CFA36B0B0BD000000003C
:104830007047000000000000C90708BF704709F07A
:104840007BBE000000000000704700000000000078
:1048500090F8981001290DD1022180F89810016874
:104860008A6922F001028A610021C0F89C10084682
:10487000704700BFD0F89C1041F00401C0F89C10B4
:104880000120704700000000704700000000000099
:1048900070470000000000007047000000000000AA
:1048A000704700000000000070470000000000009A
:1048B000704700000000000070470000000000008A
:1048C000704700000000000070470000000000007A
:1048D000704700000000000041F684110346C2F258
:1048E00000414FF480720846194609F075B800007F
:1048F0008821C5F600010A68024208BF70470860B7
:10490000FFF7EABF000000002DE9F04F82B00D680C
:10491000002D00F0CB8000F1264242F2004302F16C
:10492000FF72C5F602030A2698424FEAB22444F207
:10493000F44E08BF0926082C40F2040C38BF4FEA99
:10494000B226C5F6020EC5F6000C0096002200271E
:10495000002609E001360D6835FA06F307F1040771
:1049600002F1020200F0A280012303FA06F415EA24
:104970000408EFD0D1F804A003230AF0030B9340FE
:10498000ABF101056FEA0309012D0FD88368CD68EB
:1049900003EA090395402B438360CAF3001543687B
:1049A000A34305FA06F42343436005E0BBF1030F7C
:1049B00002D14FF0030B21E0C3688C6803EA0903BE
:1049C0009440BBF1020F43EA0403C36016D16FF0B9
:1049D000030307F01C0503EA56030F24034404FAFB
:1049E00005FBD3F820A00C692AEA0B0AAC4044EA84
:1049F0000A041C62D1F804A00AF0030B03680BFA46
:104A000002F403EA09031AF4403F43EA0403036093
:104A1000A0D0DEF8003040F2084A43F00203CEF89E
:104A20000030DEF80030C5F6000A03F002030193FF
:104A300026F00303019C07F00C040F2553F80A909D
:104A4000A54029EA0509009D05FA04F444EA090491
:104A500043F80A404FF0B04ADAF800904C6849EA4F
:104A60000805E30258BF29EA0805A302CAF8005066
:104A7000DCF8009049EA080558BF29EA0805A303B5
:104A8000CCF80050DCF8809049EA080558BF29EAC4
:104A90000805E403CCF88050DCF87C3043EA0805D4
:104AA00058BF23EA0805CCF87C5053E702B0BDE8B4
:104AB000F08F00000000000046F2F070C2F20040EB
:104AC000006870470000000040F2000046F2F071FC
:104AD000C2F20040C2F2004100780A681044086047
:104AE000704700000000000080B5032000F02CF9A2
:104AF00002F0CEFA44F2184141F63433C5F6020111
:104B0000C0F601030A68096801F00F01C2F303222D
:104B1000595C9A5C01F01F0102F01F02D04040F284
:104B20000C02C2F2004220FA01F1116040F20801C9
:104B3000C2F2004108600F2000F00AF800281CBFF4
:104B4000012080BD00F0A4F8002080BD000000001E
:104B5000B0B58AB00F283ED804462C20002221464A
:104B6000002500F0C1F82C2000F0AAF840F2040063
:104B7000C2F20040046044F2F040C5F60200016851
:104B800041F002010160006801A900F002000290FA
:104B9000029802A802F0C8F902F04AFA4DF68361C1
:104BA0004000C4F21B3140F20042A0FB010142F27E
:104BB000BC40C2F200404FF0FF33C4F20102026079
:104BC00003EB9141C0E9011540F2E731C0E903155B
:104BD00002F0F2FD10B101200AB0B0BD42F2BC40BB
:104BE000C2F2004002F070FE0AB0B0BD000000004A
:104BF00010B54EF6A05E4178CEF2000E90F800C0DF
:104C00004EF8081CDEF8001021F00101CEF800106B
:104C100041684EF8041C017BC37A827A447B1B06F0
:104C200043EA0171837B41EAC241C27B41EA84418C
:104C3000447A41EA4341007A41EA024141EA0421CF
:104C400041EA400040EA0C00CEF8000010BD000030
:104C50004EF62450CEF20000BFF35F8F016821F4BE
:104C600080310160002101677047000000000000F2
:104C70004EF6245140F00100CEF2000108670868AA
:104C800040F480300860BFF34F8FBFF36F8F7047E1
:104C900081B044F2F4400022C5F60200016841F000
:104CA0000201016000680F2100F0020000906FF027
:104CB0000100009B01B000F017B8000000000000E8
:104CC000002848BF704781B200F01F000122490947
:104CD00002FA00F04EF20012CEF2000242F8210079
:104CE000704700000000000070B54EF60C5C4FF0FD
:104CF000FF36CEF2000C00F1604505F56445DCF8A6
:104D00000030C3F3022E8EF00703042B28BF0423C8
:104D1000BEF1030406FA03F321EA030100F00F03D6
:104D200038BF0024043B0028634406FA04F048BF5F
:104D300003F10C05A14022EA00000843000128709D
:104D400070BD0000000000004EF60C514FF6FF034E
:104D5000CEF200010A681A4060F30A2242F0806035
:104D600040F0FD700860704701680122C0F8D82447
:104D7000002280F8CC24886940F000608861486D8A
:104D800040F08052002042F003024A657047000064
:104D90007047000000000000026800205162704768
:104DA0002DE9F04F81B0D0F80080D8F8240099B1F7
:104DB000D8F82830B1F1010E00EB134375D0AEF1F5
:104DC00001000EF00307C0B203280DD201214FF0FD
:104DD000000A002F50D168E040EA0240C8F82800DD
:104DE000002001B0BDE8F08F08F1F4050021009724
:104DF00041F0010408F5827C55F8100FE4B241F04F
:104E00000207FFB203EB104B5CF8244041F00303B0
:104E1000D8B25CF827600B1D0EF0FC095FFA83FA2C
:104E20000BEB1444CA4504EB16445CF820001ED07A
:104E3000194643F00103DBB204EB104A41F00204CF
:104E400055F8106FE4B241F00307FFB25CF823009D
:104E50000B1D0AEB16465FFA83FA5CF8244006EB5A
:104E60001046CA455CF8270006EB1444E0D104EB79
:104E700010430531009FC7B108EB8A00012FD0F81D
:104E8000040103EB104310D0C8B2022F08EB8000DE
:104E9000D0F8040103EB104307D0481CC0B208EB64
:104EA0008000D0F8040103EB104308EB8E0043EAC6
:104EB0000241C0F80411002001B0BDE8F08F0000ED
:104EC000D0F8E00406F0D4B901EBC10200EB820295
:104ED000D0F8E004126A06F02FB9000000000000CC
:104EE00001EBC10200EB8202D0F8E004D2F86022AC
:104EF00006F082B900000000D0F8E00406F0BCB96A
:104F000010B54AB2044601F00F00B2F1FF3F00EBCA
:104F1000C00104EB81020BDD02F51571002382F85C
:104F2000553294F894240870012A0AD1022010BD49
:104F300002F114010123537594F894240870012A96
:104F4000F4D0012084F89404206806F0B9FF002012
:104F500084F8940410BD0000B0B50279044601F055
:104F60000F00904202D90120B0BD00BF49B2B1F19B
:104F7000FF3F09DD00EBC001002304EB810202F5D5
:104F8000157182F8553207E000EBC001012304EBF4
:104F9000810202F11401537594F8942400258D7058
:104FA000012A087002D10220B0BD00BF012084F8A0
:104FB0009404206807F07CFA284684F89454B0BD25
:104FC00001F00F0101EBC10100EB8100D0F8680294
:104FD000704700000000000070B54CB2064601F0BA
:104FE0000F00B4F1FF3F00EBC00107DD06EB8104C9
:104FF000002504F5157184F8555206E006EB810C86
:1050000001240CF114018CF815404D7808706FF3F1
:10501000DF228A60002D0B7118BF4883022B01D15B
:105020000020487196F89404012801D1022070BD37
:10503000012086F89404306806F0D2FD002086F83E
:10504000940470BD0000000080B501F00F0E0EEB5F
:10505000CE0100EB810C0021CCE998238379CCF8B8
:1050600068128CF855120CF51571012B8CF854E26E
:1050700008BFCCF8702200681A4607F065FA0020D5
:1050800080BD000000000000B0B50446007901F0CA
:105090000F05854202D90120B0BD00BF48B2B0F172
:1050A000FF3F09DD01EBC100002204EB800000F5A9
:1050B000157180F8552207E005EBC500012204EBCD
:1050C000800000F11401427594F894240120887046
:1050D000012A0D7002D10220B0BD00BF84F89404F3
:1050E000206807F011FA1DB1002084F89404B0BDC7
:1050F000A179206804F29C4207F0AAF9002084F804
:105100009404B0BD0000000010B501F00F0C0124A4
:105110000CEBCC0100EB810E714601F814CF4FF07F
:10512000000CC1F814C090F806C04C70CA60BCF105
:10513000010F0B6108BFCEF830200068624607F00F
:1051400003FA002010BD00002DE9F04F89B005687A
:105150008246284607F010FC10B109B0BDE8F08F78
:10516000DAF8000007F038FC0028F6D0D5F8080877
:10517000C0F30D20CAF8D404DAF8000007F02CFCC4
:105180008007DAF8000003D5416901F002014161AE
:1051900005F50061049107F01FFCC006DAF8000075
:1051A00005953BD5816921F0100181612C6A04F0DD
:1051B0000F05C4F34340062818D0022827D147F62C
:1051C000F07014EA000622D005EBC50034090AEBA2
:1051D000800705982246D7F8601207F001FCD7F83F
:1051E000600200EB1610C7F8600207E00AF29C416B
:1051F0000822059807F0F4FBC4F30A1405EBC50078
:105200000AEB8000D0F868122144C0F86812DAF87E
:105210000000816941F010018161059D07F0DCFB10
:105220000003CDF820A040F10381DAF8000007F078
:10523000AFFB002800F0FC8006460AF51D784FF40D
:1052400030644FF0000B0AF29C40079009E000BF69
:105250000BF1010B760804F1200408F1240800F09A
:10526000E780F007F4D05FFA8BF9DAF800004946DE
:1052700007F0AAFB8246C0076DD028190121816082
:10528000089F38682118036C8A68BF79012F29D1DB
:1052900017073BD497065BD412F0280F059D5AD10F
:1052A00043F20B07C4F65477BB4202D312F4004218
:1052B0004AD1D8F8002009696FF3DF41BBF1000F34
:1052C000A2EB0101059D48F80C1C19D1089BD3F8ED
:1052D0006422002A00F0A680D3F860020844C3F8D4
:1052E00060020DE043F20B07C4F65477FF37BB4270
:1052F0001AD1100428D49006059D01D5202088607D
:1053000008984946FFF7ECFD25E000BF43F20B008B
:10531000059DC4F6547083421DD312F400401AD088
:105320004FF40040886016E0BBF1000F07D10899E8
:10533000D1F8641219B90021079A07F089F8089882
:105340004946FFF7CDFD05E04FF4004001E000BF06
:1053500020208860059D5FEA0A7025D5281908215C
:10536000816043F20B010898C4F654714F1E006827
:10537000056C2044BD42816805D911F400411CBF71
:105380004FF400418160089800F08AFDBD42059D00
:105390000AD908988079012806D108980121079A2E
:1053A000006807F055F800BF5FEACA600CD45FEAF6
:1053B0008A700FD45FEA8A6025D45FEA8A40DDF8FC
:1053C00020A07FF545AF27E02819102181605FEA12
:1053D0008A70EFD56869000604D50499486840F4DE
:1053E0008060486018F81D0C012806D1002008F8DC
:1053F0001D0C0898494600F09BFB2819022181608A
:105400005FEA8A60D9D52819202181605FEA8A4045
:10541000DDF820A07FF51CAF28194FF40051816002
:1054200016E700BF0121079A07F012F868E700BFEE
:10543000DAF80000AB4607F0CFFA400340F1E08015
:10544000DAF8000007F09CFA002800F0D980064640
:1054500000270BF5106003900AF29C40029004E0D4
:10546000760807F1010700F0CB80F007F8D0F9B219
:10547000DAF80000079107F093FA0446C007039D8D
:105480000AD1200734D4E00638D460063CD4A00703
:1054900040D42006E4D556E0049B07F00F004FF0FF
:1054A000010C05EB47120CFA00F0596B21EA0000E1
:1054B0005863C2F808C09AF80600012812D107EB19
:1054C000C7000AEB8000D0E90712114401624FB90E
:1054D000DAF8240030B9DAF800000121029A06F067
:1054E000B7FF00BF50460799FFF7EEFC2007CAD56B
:1054F00005EB471008218160E006C6D505EB471093
:10550000102181606006C2D505EB47104021816003
:10551000A007BED55846394607F0BEF907EBC700CD
:105520000AEB800010F8171F012905D10021017036
:105530005046079900F0F8FA05EB47100221816008
:1055400020067FF58DAF07EBC7000AEB800291467E
:1055500059F8241FC84658F8040F8142FFF480AF61
:105560009346DAF800400B1A5BF81C5FAB4238BF79
:105570001D4604EB4713069405F1030CD3F81859A4
:10558000ADB2B5EB9C0F29D303F5106A02F12005EB
:10559000D9F8001081421FD9081A0899DBF8004099
:1055A000A0428A7938BF044629680092A3B2DDE997
:1055B000060207F0C5FC2868E11C20442860D8F8E2
:1055C00000002044C8F80000DAF8182092B2B2EBCC
:1055D000910FDDD2D9F80010DDF820A0DDF814B06D
:1055E00081423FF63DAF069A07F00F00012101FA14
:1055F00000F0D2F8341821EA0000C2F834082FE78E
:10560000DAF8000007F0E8F900281DD4DAF8000005
:1056100007F0E2F9000536D4DAF8000007F0DCF90B
:10562000000141D4DAF8000007F0D6F9C0044DD4E7
:10563000DAF80000DDF8108007F0CEF98004DAF81F
:10564000000000F1688181E10499486820F00100C0
:1056500048609AF8CC04012808D100208AF8CC04CC
:1056600000215046FFF794FB03E000BF504600F0D6
:10567000FBFBDAF80000416901F00041416107F0ED
:10568000ABF90005C8D504988068C00702D0504621
:1056900000F02EFCDAF80000416901F4006141617C
:1056A00007F09AF90001BDD5DAF80000416901F070
:1056B000006141619AF8CC1411B3504600F018FC17
:1056C000DAF8000007F088F9C004B1D504994868F9
:1056D00020F001004860DAF80000102107F0DCF843
:1056E0009AF80400010600F0DB804FF0FF3100F073
:1056F000030C51FA80F1032916D2002182E000BF89
:1057000001218AF8CC14406D0121C0F38300CAF84E
:10571000D0045046FFF73CFBDAF8000007F05CF9D4
:10572000C0047FF585AFD1E7C0B24FF6A05800F0B6
:10573000FC0E4FF6C0554FF6E0544FF600600BF5E7
:10574000366300214FF67F37CFF6FF78CFF6FF752F
:10575000CFF6FF74CFF6FF70A3F51872A3F510769D
:10576000043197608E4553F8082022F4001243F864
:10577000082043F8587C53F8602C22F4001243F8B8
:10578000602C53F8602C42F0006243F8602CB76044
:10579000A3F508765A5922F400125A5143F8387C7E
:1057A00053F8402C22F4001243F8402C53F8402CBC
:1057B00042F0006243F8402CB760A3F500761A5916
:1057C00022F400121A5143F8187C53F8202C22F4CA
:1057D000001243F8202C53F8202C42F0006243F8CA
:1057E000202CB7601A5822F400121A509F601A68D1
:1057F00022F400121A601A6842F000621A6003F183
:105800008003A9D1BCF1000F059849D000F51062C2
:1058100000F5306002EB41174FF67F334E01BCF1CB
:10582000010FBB6000EB4115975927F40017975102
:10583000AB60875927F400178751875947F00067F5
:1058400087512DD04F1CBCF1020F4FEA471502EBD8
:10585000471600EB4717B360565926F40016565109
:10586000BB60435923F400134351435943F0006391
:10587000435115D002314FF67F364F0102EB4113F1
:1058800000EB41119E60D35923F40013D3518E6075
:10589000C15921F40011C151C15941F00061C151F8
:1058A000DDF81080D8F81C0040F00110C8F81C008A
:1058B0009AF80F0040B1D8F8840040F00B00C8F807
:1058C000840008F1440008E0D8F8140042F22B01EB
:1058D0000843C8F8140008F1100001680AF29C425D
:1058E00041F00B010160D8F8000020F4FE60C8F818
:1058F00000009AF80610DAF8000006F0A9FDDAF8C0
:105900000000416901F48051416107F065F88004AD
:10591000DAF800001AD506F0ABF9DAF8000007F063
:105920001BF88AF80700DAF8004001F029FB9AF822
:1059300007200146204607F073FA504600F07CFA33
:10594000DAF80000416901F40051416107F044F8C0
:10595000000707D4DAF8000007F03EF800060ED47E
:1059600036E000BF504600F083FADAF800004169E3
:1059700001F00801416107F02FF8000628D50599CC
:10598000886920F0800088619AF8040002281FD3FB
:10599000012440F27B2503E001342435844217D2F0
:1059A0001AF805100129F7D104F00F00220600EBC8
:1059B000C0000AEB800000F1140158BF00F515711A
:1059C000DAF8000006F0D8FE9AF80400E4E700BF19
:1059D000DAF8000007F000F8C0024FD4DAF800004F
:1059E00006F0FAFF8002059D40F17E809AF80410CF
:1059F000022929D305F5326001390AF51F72012306
:105A000006E000BF013900F1200002F124021BD0A2
:105A100007681678012EF5D1B7F1FF3FF2DCDAF80E
:105A2000D46486EA1747FF07ECD102F8013CAF695E
:105A300047F08007AF616F693F06E3D4D8F80400F0
:105A400040F40070C8F80400DAF80000416901F47D
:105A50000011416106F0C0FF40004BD55046FFF7F2
:105A60002FFADAF80000416901F08041416106F047
:105A7000B3FF400745D4FFF770BB00BF9AF804009E
:105A8000022825D305990AF13C0501F51264012687
:105A9000012705E001372034874205F1240517D29C
:105AA00021682A78012AF5D1B1F1FF3FF2DC07F035
:105AB0000F0005F8016C00EBC0000AEB800000F15C
:105AC0001401DAF8000006F057FE9AF80400E1E746
:105AD000DAF80000416901F48011416106F07CFFB1
