:020000040800F2
:100000004856002459040008897A00082977000816
:10001000817A0008F11B0008498D000800000000EB
:10002000000000000000000000000000517D0008FA
:100030003920000800000000917A0008817D000846
:1000400077040008770400087704000877040008A4
:100050007704000877040008770400087704000894
:10006000770400087704000877040008F91B0008EB
:100070007704000877040008770400087704000874
:10008000770400087704000877040008812000083E
:10009000912000087704000877040008770400081E
:1000A0007704000877040008770400087704000844
:1000B0007704000877040008797E000877040008B8
:1000C0007704000877040008770400087704000824
:1000D00077040008398D00087704000877040008C9
:1000E0007704000877040008000000007704000887
:1000F000997E000877040008770400087704000858
:1001000077040008770400087704000877040008E3
:100110007704000877040008897E00087704000847
:1001200077040008770400087704000877040008C3
:1001300077040008770400087704000877040008B3
:1001400000000000000000000000000000000000AF
:100150007704000877040008770400087704000893
:100160007704000877040008770400087704000883
:1001700077040008770400087704000800000000F6
:100180007704000877040008770400087704000863
:100190007704000877040008770400087704000853
:1001A00077040008770400087704000800000000C6
:1001B0007704000877040008770400087704000833
:1001C0007704000877040008000000000000000029
:1001D000000000000000000077040008000000009C
:1001E000000000000000000000000000000000000F
:1001F00000000000000000007704000877040008F9
:100200007704000877040008000000007704000865
:1002100077040008770400087704000877040008D2
:1002200077040008000000007704000800000000C8
:100230007704000877040008000000007704000835
:1002400077040008770400087704000877040008A2
:100250007704000877040008770400087704000892
:100260007704000877040008770400087704000882
:1002700077040008770400087704000800000000F5
:100280007704000877040008770400087704000862
:100290000000000077040008770400080000000058
:1002A00000000000770400087704000877040008C5
:1002B000770400087704000877040008A1200008EC
:1002C00077040008770400087704000800F002F8BB
:1002D00000F0B3F814A696E8000CB244B344DA4533
:1002E00001D100F0AAF8BAE80F000FA696E8300096
:1002F000A5EB040504EB0607AAEB0704A7F1010729
:100300004FEA15154FEA3414A4F10104AC4201D3AD
:1003100000F093F813F0010F18BFFB1A43F001032C
:1003200000F001F8DBE71847C0D60000E0D6000077
:10033000103A24BF78C878C1FAD8520724BF30C811
:1003400030C144BF04680C60704700007047000073
:100350000023002400250026103A28BF78C1FBD8CE
:10036000520728BF30C148BF0B6070476E2900F0AC
:10037000DF82702900F0238466290DF08D816529C4
:100380000DF08A8167290DF0878161290DF0868142
:1003900003681B0A28BF41F08001692900F08C82A4
:1003A000642900F08982752900F086826F2900F0A7
:1003B000B183782900F0EF83E92900F04B83E42929
:1003C00000F04883F52900F04583EF2900F0AE8363
:1003D000F82900F0EE830368DB0928BF41F08001B3
:1003E000632901F0A181732901F0A681E32901F0BD
:1003F000B181F32901F0B681002070471FB50DF0DF
:10040000C4F89DE8030000F025FD01F04FFA040058
:10041000002000210CF0FCFF401C60600020002147
:100420000CF0E0FFE06001F003FA00F06BF91FBD93
:1004300010B5002001F0CAF910BD01F009FA11460B
:10044000FFF7DCFF09F004FF01F000FB03B4FFF746
:10045000EFFF03BC01F0F2F90A4880470A488047E1
:100460000A480047FEE7FEE7FEE7FEE7FEE7FEE795
:10047000FEE7FEE7FEE7FEE705480649064A074BAA
:100480007047000051200008A17D0008CD0200083F
:100490004850002448560024485200244852002462
:1004A00053EA020C00F069802DE9F04B4FF0000692
:1004B000002B1FBFB3FA83F503FA05F424FA05F6FF
:1004C0005E4012BF1643B2FA82F502FA05F4C5F196
:1004D00020051EBF22FA05FC44EA0C04203556EA2A
:1004E000044C4FEA144418BF641C4FF000084FF04E
:1004F0000009904271EB030C39D3002919BFB1FAFE
:1005000081F701FA07F6B0FA80F700FA07F6C7F1AB
:1005100020071EBF20FA07FC46EA0C062037B6FB70
:10052000F4FCA7EB0507103F07F01F0BCBF12006EB
:100530002CFA06F60CFA0BFB44BFB3460026202F1C
:10054000A4BF5E464FF0000B5BEA060C08BF4FF0FD
:10055000010B19EB0B0948EB0608ABFB027C06FB11
:1005600002CC0BFB03CCC01B71EB0C01C1E70B46AB
:10057000024641464846BDE8F08B13B5084318BF14
:100580004FF0FF300146AFF30080BDE81C407047DC
:100590007CB51D4616460C00009007D04142A14292
:1005A00002D32044401E01E04FF0FF30064B7B4455
:1005B0002A4669460190304600F0D3F9002C02D05B
:1005C000009A002111707CBDD70300000B46014644
:1005D000184600F0C3BB10B5431C02E010F8011B25
:1005E00071B18107FAD14FF0013202C88C1A8C43E5
:1005F00014EAC211F9D0C01A0A0603D0C01E10BDF9
:10060000C01A10BD0A0401D0801E10BD0902FCD022
:10061000401E10BD032A40F2308010F0030C00F0A1
:10062000158011F8013BBCF1020F624498BF11F82C
:1006300001CB00F8013B38BF11F8013BA2F10402E5
:1006400098BF00F801CB38BF00F8013B11F003035D
:1006500000F0A883083AC0F0088051F8043B083A3B
:1006600051F804CBA0E80810F5E7121D5CBF51F863
:10067000043B40F8043BAFF30080D20724BF11F8DD
:10068000013B11F801CB48BF11F8012B24BF00F842
:10069000013B00F801CB48BF00F8012B704702F086
:1006A000FF0343EA032242EA024200F002B84FF09D
:1006B000000200B5134694469646203922BFA0E8B2
:1006C0000C50A0E80C50B1F12001BFF4F7AF0907BE
:1006D00028BFA0E80C5048BF0CC05DF804EB8900AF
:1006E00028BF40F8042B08BF704748BF20F8022BF2
:1006F00011F0804F18BF00F8012B7047704770470A
:100700007047000008487CB578440090074878445A
:10071000009C0546019004E020460168084480479B
:10072000241DAC42F8D17CBD28D4000026D40000A2
:1007300070B5064600F06AFB056806F10B0020F074
:100740000704B4429CBF002070BD2B466A68BAB152
:100750001068A04210D304F1080188423CBF5068E1
:10076000586007D35168101941601168091B016076
:1007700058601460101D70BD13465268002AE7D1FE
:100780002146284600F052FB0028DED170BD70B52E
:100790000446051F00F03AFB0068002C14BF4468B3
:1007A00070BD002C18BFAC423CBF20466468F8D333
:1007B00001680A18AA4218BF456003D12A68054695
:1007C0001144016028684119A1421CBF6C6070BDD2
:1007D0006168696021680844286070BD10B500F048
:1007E0001DFB006810BD10B5044600F017FB046047
:1007F00010BD70B5044685690068C10601D5302674
:1008000000E02026C00707D070BDD4E901213046A2
:100810009047206A401C20626D1EF6D570BD70B5F1
:10082000044685690078C00707D170BDD4E901216D
:1008300020209047206A401C20626D1EF6D570BDB6
:1008400009684A0501D540B27047C905FCD500B218
:10085000704709684A0501D5C0B27047C905FCD583
:1008600080B2704770B50C460546012A05D028783D
:10087000800600D5EA69002302E0012305E05B1C45
:10088000934202D2E05C0028F9D1A869E618C01AA8
:10089000A861286A184428622846FFF7AAFF04E0E6
:1008A000D5E9012114F8010B9047B442F8D328464A
:1008B000FFF7B5FF70BD00002DE9F04106460024AA
:1008C00010687529314616A510D0FFF7B9FF00282A
:1008D00002DA404213A507E031688A0701D512A564
:1008E00002E0490704D511A5012401E0FFF7B1FF9B
:1008F00000210A2206F1240709E0B0FBF2FCB0FB5C
:10090000F2F302FB1C00303078541846491C0028D2
:10091000F3D123462A463046BDE8F04100F014BB2F
:10092000000000002D0000002B000000200000004F
:1009300011680268006A530501D508700AE0D30502
:1009400001D5088006E0130603D5C217C1E90002ED
:1009500000E008600120704701694A1C02610878C4
:10096000704700B58FB0CDE90131002105910549EF
:100970007944CDE903101146684600F02BF90FB019
:1009800000BD0000E5FFFFFFD1E900239A4202D23B
:10099000531C0B60107070472DE9FF5F15468A46A7
:1009A0000446DFF8AC80F8440027D8E900103E4642
:1009B000CDE9001010E03AF816106A4602A800F0DF
:1009C000D5FE411C07D02178890603D5E269391884
:1009D00091420DD80744761C2078800602D5E06944
:1009E000B84205DDAE42E6DB3AF816000028E2D157
:1009F000A069C01BA0612046FFF7FBFED8E90010EC
:100A0000CDE90010002017E03AF818106A4602A855
:100A100000F0ACFEB0F1FF3F81460BD000250DF198
:100A2000080B05E0D4E901211BF8050090476D1C77
:100A30004D45F7D308F10100B0428046E4DB206A5F
:100A4000384420622046FFF7EAFEBDE8FF9F000021
:100A5000F6CC00002DE9F0418046D21D22F00702BD
:100A60000025D2E90002F52915A614D0011E72F165
:100A7000000106DA0023D0EB030063EB020211A6AB
:100A800008E0D8F800108B0701D50FA602E049074F
:100A900001D50EA601251146002408F1240704E023
:100AA00000F00DFA30323A55641C50EA0102F7D1D9
:100AB0002B46324621464046BDE8F04100F044BA9C
:100AC000000000002D0000002B00000020000000AE
:100AD00030B4002100F1240408E002F00705D20838
:100AE000303542EA4372DB086554491C52EA03057B
:100AF000F3D10468002310A2250708D504F02004D0
:100B00000C4304D0C46901230CA2641EC46130BC30
:100B100000F01ABA10B5044621461068FFF799FE96
:100B200002462046BDE810400023D1E7D21D22F046
:100B30000701D1E90023CBE70000000030000000EE
:100B4000F0B40D460188090502D5214C7C4402E031
:100B50001F4C7C440E34002100F1240608E002F012
:100B60000F071209E75D42EA03721B097754491C1B
:100B700052EA0307F3D102780023120704D5702D3F
:100B800006D009B1022311342246F0BC00F0DCB9D2
:100B900001231034F8E770B504460D46214610686D
:100BA000FFF757FE024629462046BDE87040002365
:100BB000C6E7D21D22F00703D3E90023C0E703688C
:100BC000126843F0200303600823C3610023B7E7E2
:100BD00058CB00002DE9F05F894604464FF0000A2B
:100BE000DFF874B1FB44C0F820A02046E1688847D4
:100BF000002874D0252806D0D4E901219047206A26
:100C0000401C2062F1E700265F462046E1688847E5
:100C10002028054607DB312D05D2781910F8200C65
:100C200008B10643F1E7B00701D526F00406C4F881
:100C30001CA00027C4F818A02A2D09D028460CF0C3
:100C4000C9FB38B304EB8708303DC8F8185019E0E9
:100C500059F8041B204604EB87029161E16888473C
:100C6000012F054618D1E069002820DA26F0200679
:100C70001DE0D8F8180000EB800005EB400030388C
:100C8000C8F818002046E168884705460CF0A2FB2A
:100C90000028EED1012F0AD02E2D08D12046E16880
:100CA00088477F1C0546022F46F02006C4DBA0695A
:100CB000002803DA404246F00106A061F00701D0A7
:100CC00026F010066C2D0BD0682D09D04C2D39D094
:100CD0006A2D35D0742D35D07A2D33D016E038E01A
:100CE000E1682F4620468847B842054609D16C2F57
:100CF00026D04FF48060E1680643204688470546C9
:100D000004E06C2F1AD04FF4807006430DB3A5F1A8
:100D10004100192802D8203546F400664A46294683
:100D2000204626604E46FFF721FB80B101280BD0FC
:100D3000F61D26F0070000F1080956E74020E4E719
:100D40008020D8E70020D6E706F104094DE72846C1
:100D500052E7206ABDE8F09FE8CA00002DE9F041A3
:100D6000074615460E461020FFF7E2FC040013D09C
:100D70006760C4E902650948AFF3008000F04AF8F3
:100D80000168216006490460002008600348AFF351
:100D900000800020BDE8F0810120FBE70400002472
:100DA0000000002410B5203AC0F00B80B1E81850C4
:100DB000A0E81850B1E81850A0E81850203ABFF445
:100DC000F5AF5FEA027C24BFB1E81850A0E81850E4
:100DD00044BF18C918C0BDE810405FEA827C24BF38
:100DE00051F8043B40F8043B08BF7047D20728BFC6
:100DF00031F8023B48BF11F8012B28BF20F8023B15
:100E000048BF00F8012B704700207047004870472A
:100E1000D8000024004870470801002400487047AB
:100E2000D0000024704770477047704738B50446BB
:100E30000A4600206946AFF30080002808BF38BD8D
:100E400002460099204600F035FD012038BD012002
:100E500000F00CBEF8B5AFF30080054600200C464C
:100E60000C2000BF0646A819A0420DD9324669469B
:100E70000020AFF30080070008BF00F0F7FD0098E6
:100E8000A04218BF0546C419FFF7C0FF056007461A
:100E9000F01D20F007004619284600F00AF8B44279
:100EA00008BFF8BDA21B31463868BDE8F84000F025
:100EB00001BD00210160416070470C20704730B5D2
:100EC000B0F10A0271F100034FEA900E4EEA817E02
:100ED000B0EB0E0061EB91014FEA101E4EEA017E6D
:100EE00010EB0E0041EB11114FEA102E4EEA016E8D
:100EF00010EB0E0041EB11214FEA104E4EEA014E6D
:100F000010EB0E0041EB1141401841F100014FEA96
:100F1000D00040EA41704FEAD1014FEA810444EA2F
:100F2000907410EB800544EB01046D1944EB04044C
:100F3000521BA3414FF0000348BF0A3200D530BD19
:100F4000401C41F1000130BD2DE9F0470D469946A6
:100F50009246044600F124080168880604D5E06939
:100F600021F01001216000E00120A84201DD471BB3
:100F700000E00027A1697A1902EB0900081AA061B4
:100F80002078C00602D42046FFF733FC002608E094
:100F9000D4E901211AF806009047206A401C761C0B
:100FA00020624E45F4DB2078C0060AD52046FFF7C4
:100FB00020FC06E0D4E9012130209047206A401C43
:100FC0002062381EA7F10107F4DC07E0D4E9012113
:100FD00018F805009047206A401C2062281EA5F1E1
:100FE0000105F3DC2046FFF71AFC2078000602D545
:100FF0000220BDE8F0870120FBE72DE9FF4F0C46FA
:101000001E464FF0FF378BB0D2E90001DDF860805B
:101010000A908A46C1F30A5505B93D4600210846A3
:101020004FF00000BAF1000F00F4400005DA00EBC9
:1010300080004FF4400101EA50004FEA9059B9F1A5
:10104000010F00DDB9460A9850EA4A000ED044F676
:101050001050A5F2FF3545432F14B8F1000F1ED0F4
:101060007542291E1EDDC9F100021CE0B8F1010F16
:101070004FF0000001D0302103E0F24305E021549D
:10108000401CB042FBDB30460022002121540B996A
:10109000C1F80880C1E900200FB0BDE8F08FBD1B8A
:1010A0006D1CDEE74A4600DA694206A800F05CFCE7
:1010B00006AB93E8070003AB83E8070050460A99A4
:1010C0000BF048FD8DE80700A0F500501F38009098
:1010D0000398002D0ADD42F21F014A46084400230E
:1010E00003A9039068460BF0B1FF09E0A0F500509A
:1010F0004A461F38002303A9039068460BF0BBFF44
:101100008DE807000004000C03D04FF0FF304108C9
:1011100000E01046B8F1000F03D0002200921546FF
:101120001EE0751E05D4FFF7CAFE303262556D1EF3
:10113000F9D5B3460122084302D000227F1C04E007
:101140002078302801D100227F1E002A099784D000
:101150001DE0112D07DAFFF7B2FE303262556D1C2B
:1011600050EA0102F5D1084302D00098C8B10EE060
:101170000021681E05E0235C625C63542254401E1B
:10118000491C8142F7DBAB46A81B401E099000209A
:1011900004F80B000B98099AC0F80880C0E9002BEE
:1011A0007AE711264FF0000857E72DE9F04F8846FF
:1011B0000446D21D22F0070191B0D1E90001CDE92A
:1011C0000A010CF08FF802460B98C00F01D02D20B9
:1011D00007E02068810701D52B2002E0202101EAE9
:1011E000C000032A099001D0072A05DB03464146C7
:1011F000204600F079FB0BE12078800601D5E069FC
:1012000000E00620B8F1650F814606D0B8F1660F00
:1012100018D0B8F1670F70D131E00020B9F1110F8B
:10122000009001DB112301E009F101030AAA01A9E1
:101230000CA8FFF7E2FEDDE90C70002609F10105BC
:10124000834647E001204B4600904FF000470AAA32
:1012500001A90CA8FFF7D1FEDDE90DB00C995D46A0
:10126000002610B909F101000D18B9EB050003D4EF
:10127000C0F1FF3609F10105A5EB09002BE0B9F13A
:10128000010F01DA4FF001090020B9F1110F0090B0
:10129000484601DD112300E003460AAA01A90CA873
:1012A000FFF7ABFEDDE90C704D4600268346207843
:1012B00000070AD4AB4500DA5D4601A8012D04DD24
:1012C000411911F8011C302907D04F4502DA17F1F6
:1012D000040F04DA012082460FE06D1EEEE7002FB6
:1012E00002DCED1B3E4403E0781CA84200DD7D1CBF
:1012F000B81B00F1010A4FF000472078000703D423
:10130000AA4501DB4FF0FF3A0021B7F1004F0DF184
:1013100043088DF8431024D002202B23002F01DA3C
:101320007F422D230A21021EA0F1010000DC5FB1E3
:1013300097FBF1FC97FBF1F201FB1C7C17460CF1CB
:10134000300C08F801CDEEE7A8F101000370218808
:10135000090501D5452100E06521A0F1010800F84B
:10136000011C09980FA9A1EB0807FF1D00B101207E
:10137000411901EBEA70A1693844081A401EA061C6
:101380002078C00602D42046FFF733FA099828B126
:10139000D4E901219047206A401C20622078C006D1
:1013A00022D52046FFF725FA1EE0002E04DBB345C8
:1013B00002DD01A8805D00E03020D4E901219047E2
:1013C000206A401C2062761CAAF101005FEA000A34
:1013D0000AD100F06BFAC0680168405CD4E90121D1
:1013E0009047206A401C2062281EA5F10105DCDC24
:1013F00007E0D4E9012118F8010B9047206A401C4E
:101400002062381EA7F10107F3DC2046FFF707FA38
:10141000032011B041E600002DE9F04F04460D46CF
:10142000D21D22F0070089B0D0E90097484639461E
:101430000BF058FF0246F80F01D02D2307E020687B
:10144000810701D52B2302E0202101EAC0038DF89A
:1014500020300BB1012000E00020032A824601D099
:10146000072A04DB2946204600F03EFA3FE12078B7
:10147000800601D40D2500E0E569C7F30A560D2D5D
:1014800049DA00214FEA175B08464FF00000002FB1
:1014900000F4400007DA00EB80004FF4400100EB5D
:1014A000D07001EA60008115012901DD4FF0FF31A4
:1014B00000224FEA850CBCF1180F06D31346ACF19D
:1014C00018004FF08052C24003E04FF4801323FA1B
:1014D0000CF30CF10C0CBCF1200F04D3ACF1200C7C
:1014E00009FA0CF001E007FA0CF000294FF000486F
:1014F00001DD18B90FE00ED140450CD319EB0209FC
:101500005F4121B9404502D19F4329EA0209BBEB63
:10151000175F00D0761C2088000502D57B487844F0
:1015200002E07A487844193808AA302302F80A30D1
:10153000037C0AF10101002E0AF1020A53546A46A3
:1015400002DC4FF0300101E04FF031014FF00108B3
:101550008DF8001002D0A6F2FF3603E059EA4701E9
:1015600000D06B4E002D02DC2178090704D54FF026
:1015700002082E218DF80110C44600210BE0C7F3AC
:1015800003433F01C35C491C6D1E02F80830052966
:1015900008F1010801DA002DF1DC00210CE000EB7C
:1015A0001973491C1B786D1E082902F808304FEA90
:1015B000091908F1010801DA002DF0DC21688B0619
:1015C00002D516E0A8F10108E04505DD02EB0803AD
:1015D00013F8013C302BF5D0B8F1000F09DD02EB18
:1015E000080313F8013C2E2B03D1090701D4A8F1FD
:1015F0000108002D05DD3E2102F808106D1E08F1DE
:101600000108407C002E02F8080008F1010804DA05
:101610002D20764202F8080002E02B2002F8080094
:101620000A214FF47A70864208F101080BDB96FB21
:10163000F0F3303302F8083096FBF0F308F10108BC
:1016400000FB136601E0642E0CDB642096FBF0F3D4
:10165000303302F8083096FBF0F308F1010800FB84
:10166000136601E00A2E06DB96FBF1F0303002F83B
:10167000080008F1010896FBF1F001FB1060303022
:1016800002F80800A16908F1010808EB050202EB65
:101690000A00081AA0612078C00602D42046FFF78D
:1016A000A8F8216A08AE01EB0A00206204E0D4E940
:1016B000012116F8010B9047BAF1010AF7D2207800
:1016C000C00602D52046FFF794F86E4609E016F8EA
:1016D000010B3E280FD0D4E901219047206A401C1D
:1016E0002062B8F10108F2D22046FFF798F809B05D
:1016F0000320BDE8F08F206A2844206203E0D4E98B
:101700000121302090476D1EEBD3F8E7D2C10000D5
:1017100002FCFFFF10B5436913B1AFF3008001E095
:10172000FFF7A0F8012010BD127800F124010A7023
:1017300000224A700122EDE711684FF0FF32E9E71D
:1017400010B5436913B1AFF3008001E0FFF724F94E
:10175000012010BD128800F1240182840022C2847D
:101760000122EDE711684FF0FF32E9E72DE9F04182
:1017700016460C46054600F091F8036893F80101FF
:10178000012807D0FF2C12D8185D80B101202C70E1
:10179000BDE8F081D3F807013246214603F2071372
:1017A000C7182846BC46BDE8F041002360474FF00B
:1017B000FF30EDE710B5002000F051F9FEF738FEDC
:1017C000BDE81040012000F039B800002DE9F843D1
:1017D00006461548AFF30080FFF71CFB134F814608
:1017E000E8464D4616E026B1E068B04201D02546F5
:1017F00010E0206828600C48C7F80080AFF3008034
:10180000D4E9010188470848AFF3008039684145B1
:1018100000D04D462C68002CE5D1002038600248ED
:10182000AFF30080BDE8F88304000024000000242A
:101830000148FFF7E9BA000004000024014918201C
:10184000ABBEFEE72600020000487047D00000242F
:101850007546FFF7F9FFAE4605006946534620F08E
:101860000700854618B020B5FEF706FEBDE820400B
:101870004FF000064FF000074FF000084FF0000B4C
:10188000AC46ACE8C009ACE8C009ACE8C009ACE8BB
:10189000C00921F007018D467047000010B500F027
:1018A00005F8001D10BD00BF69BB0000004870476F
:1018B000F0000024034640688C46002818BF884288
:1018C0003CBF03464068F8D318681844884207D0E4
:1018D0000CF1030020F00700001D411A521A0146C6
:1018E000081D0A60FEF753BF2DE9F0411F4604466C
:1018F00003260168072A01F4006004DB08B116A57D
:1019000005E016A503E008B115A500E015A521F036
:1019100010002060A069C01EA0610FB1401EA06130
:101920002046FEF766FF4FB1D4E9012138469047C3
:10193000206A401C2062C01C206206E0206AFAE790
:10194000D4E9012115F8010B9047761EF8D2204604
:10195000FEF765FFBDE8F0814E414E006E616E00FE
:10196000494E4600696E66002DE9F04781461646ED
:101970008AB0354878440DC88DE80D003248784467
:10198000801C03AC0DC884E80D0041F69B30084470
:10199000372190FBF1F290FBF1F5A5F1800501FBF9
:1019A00012041B3C02D56442012000E00020DFF855
:1019B00098A080460027FA44AAF1BE0A0EE0E0078C
:1019C0000AD03246684607EB470101230AEB810142
:1019D0000BF051FB8DE8070064107F1C002CEED14A
:1019E000194F7F44AE3F19E0E80715D007EB04100C
:1019F0000DF1180A90E80E008AE80E00C068F04267
:101A000001D1981908903246012306A903A80BF0CA
:101A100032FB03AB83E807006D10641C002DE3D19B
:101A20004FF0010332466946B8F1000F03A802D017
:101A30000BF00CFB01E00BF01EFBC9E90001C9F83B
:101A400008200AB0BDE8F0870CBE000010B50446BF
:101A5000AFF300802046BDE81040FEF7F7BC10B59C
:101A600000F012F8BDE8104000F008B810B500F022
:101A700023F8BDE8104000F001B87047002801D0FD
:101A8000FFF7DCBE7047000010B5002102A000F097
:101A900079F8012010BD0000534947414252543AA1
:101AA0002041626E6F726D616C207465726D696E3B
:101AB0006174696F6E00000010B5012805D0002127
:101AC00003A000F05FF8012010BD09A1F8E70000B5
:101AD00053494752544D454D3A204F7574206F6617
:101AE0002068656170206D656D6F7279000000007F
:101AF0003A2048656170206D656D6F727920636F63
:101B0000727275707465640030B44FF0013C50F827
:101B1000042BCCFA52F451F8043BD51A20D1FCB96D
:101B200050F8042BCCFA52F451F8043BD51A17D1D3
:101B3000B4B950F8042BCCFA52F451F8043BD51A3E
:101B40000ED16CB950F8042BCCFA52F451F8043B86
:101B5000D51A05D1002CDAD030BC4FF00000704708
:101B600029BAB1FA81F111F01801D1F120008440B5
:101B7000F2D1CA40CB4012F0FF0213F0FF0330BC99
:101B8000D01A704770B505460C460A2000E06D1C5F
:101B900000F011F835B128780028F8D102E0641C73
:101BA00000F009F814B120780028F8D1BDE87040A1
:101BB0000A20AFF3008008B569468DF800000320C5
:101BC000ABBE08BD0000000080B540F25000C2F27C
:101BD000004007F0D5FA08F0CBF940F28051C2F28C
:101BE0000041BDE8804008F003BA0000000000009A
:101BF000FEE700000000000040F22830C2F2004082
:101C000000F046BE0000000040F20F42D0F800C0D5
:101C1000C4F20202944511DC6F22C4F20202944520
:101C200022DC3F22C4F20202944539DC1022C4F2C5
:101C3000020294455AD0282254E000BF40F26F427D
:101C4000C4F2020294451BDC40F23F42C4F202029D
:101C500094452DDC40F21042C4F20202944545D076
:101C600040F228423EE000BF9F22C4F202029445A7
:101C700028DC7022C4F20202944537D0882231E079
:101C800040F29F42C4F20202944523DC40F27042CB
:101C9000C4F20202944529D040F2884222E000BFFB
:101CA0004022C4F20202944520D058221AE000BF1C
:101CB00040F24042C4F20202944517D040F258422A
:101CC00010E000BFA022C4F2020294450ED0B82258
:101CD00008E000BF40F2B842C4F20202944505D0C9
:101CE00040F2A042C4F20202944517D10CF0F8026F
:101CF0004AF6AB23103ACAF6AA23A2FB03310AA381
:101D00005F2AC1F302115B5C40F2FF312CEA010152
:101D1000C36588BF04318165084670472CF0FF0118
:101D200081650846704700BF0006101600061016B1
:101D300070B540F26F44D0F800C0C4F20204D0F88D
:101D400058E0A4451ADC9F25C4F20205AC4533DCFB
:101D50005725C4F20205AC455ADC1025C4F2020531
:101D6000AC4500F098802825C4F20205AC4500F08F
:101D700092804025C4F202058AE000BF45F22F455B
:101D8000C5F60205AC452DDC40F2B745C4F20205AC
:101D9000AC454BDC40F27045C4F20205AC457AD04C
:101DA00040F28845C4F20205AC4574D040F2A0452B
:101DB000C4F202056CE000BF40F22745C4F2020500
:101DC000AC4543DCA025C4F20205AC4563D0B82580
:101DD000C4F20205AC455ED040F21045C4F20205E3
:101DE00056E000BF45F26B45C5F60205AC453FDC49
:101DF00045F23045C5F60205AC454CD045F24445A8
:101E0000C5F60205AC4546D045F258453EE000BF58
:101E10005825C4F20205AC453DD07025C4F2020538
:101E2000AC4538D08825C4F2020531E040F2B8450F
:101E3000C4F20205AC452ED045F20845C5F60205B0
:101E4000AC4528D045F21C4520E000BF40F22845B3
:101E5000C4F20205AC451ED040F24045C4F2020572
:101E6000AC4518D040F25845C4F2020510E000BF5E
:101E700045F26C45C5F60205AC450CD045F29445DB
:101E8000C5F60205AC4506D045F28045C5F602050B
:101E9000AC4540F0D080456EC66E002E866E6E60FA
:101EA0001CBFD0E91C566E60A44515DC9F24C4F20B
:101EB0000204A4452CDC5724C4F20204A44551DCDE
:101EC0001024C4F20204A4457AD02824C4F20204E7
:101ED000A44575D040246FE045F22F44C5F60204B6
:101EE000A44529DC40F2B744C4F20204A44545DC11
:101EF00040F27044C4F20204A44561D040F2884428
:101F0000C4F20204A4455BD040F2A04454E000BFF8
:101F100040F22744C4F20204A4453FDCA024C4F2EA
:101F20000204A4454CD0B824C4F20204A44547D00E
:101F300040F2104440E000BF45F26B44C5F6020495
:101F4000A44555DC45F23044C5F60204A44561D0F1
:101F500045F24444C5F60204A4455BD045F258441A
:101F600054E000BF5824C4F20204A44528D07024D1
:101F7000C4F20204A44523D088241DE040F2B844F2
:101F8000C4F20204A4451BD045F20844C5F602047D
:101F9000A4453FD045F21C4438E000BF40F228443D
:101FA000C4F20204A4450BD040F24044C4F202043F
:101FB000A44505D040F25844C4F20204A4453AD1E5
:101FC0008468C06D00F01F003F2505FA00F0CEF8D0
:101FD0000800DCF80000402C20F48020CCF8000041
:101FE000CCF8043023D1CCF80820CCF80C1070BD0C
:101FF00045F26C44C5F60204A4450BD045F280447A
:10200000C5F60204A44505D045F29444C5F6020481
:10201000A44510D1C46D012504F01F04806805FAA1
:1020200004F4CEF804404028CCF80430DBD0CCF8DF
:102030000810CCF80C2070BD7047000000000000B4
:10204000EFF3108072B600BFFEE700000000000052
:1020500044F60400C5F60200816841F00201816087
:102060000168890409D4016889045CBF01685FEADA
:10207000814102D401688904F2D570470000000054
:1020800040F2A030C2F2004001F042BF0000000068
:1020900040F24040C2F2004001F03ABF00000000B0
:1020A00040F2E040C2F2004001F032BF0000000008
:1020B0002DE9F041044602F0E7FC1CB3054694F814
:1020C0003500022822D140F20F472668C4F20207E9
:1020D00040F26F48BE426FF00E00C4F202081DDCF1
:1020E0006F21C4F202018E422ADC3F21C4F20201B8
:1020F0008E4241DC1021C4F202018E4263D02821BD
:102100005CE000BF0120BDE8F08100BF8020606579
:102110000120002184F83410BDE8F08146451BDC25
:1021200040F23F41C4F202018E422DDC40F21041E8
:10213000C4F202018E4246D040F228413EE000BF88
:102140009F21C4F202018E4228DC7021C4F20201F8
:102150008E4238D0882131E040F29F41C4F2020122
:102160008E4223DC40F27041C4F202018E422AD03A
:1021700040F2884122E000BF4021C4F202018E42B9
:1021800021D058211AE000BF40F24041C4F20201C0
:102190008E4218D040F2584110E000BFA021C4F296
:1021A00002018E420FD0B82108E000BF40F2B841D2
:1021B000C4F202018E4206D040F2A041C4F20201F4
:1021C0008E42314607D13146306820F01E0041F87A
:1021D000140B6FF080000A68464500EA02000860B0
:1021E0001ADC9F20C4F20200864233DC5720C4F27E
:1021F000020086425ADC1020C4F20200864200F03F
:1022000097802820C4F20200864200F0918040208E
:10221000C4F202008AE000BF45F22F40C5F602007A
:1022200086422DDC40F2B740C4F2020086424BDC0D
:1022300040F27040C4F20200864279D040F28840F9
:10224000C4F20200864273D040F2A040C4F2020001
:102250006CE000BF40F22740C4F20200864243DC3B
:10226000A020C4F20200864262D0B820C4F202006C
:1022700086425DD040F21040C4F2020056E000BF3A
:1022800045F26B40C5F6020086423FDC45F2304025
:10229000C5F6020086424BD045F24440C5F6020026
:1022A000864245D045F258403EE000BF5820C4F277
:1022B000020086423CD07020C4F20200864237D031
:1022C0008820C4F2020031E040F2B840C4F20200BB
:1022D00086422DD045F20840C5F60200864227D03E
:1022E00045F21C4020E000BF40F22840C4F202004A
:1022F00086421DD040F24040C4F20200864217D010
:1023000040F25840C4F2020010E000BF45F26C40B9
:10231000C5F6020086420BD045F29440C5F6020095
:10232000864205D045F28040C5F60200864204D1BF
:10233000206E016821F480710160306820F0010096
:10234000306000BF3068C00710D002F09DFB401B1A
:102350000628F7D320206065032084F8350001208B
:10236000002184F83410BDE8F08100BF2068082106
:10237000B8424FF03F0211DC6F23C4F202039842CF
:102380001EDC3F23C4F20203984235DC1023C4F262
:102390000203984257D0282350E000BF40451BDC81
:1023A00040F23F43C4F2020398422DDC40F2104356
:1023B000C4F20203984246D040F228433EE000BFF8
:1023C0009F23C4F20203984228DC7023C4F2020364
:1023D000984238D0882331E040F29F43C4F2020390
:1023E000984223DC40F27043C4F2020398422AD0A0
:1023F00040F2884322E000BF4023C4F20203984227
:1024000021D058231AE000BF40F24043C4F2020337
:10241000984218D040F2584310E000BFA023C4F205
:10242000020398420FD0B82308E000BF40F2A04357
:10243000C4F20203984206D040F2B843C4F2020349
:10244000984240F0C580D4E9163707F01F07404591
:1024500002FA07F25A5019DC9F21C4F202018842A5
:1024600032DC5721C4F20201884259DC1021C4F247
:102470000201884200F096802821C4F202018842BD
:1024800000F090804021C4F2020189E045F22F4122
:10249000C5F6020188422DDC40F2B741C4F20201C8
:1024A00088424BDC40F27041C4F20201884279D08C
:1024B00040F28841C4F20201884273D040F2A04148
:1024C000C4F202016CE000BF40F22741C4F20201F5
:1024D000884243DCA021C4F20201884262D0B821C4
:1024E000C4F2020188425DD040F21041C4F2020100
:1024F00056E000BF45F26B41C5F6020188423FDC61
:1025000045F23041C5F6020188424BD045F24441C4
:10251000C5F60201884245D045F258413EE000BF71
:102520005821C4F2020188423CD07021C4F2020159
:10253000884237D08821C4F2020131E040F2B8412C
:10254000C4F2020188422DD045F20841C5F60201CD
:10255000884227D045F21C4120E000BF40F22841CC
:10256000C4F2020188421DD040F24041C4F202018F
:10257000884217D040F25841C4F2020110E000BF77
:1025800045F26C41C5F6020188420BD045F29441F8
:10259000C5F60201884205D045F28041C5F6020128
:1025A00088420BD1616EA26EE06E4A6030B1016864
:1025B00021F480710160D4E91C014160012084F89C
:1025C00035000020002184F83410BDE8F08100BF00
:1025D0000421012237E70000F0B190F835100229FC
:1025E00018D180B540F20F420168C4F20202914254
:1025F00014DC6F23C4F20203994225DC3F23C4F2AA
:10260000020399423CDC1023C4F2020399425DD0DC
:10261000282357E0802141650120704740F26F4335
:10262000C4F2020399421BDC40F23F43C4F20203AE
:1026300099422DDC40F21043C4F20203994245D086
:1026400040F228433EE000BF9F23C4F202039942B8
:1026500028DC7023C4F20203994237D0882331E08A
:1026600040F29F43C4F20203994223DC40F27043DC
:10267000C4F20203994229D040F2884322E000BF0D
:102680004023C4F20203994220D058231AE000BF2D
:1026900040F24043C4F20203994217D040F258433B
:1026A00010E000BFA023C4F2020399420ED0B82369
:1026B00008E000BF40F2B843C4F20203994205D0DB
:1026C00040F2A043C4F20203994275D191424FF007
:1026D000040280F8352011DC6F20C4F20200814230
:1026E00022DC3F20C4F20200814239DC1020C4F217
:1026F0000200814259D0282054E000BF40F26F40D0
:10270000C4F2020081421BDC40F23F40C4F20200EE
:1027100081422DDC40F21040C4F20200814244D0DC
:1027200040F228403EE000BF9F20C4F202008142F8
:1027300028DC7020C4F20200814236D0882031E0CB
:1027400040F29F40C4F20200814223DC40F270401C
:10275000C4F20200814228D040F2884022E000BF4B
:102760004020C4F2020081421FD058201AE000BF6E
:1027700040F24040C4F20200814216D040F258407C
:1027800010E000BFA020C4F2020081420DD0B820AA
:1027900008E000BF40F2B840C4F20200814204D019
:1027A00040F2A040C4F202008142086820F001001B
:1027B0000860002080BD00BF0A6822F00E020A6097
:1027C00045F25742C5F6020291420A6822F0010220
:1027D0000A600FDC45F22F42C5F60202914219DC75
:1027E00045F20842C5F60202914229D045F21C4248
:1027F00022E000BF45F27F42C5F60202914213DC9F
:1028000045F25842C5F60202914219D045F26C4297
:1028100012E000BF45F23042C5F6020291420FD0ED
:1028200045F2444208E000BF45F29442C5F6020278
:10283000914205D045F28042C5F6020291421AD17A
:10284000D0E9181CD0E916E30A6822F480720A6005
:1028500003F01F01012202FA01F1CEF80410816E8B
:10286000CCF80410C16E31B10A6822F480720A609B
:10287000D0E91C124A60012180F83510016D002258
:10288000002980F8342094D08847002080BD0000C3
:102890002DE9F04782B00021019140F2100148F289
:1028A000B513C2F20041C1F64E33856D40F26F4957
:1028B0000A680168C4F202092E68A2FB0328494590
:1028C0002A6815DC9F22C4F2020291422CDC5722B6
:1028D000C4F20202914251DC1022C4F2020291427F
:1028E0007BD02822C4F20202914276D040226FE0CF
:1028F00045F22F43C5F60203994229DC40F2B74363
:10290000C4F20203994245DC40F27042C4F2020272
:10291000914262D040F28842C4F2020291425CD0FD
:1029200040F2A04254E000BF40F22742C4F202024B
:1029300091423FDCA022C4F2020291424DD0B82263
:10294000C4F20202914248D040F2104240E000BF7F
:1029500045F26B43C5F60203994275DC45F23043FC
:10296000C5F60203994200F0828045F24443C5F661
:10297000020399427BD045F2584373E05822C4F2D7
:102980000202914229D07022C4F20202914224D064
:1029900088221DE040F2B843C4F2020399421CD0E1
:1029A00045F20843C5F60203994260D045F21C4344
:1029B00058E000BF40F22842C4F2020291420CD01B
:1029C00040F24042C4F20202914206D040F2584224
:1029D000C4F20202914240F05383C26D082302F018
:1029E0001F0240F20F4A9340C4F2020A334200F041
:1029F000DE8051454FF0040412DC6F27C4F2020759
:102A0000B9426DDC3F27C4F20207B94200F39C8053
:102A10001027C4F20207B94200F0BD802827B5E0B4
:102A2000494569DC40F23F47C4F20207B94200F36E
:102A3000938040F21047C4F20207B94200F0AB8025
:102A400040F22847A2E000BF45F26C43C5F60203FE
:102A500099420CD045F28043C5F60203994206D054
:102A600045F29443C5F60203994240F009830B688E
:102A7000C76D07F01F070426BE40164218BF13F0AB
:102A8000040423D10226BE40164218BF13F00204EC
:102A900042D1FA40120740F1F38213F0080200F02D
:102AA000EF820A6822F00E020A60012101FA07F2A1
:102AB0006A60416580F83510C16C00294FF0000252
:102AC00080F8342040F0D882DAE200BF1A046E6049
:102AD00034D49A0636D40A6822F004020A6031E03F
:102AE0009F27C4F20207B94240DC7027C4F20207F4
:102AF000B94250D0882749E040F29F47C4F202070C
:102B0000B9423BDC40F27047C4F20207B94242D0FE
:102B100040F288473AE000BF1A046E6000F1B482C8
:102B20009A0600F1B5820A6822F00A020A600121C1
:102B300080F83510002180F83410A9E2D90301D4BF
:102B4000816C98E2016C96E24027C4F20207B94218
:102B500021D058271AE000BF40F24047C4F20207D4
:102B6000B94218D040F2584710E000BFA027C4F285
:102B70000207B9420FD0B82708E000BF40F2A047D3
:102B8000C4F20207B94206D040F2B847C4F20207C5
:102B9000B94218BF08240F68274208D00F6827F0F1
:102BA00004070F60AB60436D43F0010343650123ED
:102BB000934033426FD0514510DC6F27C4F20207B7
:102BC000B9421DDC3F27C4F20207B94234DC1027AA
:102BD000C4F20207B94256D028274FE049451BDC12
:102BE00040F23F47C4F20207B9422DDC40F21047E1
:102BF000C4F20207B94246D040F228473EE000BF87
:102C00009F27C4F20207B94228DC7027C4F20207EA
:102C1000B94238D0882731E040F29F47C4F202071A
:102C2000B94223DC40F27047C4F20207B9422AD00D
:102C300040F2884722E000BF4027C4F20207B942B1
:102C400021D058271AE000BF40F24047C4F20207E3
:102C5000B94218D040F2584710E000BFA027C4F294
:102C60000207B9420FD0B82708E000BF40F2A047E2
:102C7000C4F20207B94206D040F2B847C4F20207D4
:102C8000B94240F007824F693F0604D5AB60436DFF
:102C900043F0020343650423934033426FD0514510
:102CA00010DC6F27C4F20207B9421DDC3F27C4F2D3
:102CB0000207B94234DC1027C4F20207B94256D0E9
:102CC00028274FE049451BDC40F23F47C4F202078A
:102CD000B9422DDC40F21047C4F20207B94246D097
:102CE00040F228473EE000BF9F27C4F20207B942E6
:102CF00028DC7027C4F20207B94238D0882731E0B7
:102D000040F29F47C4F20207B94223DC40F2704709
:102D1000C4F20207B9422AD040F2884722E000BF3D
:102D20004027C4F20207B94221D058271AE000BF59
:102D300040F24047C4F20207B94218D040F2584767
:102D400010E000BFA027C4F20207B9420FD0B82795
:102D500008E000BF40F2A047C4F20207B94206D023
:102D600040F2B847C4F20207B94240F09B810F68B5
:102D7000BF0704D5AB60436D43F0040343651023E4
:102D800003FA02F2324200F0828051454FF008030C
:102D900010DC6F27C4F20207B9421DDC3F27C4F2E2
:102DA0000207B94234DC1027C4F20207B94256D0F8
:102DB00028274FE049451BDC40F23F47C4F2020799
:102DC000B9422DDC40F21047C4F20207B94246D0A6
:102DD00040F228473EE000BF9F27C4F20207B942F5
:102DE00028DC7027C4F20207B94238D0882731E0C6
:102DF00040F29F47C4F20207B94223DC40F2704719
:102E0000C4F20207B9422AD040F2884722E000BF4C
:102E10004027C4F20207B94221D058271AE000BF68
:102E200040F24047C4F20207B94218D040F2584776
:102E300010E000BFA027C4F20207B9420FD0B827A4
:102E400008E000BF40F2A047C4F20207B94206D032
:102E500040F2B847C4F20207B94218BF04230F6812
:102E60001F4214D0AA600A6852030A6808D4D20527
:102E700008D40A6822F008020A60016C21B906E051
:102E8000110351D4016C11B1044688472046C16D2D
:102E900001F01F02202101FA02F3334200F0AF805B
:102EA00001681027514511DC6F26C4F20206B142B9
:102EB0001EDC3F26C4F20206B14239DC1026C4F201
:102EC0000206B1425BD0282654E000BF49451BDC16
:102ED00040F23F46C4F20206B14231DC40F21046F5
:102EE000C4F20206B1424AD040F2284642E000BF96
:102EF0009F26C4F20206B1422CDC7026C4F2020600
:102F0000B1423CD0882635E040F29F46C4F202062A
:102F1000B14227DC40F27046C4F20206B1422ED024
:102F200040F2884626E000BF816C0029ACD1AEE7B4
:102F30004026C4F20206B14221D058261AE000BF52
:102F400040F24046C4F20206B14218D040F2584660
:102F500010E000BFA026C4F20206B1420FD0B8268E
:102F600008E000BF40F2A046C4F20206B14206D01B
:102F700040F2B846C4F20206B14218BF02270E68FA
:102F80003E423CD0AB6090F83530042B0B681DD12D
:102F900023F016030B604B6923F080034B61036C35
:102FA0000BB9836C1BB10B6823F008030B603F2146
:102FB0009140A960012180F83510016D00294FF082
:102FC000000280F8342057D15AE000BF5A030A6843
:102FD0000CD4D2050ED40A6822F010020A60012136
:102FE00080F83510002180F8341003E0110301D47B
:102FF000416C00E0C16B11B1044688472046416D29
:1030000000293DD0416DC90734D0042180F8351026
:1030100001684FEA98220B6823F001030B60019BC3
:103020000133019393421AD80B68DB0717D0019B39
:1030300001330193934212D80B68DB070FD0019B39
:103040000133019393420AD80B68DB0707D0019B39
:1030500001330193934202D80B68DB07DFD1096883
:10306000C9074FF0030108BF012180F83510002186
:1030700080F83410C16C19B102B0BDE8F0470847C0
:1030800002B0BDE8F08700BFD90301D4416CF2E77C
:10309000C16BF0E70B680423934033427FF4FFAD2C
:1030A0006DE600BF0B686AE62DE9F041044601F0C9
:1030B000EBFCFCB140F26F4805462068C4F2020800
:1030C00040451BDC9F21C4F20201884232DC5721BB
:1030D000C4F20201884259DC1021C4F20201884284
:1030E00000F083802821C4F20201884200F07D8034
:1030F000402175E00120BDE8F08100BF45F22F417D
:10310000C5F60201884229DC40F2B741C4F202014F
:10311000884247DC40F27041C4F20201884264D028
:1031200040F28841C4F2020188425ED040F2A041E0
:1031300056E000BF40F22741C4F20201884241DC60
:10314000A021C4F2020188424FD0B821C4F202018A
:1031500088424AD040F2104142E000BF45F26B4144
:10316000C5F60201884200F3D18045F23041C5F630
:103170000201884200F0DD8045F24441C5F60201BB
:10318000884200F0D68045F25841CDE05821C4F283
:103190000201884229D07021C4F20201884224D061
:1031A00088211DE040F2B841C4F2020188421CD0DF
:1031B00045F20841C5F60201884200F0BA8045F2A6
:1031C0001C41B1E040F22841C4F2020188420CD017
:1031D00040F24041C4F20201884206D040F2584118
:1031E000C4F20201884240F03981022184F835108E
:1031F000002184F83410016821F00101016000BF52
:1032000020680168C9070DD001F03EFC401B06286C
:10321000F6D320206065032084F835000120BDE846
:10322000F08100BF48F23F0204F108060168CFF6C2
:103230001062114065694CCE1143A2691943E369DC
:103240003143266A0D43616A2B43042943EA06038E
:1032500043EA020303D1D4E90B652E433343656887
:10326000A5F12906292E00F23182DFE816F02B00A5
:103270002B002B002B002B002B002F022F022F02E4
:103280002F022F022F022F022F022F022F022F02B6
:103290002F022F022F022F022F022B002B002B00B8
:1032A0002B002F022F022F022F022B002B002F02A8
:1032B0002F022F022F022F022F022B002B002B0098
:1032C0002B0000BF43F4801303600429436923F0FB
:1032D000070341EA030140F0DD80D4E90A53002BE3
:1032E00041EA050100F0D680B2F5005F00F0B88039
:1032F000002A40F0C180022D00F0C180012D00F0B5
:10330000B580002D00F0BB80C4E000BF45F26C41E9
:10331000C5F6020188420CD045F28041C5F6020193
:10332000884206D045F29441C5F60201884240F039
:10333000958004F1080E022184F83510002184F8EC
:1033400034100168A3699EE80450A2F18005E76982
:10335000B5FA85F566696D09402A4FEA853543EA75
:1033600007026FF3101142EA060208BF102541EA76
:10337000DC0142EA0E02236A294341EAD20141EA12
:10338000131140F80819C0B2CD2148433C2101EA8D
:103390009020E0652046FEF737FCE16D012201F048
:1033A0001F0102FA01F141602068404500F381806D
:1033B0009F21C4F20201884214DC5721C4F20201A9
:1033C000884227DC1021C4F20201884200F0C78045
:1033D0002821C4F20201884200F0C1804021C4F2D9
:1033E0000201B9E040F22741C4F20201884221DC27
:1033F000A021C4F20201884200F0B180B821C4F2D9
:103400000201884200F0AB8040F21041C4F2020198
:10341000A2E000BF5821C4F20201884200F09F8060
:103420007021C4F20201884200F099808821C4F220
:10343000020191E040F22841C4F20201884200F00A
:103440008E8040F24041C4F20201884200F0878041
:1034500040F25841C4F202017EE000BF4020D9E6AC
:10346000032D17D8DFE805F00E0B0E02A3F1C07292
:10347000B2FA82F2520904E0032D03D30AD1C3F356
:1034800000623AB140206065012084F83500BDE853
:10349000F08100BF41612046FEF7B6FBE16D3F229F
:1034A00001F01F0102FA01F18160206840457FF7B9
:1034B0007FAF45F22F41C5F60201884216DC40F28B
:1034C000B741C4F20201884226DC40F27041C4F2E6
:1034D0000201884243D040F28841C4F2020188428E
:1034E0003DD040F2A041C4F2020135E045F26B410B
:1034F000C5F6020188421FDC45F23041C5F60201E3
:1035000088422CD045F24441C5F60201884226D0BB
:1035100045F258411EE000BF40F2B841C4F202013A
:1035200088421CD045F20841C5F60201884216D0F7
:1035300045F21C410EE000BF45F26C41C5F60201A8
:1035400088420CD045F29441C5F60201884206D06B
:1035500045F28041C5F60201884240F0E18045F223
:10356000574C45F6FC0EC5F6020CC5F6020E60453A
:103570000EDC45F22F41C5F60201884218DC45F207
:103580000841C5F60201884228D045F21C4121E0DD
:1035900045F27F41C5F60201884213DC45F25841ED
:1035A000C5F60201884219D045F26C4112E000BF15
:1035B00045F23041C5F6020188420FD045F2444140
:1035C00008E000BF45F29441C5F60201884205D0EB
:1035D00045F28041C5F60201884247D100F0FC0166
:1035E0004CF6CD420839CCF6CC42A1FB0212AEF12A
:1035F000FC05AEF17C061309A26803F01F01802AC6
:103600004FF0010205EB8305256602FA01F26666BA
:10361000A26605D100206060286072601EE000BFD5
:103620006368D9B25F1E072F2960726016D84E1EDC
:10363000082E19D260450EF1440237DC45F22F41C5
:10364000C5F60201884249DC45F20841C5F602018F
:10365000884259D045F21C4152E000BF002060670B
:10366000C4E91B005CE000BFE06E54E000F0F8012C
:103670004AF6AB221039CAF6AA22A1FB021240F286
:103680000F43C4F2020308251109984203F1AA0668
:103690000B4688BF05EB121340F60005B042C4F29A
:1036A000020505F1800628BF0B46A5E745F27F41DC
:1036B000C5F6020188421BDC45F25841C5F60201FD
:1036C000884221D045F26C411AE000BF25F0030783
:1036D000742F08BF43F48013F6E500BF45F2304174
:1036E000C5F6020188420FD045F2444108E000BF10
:1036F00045F28041C5F60201884205D045F2944169
:10370000C5F60201884213D10EEB83000121E06669
:10371000B1402267616700210160D4E91C0141606A
:1037200000206065012184F83510BDE8F08100BFFC
:1037300040F60000C4F2020000F1FC0E00F5A07299
:10374000E2E700000000000030B110B590F834400E
:10375000012C03D1022010BD01207047012480F804
:10376000344090F83540012C2CD1022480F83540AB
:1037700000244465D0F800C0DCF8004024F00104C7
:10378000CCF800400446FEF7D3FA40F20F4C206814
:10379000C4F2020C40F26F416045C4F2020119DC30
:1037A0006F23C4F20203984226DC3F23C4F20203D3
:1037B00098423DDC1023C4F2020398425FD02823D4
:1037C00058E000BF4FF400614165002180F83410DB
:1037D000012010BD88421BDC40F23F43C4F20203CB
:1037E00098422DDC40F21043C4F20203984246D0C6
:1037F00040F228433EE000BF9F23C4F202039842F8
:1038000028DC7023C4F20203984238D0882331E0C8
:1038100040F29F43C4F20203984223DC40F270431B
:10382000C4F2020398422AD040F2884322E000BF4B
:103830004023C4F20203984221D058231AE000BF6B
:1038400040F24043C4F20203984218D040F2584379
:1038500010E000BFA023C4F2020398420FD0B823A7
:1038600008E000BF40F2B843C4F20203984206D019
:1038700040F2A043C4F20203984240F02F81036853
:103880000B2262F344030360226C1AB1082302681E
:103890001A430260884219DC9F22C4F2020290425D
:1038A00032DC5722C4F20202904259DC1022C4F2E8
:1038B0000202904200F096802822C4F20202904256
:1038C00000F090804022C4F2020289E045F22F42CB
:1038D000C5F6020290422DDC40F2B742C4F2020269
:1038E00090424BDC40F27042C4F20202904279D026
:1038F00040F28842C4F20202904273D040F2A042E9
:10390000C4F202026CE000BF40F22742C4F202029D
:10391000904243DCA022C4F20202904262D0B8225C
:10392000C4F2020290425DD040F21042C4F20202A0
:1039300056E000BF45F26B42C5F6020290423FDC02
:1039400045F23042C5F6020290424BD045F2444265
:10395000C5F60202904245D045F258423EE000BF13
:103960005822C4F2020290423CD07022C4F20202F9
:10397000904237D08822C4F2020231E040F2B842CD
:10398000C4F2020290422DD045F20842C5F602026E
:10399000904227D045F21C4220E000BF40F228426E
:1039A000C4F2020290421DD040F24042C4F2020230
:1039B000904217D040F25842C4F2020210E000BF19
:1039C00045F26C42C5F6020290420BD045F2944299
:1039D000C5F60202904205D045F28042C5F60202C9
:1039E000904274D1236E1A68D20303D51A6842F448
:1039F00080721A60E36E1BB11A6842F480721A601A
:103A0000604511DC6F21C4F2020188421EDC3F21B7
:103A1000C4F20201884235DC1021C4F2020188425E
:103A200055D0282150E000BF88421BDC40F23F41C6
:103A3000C4F2020188422DDC40F21041C4F20201BE
:103A4000884244D040F228413EE000BF9F21C4F2AA
:103A50000201884228DC7021C4F20201884236D07B
:103A6000882131E040F29F41C4F20201884223DC08
:103A700040F27041C4F20201884228D040F28841ED
:103A800022E000BF4021C4F2020188421FD0582129
:103A90001AE000BF40F24041C4F20201884216D051
:103AA00040F2584110E000BFA021C4F20201884258
:103AB0000DD0B82108E000BF40F2B841C4F20201C5
:103AC000884204D040F2A041C4F202018842016859
:103AD00041F001010160002010BD00BF0268052314
:103AE00063F343020260226C002A3FF4D3AE042346
:103AF000CDE600000000000090F89830013B012B5B
:103B00000ED80068836D0B4212D0836D0B408B4240
:103B100032D1C36D43F00203C3658B050ED412E0AE
:103B200000F19C01012002220B681A430A607047D1
:103B3000C36D43F00103C3658B0504D5D0F8E030B5
:103B40001343C0F8E0304B0504D5D0F8E4301A43F5
:103B5000C0F8E4204FF6FF72436DC3F6CF720A40FF
:103B60001A4342658A0F4AF614010020C4F200018C
:103B70000B681A430A6070470323C3658B05DDD4C5
:103B8000E1E700000000000090F89830022B1BD104
:103B90002DE9F0430668D6F8C03013F07C5F1BD0E7
:103BA000D6F8C4309B0221D4D6F8C4300C69C3F3D4
:103BB000044CD1E90035002D8D6821D023432B43DF
:103BC00043F0804E20E000BFD0F89C1041F0080187
:103BD000C0F89C1001207047D0F89C1041F02001E3
:103BE000C0F89C100120BDE8F08300BFD0F89C1005
:103BF00041F40071C0F89C100120BDE8F08300BFC3
:103C000044EA834343EA050E836ED0F88450D1E939
:103C100007970CFB03F48B6949EA0767D1F8148016
:103C2000D1F80C901F4305EB840347EA080745F8D9
:103C300024E047EA09475F60CF6887B14DF6F00599
:103C4000083303320024C0F6000500BF171957F8E7
:103C5000037C1F51CF680434EF5DBC42F6D30121D1
:103C600001FA0CF1C6F8D010C0F894100020BDE89D
:103C7000F08300000000000070470000000000001A
:103C800090F89820013A012A0CD880B50A68002AD9
:103C9000CA680FD00B69072A43EA427E18D18B69A4
:103CA0001BE000BFD0F89C1041F00201C0F89C104E
:103CB00001207047072A19D10A69D1E906C3120405
:103CC00042EA032242EA0C0242F0605218E000BFCE
:103CD000D1F808C04B6943EA8C73006F496800EB68
:103CE000C10240F831E05360002080BD8B68D1E90B
:103CF00004CE9B0743EAC26242EA0C4242EA0E0249
:103D00004968C06E40F82120002080BD00000000FE
:103D10007047000000000000704700000000000035
:103D20002DE9F04390F89870022F11D1402919D154
:103D30000668D6F8A07017F4FE0F2FD0D6F8A4703E
:103D40007F0635D0D6F8A470FF013BD400273CE0B5
:103D5000D0F89C1041F00801C0F89C100120BDE88B
:103D6000F08300BF41290FD10668D6F8B07017F470
:103D7000FE0F13D0D6F8B4707F0619D0D6F8B47001
:103D8000FF012BD400272CE0076DB94206D200F1C9
:103D90007C05466D4FF0000C0F462BE0D0F89C10D0
:103DA00041F02001C0F89C100120BDE8F08300BF65
:103DB000D0F89C1041F48071C0F89C100120BDE83F
:103DC000F08300BFD6F8A070FF0FD6F8A46000F112
:103DD0007405C6F305263E44476C0AE0D6F8B07079
:103DE000FF0FD6F8B46000F17805C6F305263E440F
:103DF000C76CB44607FB06F42D6805EB840E55F836
:103E0000247017F08047576055F8247027F06046FB
:103E100008BFC7F38A46166055F8247007F00057AC
:103E2000976055F8244004F000441461BEF8044043
:103E3000D461BEF8064014F00F04D460DEF80440EC
:103E400004F480145461DEF8044004F40014946116
:103E50009EF8074004F07F041462DEF804404FEA45
:103E6000D474546228D04DF6F0080024C0F600083F
:103E70000EEB0406651C377A1F55D76818F80770D3
:103E8000BD4219D21F19757A7D70D56818F8059052
:103E9000A51C4D453FBFB57ABD70D56818F8059093
:103EA0003CBFE51C4D4507D2F57A0434FD70D5685A
:103EB00018F80550AC42DBD3402905D10068C0F8A2
:103EC000A8C00020BDE8F083412905D10068C0F8F2
:103ED000B8C00020BDE8F0831F2909D8006801227E
:103EE00002FA01F1C0F898100020BDE8F08300BF8D
:103EF000006801F01F01012202FA01F1C0F89C10D4
:103F00000020BDE8F08300007047000000000000C2
:103F10002DE9F04F87B004464AF61000C4F20000C5
:103F200001684AF61400C4F20000026820680A40E2
:103F3000D0F850B0D0F85490056D466D036D0293E3
:103F4000436D0193036D0693436D0593036D0493D5
:103F5000436D0393D0F854A0D0F850805FEACA5361
:103F600011D518F480710ED04FF4807101654AF6B6
:103F700010010020C4F20001174608602046FFF738
:103F8000C3FF3A4620685FEA4A510BEA090B4FEA41
:103F9000827740F14B814AF6100918F48061C4F22F
:103FA000000910D0D0F8DC100092D0F8E4201140C5
:103FB0004FF4806202650020C9F80000204600F03E
:103FC0007FFC009A206805EA06050BF4704657B19D
:103FD0000021016502F00300C9F8000020463946BF
:103FE000FFF74AFE2068DDE9012101EA020705F03A
:103FF0000F0546B106650020C9F80000204631468D
:1040000000F066FC206807F0F00645B10565002069
:10401000C9F800002046294600F012FC206846B18D
:1040200006650020C9F800002046314600F010FC6B
:1040300020685FEA0A510CD518F4006109D04FF4EA
:10404000006101650020C9F80000204600F044FC32
:1040500020685FEA8A5111D518F400710ED0D0F8AB
:10406000D810D0F8E02011404FF400720265002013
:10407000C9F80000204600F027FC20685FEA0A31FA
:104080000CD518F4002109D04FF40021016500205F
:10409000C9F80000204600F0CFFB20685FEACA3173
:1040A0000CD518F4803109D04FF48031016500201F
:1040B000C9F80000204600F0FFFB20685FEA4A31A3
:1040C000DDE9032101EA02050CD518F4802109D0AD
:1040D0004FF4802101650020C9F80000204600F05F
:1040E000E7FB20685FEA8A31DDE9052102EA010287
:1040F00005F060710ED518F400330BD04FF4003387
:1041000003650023C9F80030D4F89C3043F08003E5
:10411000C4F89C3002F0715539B101650020C9F82E
:1041200000002046FFF7F8FD206845B10565002135
:10413000C9F80010D4F89C102943C4F89C10A9F5C4
:10414000016188420AD0D4F89C0000286AD0204639
:1041500007B0BDE8F04FFFF7DBBD00BF60688168C6
:104160008907F0D0016A426A036A476A114003EA8C
:10417000070202F03005D0F82080D0F82490D0F863
:1041800020B0466A026A069211F00F01426A059257
:10419000D0F824A0026A049203D00162204600F005
:1041A0007BFB08EA09072DB16068294605622046B5
:1041B00000F07AFB5FEA4A6006EA0B0607F4C07576
:1041C0000ED5049810F040000AD060684023C16BFF
:1041D000C26B090C02F03F020362204600F060FB54
:1041E000DDE9051000EA010706F4FC462DB1606820
:1041F00029460562204600F04BFB07F4F02036B15B
:1042000061680E62D4F89C103143C4F89C100028F9
:1042100099D061680862D4F89C100843C4F89C00E7
:1042200091E700BF07B0BDE8F08F00BF4AF6100964
:10423000C4F20009002F05EA06050BF470467FF46E
:10424000C7AED0E600000000F0B12DE9F04F83B01A
:104250004AF200080446C4F200080068404533D022
:1042600094F89810B9B3816921F01001816100F0D0
:104270000BFC054620688169090707D500F004FC9E
:10428000401B0B28F6D312E001207047816941F0F2
:104290000101816100F0F8FB054600BF20688169DB
:1042A000C90721D100F0F0FB401B0B28F6D30120F9
:1042B000D4F89C100843C4F89C00032084F89800AC
:1042C000012003B0BDE8F08F08F58071616094F8BB
:1042D00098100029C7D1002084F89900204600F0EA
:1042E000B3F92068BFE700BF816941F00201816135
:1042F000217C826922F04002012918BF403282618C
:10430000617C826922F48042012908BF02F5804263
:104310008261A17C826922F48052012918BF02F5D2
:1043200080528261816921F44073D4E902120B4307
:104330008361836923F0A4038361036923F010037D
:1043400003619AB1012A0DD0022A09D08369032A98
:1043500043F080038361036943F01002026105D1D9
:10436000202200E0042283691A438261D4E90572A5
:10437000E369561E6FF0FF02256A02EB0323B1F5D5
:10438000407F43EA4663A5F1010646EA030640F290
:104390000003CFF6FF7303EB074746EA0701C1614D
:1043A00010D1D4E90B65D4E90917013F02EB0622CD
:1043B0006FF00F063A4306EB05173A4303EB014152
:1043C0001143C160236E2BB1616ED0F8C020114340
:1043D000C0F8C010E16DCDE90113D9424DF29C71D6
:1043E000C0F6000109D0D0F8C820A36E22F0070261
:1043F00051F823301A43C0F8C820D4F840C0BCF1AB
:10440000000F09D0D0F8BC20636C22F0070251F8ED
:1044100023301A43C0F8BC20D4F848B0BBF1000FD9
:104420000AD0D0F8BC20E36C22F0700251F823309F
:1044300042EA0312C0F8BC20D4F850A0BAF1000F31
:104440000AD0D0F8BC20636D22F4E06251F823104A
:1044500042EA0121C0F8BC10404504D161688A6875
:1044600022F003028A600021C4F89410C4F89C1062
:10447000012184F8981004F13409D0F884104FF623
:10448000FC729143656C99E80C02009541EA820147
:10449000C0F88410D0F8841021F47F0141EA034170
:1044A000C0F884109918D0F888306FF38F0343EA6E
:1044B0008103C0F88830D0F8883023F4FE0343EA43
:1044C0000943C0F8883001EB4903D0F8A0606FF3CE
:1044D0008F0646EA8306C0F8A060D0F8A06026F4F4
:1044E000FE0646EA0C46C0F8A06005FB0C36D0F884
:1044F000B0306FF38F0343EA8603C0F8B030D0F8D2
:10450000B03023F4FE0343EA0B43C0F8B030E36C51
:10451000D0F8AC506FF38F0503FB0B6645EA8605B8
:10452000C0F8AC50D4F8548008FB0A65D0F8F060AD
:104530006FF38F0646EA8506C0F8F060D0F8F0E029
:10454000A66D2EF47C1747EA0647C0F8F070F70016
:1045500007EB8507D0F8C0506FF38F052F43C0F8E5
:10456000C070D0F8C070009DDDF804E027F47C171F
:1045700005FB0CFC4AF2000547EA0E47C0F8C07084
:10458000C4F2000503FB0BC305F54067D0F8C0502B
:1045900007EB820207EB810125F07C57029D47EA79
:1045A0000567C0F8C07001EBC90008FB0A37216736
:1045B000A16E00EB8C0C606700EB8303E266C4E93C
:1045C0001EC30EFB01F300EB87006943C4F88000B3
:1045D00000EBC600C4F8840000EB8300C4F8880038
:1045E00000EB81004DF2FC31C4F20001C4F89000F0
:1045F000884201D920205BE682421FD2114600206A
:1046000041F8040BD4F890309942BFF45AAE506090
:1046100002F10801D4F8903099423FBF906002F156
:104620000C01D4F890309942BFF44BAED0601032F8
:10463000D4F890108A42E1D343E600BF002003B0D3
:10464000BDE8F08F00000000B0B5B6B0044602A887
:10465000B8210025CDE93455CDE932553195FCF727
:1046600026F84DF200412068C4F20001884200F0B3
:1046700097804AF20041C4F2000188424CD04AF2CD
:104680000001C4F20001884240F0D1800020039074
:104690004FF4004002904FF080501D9002A800F0AF
:1046A000AFFC08B1FDF7CCFC40F2103144F2E04021
:1046B000C2F20041C5F602000A68002A02F10102B6
:1046C0000A6008D1C16841F48071C160C16801F419
:1046D000807101910199016841F008010160006851
:1046E00040F2004100F008000190C5F60201019877
:1046F00003203190022032900020CDE933000920C0
:10470000359001F5006031A900F0EAF81320062188
:104710000022132486E000BF002003904FF40040E5
:1047200002904FF080501D9002A800F069FC08B183
:10473000FDF786FC40F2103144F2E040C2F2004145
:10474000C5F602000A68002A02F101020A6008D1D7
:10475000C16841F48071C160C16801F48071019148
:104760000199016841F002010160006831A900F07F
:104770000200019001984FF4405031900220329095
:104780000020CDE933000920359040F20040C5F605
:10479000020000F0A5F8142007210022142441E0B3
:1047A0004FF4004002904FF080501D9002A80395F6
:1047B00000F026FC08B1FDF743FC40F2103144F252
:1047C000E040C2F20041C5F602000A68002A02F188
:1047D00001020A6008D1C16841F48071C160C168FA
:1047E00001F4807101910199016841F0200101609B
:1047F0000068002100F0200001900198C020CDE960
:10480000331140F200413190C5F60201022032908E
:10481000359001F5805031A900F062F89F20082101
:1048200000229F2400F048FA204600F031FA36B00A
:10483000B0BD000000000000704700000000000054
:10484000C90708BF704705F08BBC000000000000DE
:10485000704700000000000090F8981001290DD169
:10486000022180F8981001688A6922F001028A61A9
:104870000021C0F89C100020704700BFD0F89C10A9
:1048800041F00401C0F89C100120704700000000B6
:1048900070470000000000007047000000000000AA
:1048A000704700000000000070470000000000009A
:1048B000704700000000000070470000000000008A
:1048C000704700000000000070470000000000007A
:1048D000704700000000000070470000000000006A
:1048E0002DE9F04F83B00F68002F00F0C98000F170
:1048F000264642F2004506F1FF76C5F602050A2279
:10490000A8424FEAB62540F2040C08BF092200F184
:1049100020030093082DC5F6000C38BF4FEAB622DD
:10492000002400264FF0000801920AE008F1010877
:104930000F6837FA08F206F1020604F1040400F0E9
:104940009F80012202FA08FE17EA0E09EED0D1F884
:1049500004B003220BF00307B2407D1E6FEA020A87
:10496000012D11D88268CD6802EA0A02B5402A43B7
:104970008260CBF30015426822EA0E0205FA08F5C0
:104980002A43426004E000BF032F01D103271FE048
:10499000C2688D6802EA0A02B540022F42EA0502A7
:1049A000C26015D16FF0030204F01C0502EA580B37
:1049B000009A0F2352F80BE0AB400F692EEA030375
:1049C000AF403B4342F80B30D1F804B00BF0030783
:1049D000026807FA06F302EA0A021BF4403F42EAC1
:1049E00003020260A2D044F2F44340F2084EC5F63E
:1049F0000203C5F6000E0F251A6842F002021A6083
:104A00001A6802F00202029228F00302029B04F0EC
:104A10000C0352F80E709D40AF43019D05FA03F35D
:104A20003B4342F80E304FF0B04EDEF800204B68AA
:104A300042EA0907DD0258BF22EA09079D02CEF8C3
:104A40000070DCF8002042EA090758BF22EA090793
:104A50009D03CCF80070DCF8802042EA090758BFBB
:104A600022EA0907DB03CCF88070DCF87C2042EAFC
:104A7000090758BF22EA0907CCF87C7056E700BF47
:104A800003B0BDE8F08F000044F64C10C2F20040C5
:104A9000006870470000000040F2080044F64C1126
:104AA000C2F20040C2F2004100780A681044086077
:104AB000704700000000000080B5032000F02CF9D2
:104AC00001F0BEF944F218414DF2F473C5F602014B
:104AD000C0F600030A68C2F303229A5C096801F079
:104AE0000F0102F01F02595CD04040F21402C2F2E2
:104AF000004201F01F0120FA01F1116040F21001A3
:104B0000C2F2004108600F2000F00AF800281CBF24
:104B1000012080BD00F0A4F8002080BD000000004E
:104B20000F2843D8B0B58AB004462C200022214675
:104B3000002500F0C1F82C2000F0AAF840F20C008B
:104B4000C2F20040046044F2F040C5F60200016881
:104B500041F002010160006801A900F0020002902A
:104B6000029802A801F0B8F801F03AF94DF6836115
:104B70004000C4F21B3140F20042A0FB010140F2B0
:104B80001860C2F200404FF0FF33C4F2010202602D
:104B900003EB9141C0E9011540F2E731C0E903158B
:104BA00001F0F2FC20B101200AB0B0BD0120704735
:104BB00040F21860C2F2004001F056FD0AB0B0BDEC
:104BC00010B54EF6A05E4378CEF2000E90F800C00D
:104BD0004EF8083CDEF8003023F00103CEF8003038
:104BE00043684EF8043C037BC27A817A447B120608
:104BF00042EA0372837B42EAC141C27B41EA8441BB
:104C0000447A41EA4341007A41EA024141EA0421FF
:104C100041EA400040EA0C00CEF8000010BD000060
:104C20004EF62450CEF20000BFF35F8F016821F4EE
:104C30008031016000210167704700000000000022
:104C40004EF6245140F00100CEF2000108670868DA
:104C500040F480300860BFF34F8FBFF36F8F704711
:104C600081B044F2F4400022C5F60200016841F030
:104C70000201016000680F2100F0020000906FF057
:104C80000100009B01B000F017B800000000000018
:104C9000002848BF704700F01F01012202FA01F10D
:104CA0004EF20012C0F34A10CEF2000242F8201079
:104CB000704700000000000070B54EF60C5C4FF02D
:104CC000FF36CEF2000C00F1604505F56445DCF8D6
:104CD0000030C3F3022E8EF00703042B28BF0423F9
:104CE000BEF1030406FA03F321EA030100F00F0307
:104CF00038BF0024043B0028634406FA04F048BF90
:104D000003F10C05A14022EA0000084300012870CD
:104D100070BD0000000000004EF60C514FF6FF037E
:104D2000CEF200010A681A4060F30A2242F0806065
:104D300040F0FD7008607047B0B544F60C05C5F64C
:104D4000020529684907296806D401F00701081AF5
:104D500018BF0120B0BD00BF21F007010843286043
:104D6000FFF792FE044600BF55F8080C800407D4F4
:104D7000FFF78AFE001BB0F57A7FF5D90120B0BDA0
:104D80000020B0BD0000000080B500F0D1FF44F26B
:104D900020414DF2F472C5F60201C0F60002096826
:104DA000C1F30211515C01F01F01C84080BD000039
:104DB00080B544F2384EC5F6020E5EF8103C5EF83F
:104DC000101C5EF80C2CC1F3053CDEF80410BCF19D
:104DD000000F19D0C9089FED3C1AD20601EAE27112
:104DE00003F003026FF35F3100EE101AB8EE400AD1
:104DF000DFE802F0022210225EF8381C89060DD48A
:104E00009FED331A18E000BF00218160C0E9001156
:104E100080BD00BF9FED2D1A0EE000BF5EF8381C6C
:104E200049F20002C0F2D032C1F3C10122FA01F10D
:104E300001EE101AB8EE411ADEF800109FED253A87
:104E40006FF35F2102EE101ADEF80010C1F3462165
:104E5000B8EE422A013100EE032A00EE10CAB7EE86
:104E6000003AB8EE400A81EE000A32EE031A20EE54
:104E7000010A01EE101AB8EE411A80EE011ABCEEDA
:104E8000C11A80ED001ADEF80010C1F306410131AD
:104E900001EE101AB8EE411A80EE011ABCEEC11AEA
:104EA00080ED011ADEF80010C1F30661013101EE58
:104EB000101AB8EE411A80EE010ABCEEC00A10EEDC
:104EC000101A816080BD00BF0024744A20BCBE4B14
:104ED0000024744C0000003980B544F2404EC5F601
:104EE000020E5EF8183C5EF8181C5EF8142CC1F334
:104EF000055CDEF80410BCF1000F19D0C9089FED65
:104F00003C1AD20501EAE27103F003026FF35F314C
:104F100000EE101AB8EE400ADFE802F0022210227A
:104F20005EF8401C89060DD49FED331A18E000BFCF
:104F300000218160C0E9001180BD00BF9FED2D1AE6
:104F40000EE000BF5EF8401C49F20002C0F2D03211
:104F5000C1F3C10122FA01F101EE101AB8EE411AB3
:104F6000DEF800109FED253A6FF35F2102EE101A74
:104F7000DEF80010C1F34621B8EE422A013100EEFE
:104F8000032A00EE10CAB7EE003AB8EE400A81EEEE
:104F9000000A32EE031A20EE010A01EE101AB8EEF2
:104FA000411A80EE011ABCEEC11A80ED001ADEF83B
:104FB0000010C1F30641013101EE101AB8EE411A9A
:104FC00080EE011ABCEEC11A80ED011ADEF8001065
:104FD000C1F30661013101EE101AB8EE411A80EEFC
:104FE000010ABCEEC00A10EE101A816080BD00BF3D
:104FF0000024744A20BCBE4B0024744C00000039CD
:105000002DE9F0470446C07844F22C480007C5F665
:10501000020828D5606E4FEA305103292AD8DFE80C
:1050200001F0030B131B00BFD8F8001041F400314E
:10503000C8F8001010E000BF04F10800022102F0DF
:105040005BFD064680B906E004F12800022102F06B
:10505000E7FD064640B9606ED8F8241021F44011EF
:105060000843C8F8240000266078C00706D13546FA
:105070002FE000BF01266078C007F8D0A06D04289B
:105080003ED83546DFE800F004140E0B0B0000BFDD
:10509000D8F80000354640F40030C8F800002F462C
:1050A000C5B90DE004F12800002102F0B9FD04E0CB
:1050B00004F10800002102F01FFD05462F464DB9FE
:1050C000D8F82400A16D20F0070000250843C8F897
:1050D00024003746607840073AD5D4F8A4004FEA58
:1050E0007050052818D8DFE800F0031D1123232392
:1050F000D8F8000040F40030C8F8000018E000BF05
:105100000125012760784007E7D421E004F1280059
:10511000002102F085FD0AE00125012660780007E4
:105120001AD44FE004F10800002102F0E5FC054626
:105130002E461DB1607800070ED443E0D8F82C004D
:10514000D4F8A41020F4600000250843C8F82C000F
:105150003E466078000735D5D4F8A8004FEA3060A5
:10516000052813D8DFE800F004180C1E1E1E00BF2F
:10517000D8F8000040F40030C8F8000012E000BF8A
:1051800004F12800002102F04BFD0AE0012501276F
:10519000E07880071AD434E004F10800002102F01E
:1051A000ABFC05462F461DB1E07880070ED428E001
:1051B000D8F82C00D4F8A81020F0E06000250843AF
:1051C000C8F82C003746E07880071AD5E06C4FEA23
:1051D0003010032838D8DFE800F009032D0900BF9C
:1051E000D8F8000040F40030C8F800002E464DB951
:1051F000D8F82000E16C20F0300000250843C8F802
:1052000020003E466078C00639D5E06D4FEA303068
:10521000042847D8DFE800F004221C0A0A0000BF77
:10522000D8F8000040F40030C8F800002F463DBB1D
:105230001CE000BF04F10800022102F05DFC0546FD
:10524000002D2E46DED1D3E701250126DAE700BF87
:1052500004F12800002102F0E3FC04E004F108005E
:10526000002102F049FC05462F464DB9D8F824002C
:10527000E16D20F4E04000250843C8F824003746DB
:105280006078800635D5206E4FEA3040052815D865
:10529000DFE800F0041A0E04040400BF2E46DDB956
:1052A0001EE000BF0125012760788006EBD420E0D6
:1052B00004F12800012102F0B3FC0AE001250126D7
:1052C0006078400619D449E004F10800012102F099
:1052D00013FC05462E461DB1607840060DD43DE016
:1052E000D8F82400216E20F4E02000250843C8F8F7
:1052F00024003E466078400630D5D4F8AC004FEA32
:10530000307005280ED8DFE800F00313070303030D
:105310002F46ADB918E000BF04F12800012102F0CA
:105320007FFC0AE001250127607800061AD43CE0E2
:1053300004F10800012102F0DFFB05462F461DB1F4
:10534000607800060ED430E0D8F82C00D4F8AC1009
:1053500020F0E04000250843C8F82C00374660786C
:10536000000622D5E06E58B1B0F1005F0CD0B0F16C
:10537000805F37D1D8F8000040F40030C8F8000052
:105380002E469DB908E000BF04F10800012102F09B
:10539000B3FB05462E464DB9D8F82400E16E20F047
:1053A000405000250843C8F824003E46E078C00776
:1053B0001DD0A06C032855D8DFE800F008024A0889
:1053C000D8F8000040F40030C8F80000A9467DB9C4
:1053D000D8F82000A16C20F0030000250843C8F88D
:1053E000200004E001250126E078C007E1D1B146A4
:1053F000A078400602D44F4618E000BFD8F8D40386
:1054000040F48070C8F8D403FFF73EFB064600BFA7
:10541000D8F8D403C00507D4FFF736FB801B6428F7
:10542000F6D90325032701E02F46FDB12078C007F8
:1054300000F06F80A06F4FEAF00005284ED8DFE83B
:1054400000F0035347030303002D2E4654D157E0C9
:1054500004F10800022102F04FFB0546002DA94689
:10546000C6D1B5E701254FF00109C1E7D8F84410CE
:10547000D4F8B000414011F4407F11D0D8F8441066
:10548000D8F8442042F48032C8F84420D8F84420A8
:1054900021F4407122F48032C8F84420C8F8441046
:1054A000B0F5807F40F0D082FFF7EEFA064641F279
:1054B000883A0325032700BFD8F84400800700F18D
:1054C000C182FFF7E1FA801B5045F5D9AEE700BF76
:1054D00004F12800012102F0A3FB0AE001250126C6
:1054E0002078800719D446E004F10800012102F079
:1054F00003FB05462E461DB1207880070DD43AE007
:10550000D8F82800A16F20F0380000250843C8F81B
:1055100028003E46207880072DD5606F05280FD8DB
:10552000DFE800F004140804040400BF2F46ADB9FE
:1055300018E000BF04F12800012102F071FB0AE02D
:10554000012501272078400719D447E004F108001D
:10555000012102F0D1FA05462F461DB120784007FF
:105560000DD43BE0D8F82800616F20F0070000253B
:105570000843C8F828003746207840072ED5D4F8CD
:10558000900005280ED8DFE800F00313070303039B
:105590002E46ADB918E000BF04F12800012102F049
:1055A0003FFB0AE001250126207880061AD44BE053
:1055B00004F10800012102F09FFA05462E461DB1B4
:1055C000207880060ED43FE0D8F82C00D4F8901054
:1055D00020F0070000250843C8F82C003E4620783C
:1055E000800631D5D4F88C004FEA307005280FD8EA
:1055F000DFE800F004140804040400BF2F46ADB92E
:1056000018E000BF04F12800022102F009FB0AE0C3
:1056100001250127207840061AD44BE004F1080048
:10562000002102F069FA05462F461DB12078400698
:105630000ED43FE0D8F82800D4F88C1020F0E040D9
:1056400000250843C8F8280037462078400631D5A1
:10565000D4F898004FEAB02005280FD8DFE800F012
:1056600004140804040400BF2E46ADB918E000BFBE
:1056700004F12800022102F0D3FA0AE001250126F4
:10568000207800061AD44EE004F10800002102F050
:1056900033FA05462E461DB1207800060ED442E0AE
:1056A000D8F82C00D4F8981020F4E05000250843D6
:1056B000C8F82C003E462078000634D5D4F89C006B
:1056C0004FEA7030052815D8DFE800F0041A0E0400
:1056D000040400BF2F46E5B12068010727D4C106A6
:1056E0003ED4000355D477E004F12800022102F0F3
:1056F00097FA0AE00125012720680107EFD516E097
:1057000004F10800002102F0F7F90546002D2F46AC
:10571000E2D1D8F82C00D4F89C1020F46040002589
:105720000843C8F82C00374620680107D7D5D4F8BD
:105730008000B0F5805F09D104F12800022102F059
:105740006FFA002818BF0127D4F88000D8F8281075
:1057500021F440510843C8F828002068C106C0D58C
:10576000D4F89400B0F5807F09D104F1280002211B
:1057700002F056FA002818BF0127D4F89400D8F890
:105780002C1021F440710843C8F82C002068000355
:1057900022D5D4F8A000B0F5003F11D0B0F5803F7D
:1057A00008D0002844D104F10800002102F0A4F937
:1057B00005E000BF04F12800022102F031FA05469D
:1057C0002E4655B9D8F82C00D4F8A01020F440305B
:1057D00000250843C8F82C003E46A07840072CD589
:1057E000D4F88400B0F5401F0BD0B0F5001F0BD0EB
:1057F000B0F5801F2AD1D8F8000040F40030C8F876
:1058000000002F46D5B907E004F12800012102F07D
:1058100007FA05462F468DB9D8F82800D4F8841029
:1058200020F4401000250843C8F8280005E000BF18
:1058300001250126A0784007D2D43746A078C007BA
:1058400009D13E462168880015D532E0012501279F
:10585000A078C007F5D0206DB0F5803F10D018BB00
:10586000D8F8000040F40030C8F800002E4685B19A
:10587000216888001DD460688A0326D465E000BFD3
:1058800004F10800022102F037F90546002D2E46EA
:10589000EED1D8F82000216D20F480300025084397
:1058A000C8F82000CDE700BF012501262168880047
:1058B000E1D504F12800022102F0B2F9002818BF56
:1058C0000126D4E900108A033FD5E26F6FF001038F
:1058D00003EB3223022B0BD34FEA322343B1012BCC
:1058E00040F0AA80D8F8003043F40033C8F8003004
:1058F00025B3CA022CD48A0234D44A003CD4CA0F3D
:1059000049D1090251D4C1075AD1810763D4410753
:105910006CD4010776D4C10600F18080800607D5DB
:1059200004F12800022102F07BF9002818BF0125AC
:10593000002D18BF01252846BDE8F087D8F828308B
:1059400023F440731A43C8F828203546CA02D2D53A
:10595000D8F82420236F22F000421A43C8F82420EC
:105960008A02CAD5D8F82420A36E22F080721A4386
:10597000C8F824204A00C2D558F81C2C22F4004252
:1059800048F81C2CD4F8B42058F81C3C1A4348F8AA
:105990001C2CCA0FB5D0D8F82020636D22F04052DD
:1059A0001A43C8F820200902ADD5D8F82810D4F839
:1059B000882021F440011143C8F82810C107A4D061
:1059C00004F10800002102F097F8002818BF0546EE
:1059D000606881079BD504F10800012102F08CF872
:1059E000002818BF05466068410792D504F10800F9
:1059F000022102F081F8002818BF054660680107FF
:105A00007FF589AF04F12800002102F009F9002890
:105A100018BF05466068C1067FF580AF04F1280015
:105A2000012102F0FDF8002818BF054660688006D5
:105A30003FF576AF7CE700BF0125CA027FF55BAF7B
:105A400086E700BFD4F8B0004FF6CF7358F81C2C8F
:105A5000C0F2FF0300F4407122F47C5203EA1013F9
:105A60006FF31F30B1F5407F08BF1A43002548F897
:105A70001C2CD8F844100843C8F84400FFF7BBBCFE
:105A80002DE9F04381B0002800F0208142F20009A6
:105A90000446C5F20029D9F8000000F00F00814249
:105AA0000DD9D9F8000020F00F000843C9F8000014
:105AB000D9F8000000F00F00884240F0078120680C
:105AC00044F218464207C5F602060AD52269336831
:105AD00003F070039A4204D9336823F070031A4329
